:020000040800F2
:1000000010070020AD010008F72D00081529000891
:10001000F52D000855160008ED310008000000001D
:10002000000000000000000000000000FB2D0008A0
:100030005716000800000000F92D0008FD2D0008EB
:10004000C7010008C7010008C7010008C701000870
:10005000C7010008C7010008C7010008C701000860
:10006000C7010008C7010008C7010008C701000850
:10007000C7010008C7010008C7010008C701000840
:10008000C7010008C7010008C7010008C701000830
:10009000C7010008C7010008C7010008C701000820
:1000A000C7010008C7010008C7010008C701000810
:1000B000C7010008C7010008C7010008C701000800
:1000C000C7010008C7010008C7010008C7010008F0
:1000D000C7010008E1310008C7010008C701000896
:1000E000C7010008C7010008C701000800F002F8B6
:1000F00000F04DF80AA090E8000C82448344AAF175
:100100000107DA4501D100F042F8AFF2090EBAE872
:100110000F0013F0010F18BFFB1A43F0010318473B
:10012000603D0000803D0000103A24BF78C878C1CF
:10013000FAD8520724BF30C830C144BF04680C60ED
:10014000704700000023002400250026103A28BF35
:1001500078C1FBD8520728BF30C148BF0B60704739
:10016000662903F09785752900F07C80782900F0D6
:10017000B580002070471FB500F070FC040000201F
:10018000002103F01DFAE0601FBD10B510BD00F0A6
:1001900065FD1146FFF7EFFF03F054F800F083FD13
:1001A00003B4FFF7F2FF03BC00F0C6FD0948804727
:1001B00009480047FEE7FEE7FEE7FEE7FEE7FEE749
:1001C000FEE7FEE7FEE7FEE704480549054A064B61
:1001D00070470000592E0008ED00000810010020B3
:1001E0001007002010030020100300200FB41CB5DE
:1001F000074B06AA7B4469460090059800F015FC61
:100200000020694600F024FC1CBC5DF814FB0000D3
:100210005908000070B5044685690068C10601D51B
:10022000302600E02026C00707D070BDD4E90121A8
:1002300030469047206A401C20626D1EF6D570BD86
:1002400070B5044685690078C00707D170BDD4E950
:10025000012120209047206A401C20626D1EF6D5A7
:1002600070BD00002DE9F041064600241068752994
:10027000314616A510D0AFF30080002802DA4042C4
:1002800013A507E031688A0701D512A502E04907E6
:1002900004D511A5012401E0AFF3008000210A225A
:1002A00006F1240709E0B0FBF2FCB0FBF2F302FB1D
:1002B0001C00303078541846491C0028F3D12346DE
:1002C0002A463046BDE8F04100F041B90000000088
:1002D0002D0000002B0000002000000070B5044637
:1002E0000D4621461068AFF300802188090502D52C
:1002F0000F4A7A4402E00E4A7A440E32002104F199
:10030000240305E000F00F060009965D5E54491CC9
:100310000028F7D120780023000704D5702D02D0E3
:1003200009B1022311322046BDE8704000F00FB938
:10033000BC3A00002DE9F05F894604464FF0000A00
:10034000DFF874B1FB44C0F820A02046E16888477C
:10035000002874D0252806D0D4E901219047206ACE
:10036000401C2062F1E700265F462046E16888478E
:100370002028054607DB312D05D2781910F8200C0E
:1003800008B10643F1E7B00701D526F00406C4F82A
:100390001CA00027C4F818A02A2D09D0284602F076
:1003A0004AFF38B304EB8708303DC8F8185019E00D
:1003B00059F8041B204604EB87029161E1688847E5
:1003C000012F054618D1E069002820DA26F0200622
:1003D0001DE0D8F8180000EB800005EB4000303835
:1003E000C8F818002046E1688847054602F023FF58
:1003F0000028EED1012F0AD02E2D08D12046E16829
:1004000088477F1C0546022F46F02006C4DBA06902
:10041000002803DA404246F00106A061F00701D04F
:1004200026F010066C2D0BD0682D09D04C2D39D03C
:100430006A2D35D0742D35D07A2D33D016E038E0C2
:10044000E1682F4620468847B842054609D16C2FFF
:1004500026D04FF48060E168064320468847054671
:1004600004E06C2F1AD04FF4807006430DB3A5F151
:100470004100192802D8203546F400664A4629462C
:10048000204626604E46FFF76BFE80B101280BD058
:10049000F61D26F0070000F1080956E74020E4E7C2
:1004A0008020D8E70020D6E706F104094DE728466A
:1004B00052E7206ABDE8F09F923A000010B5431C55
:1004C00002E010F8011B71B18107FAD14FF001323F
:1004D00002C88C1A8C4314EAC211F9D0C01A0A0659
:1004E00003D0C01E10BDC01A10BD0A0401D0801E6A
:1004F00010BD0902FCD0401E10BD4FF0000200B537
:10050000134694469646203922BFA0E80C50A0E836
:100510000C50B1F12001BFF4F7AF090728BFA0E8E4
:100520000C5048BF0CC05DF804EB890028BF40F8B0
:10053000042B08BF704748BF20F8022B11F0804FF2
:1005400018BF00F8012B70477047704770472DE9BE
:10055000F0470D4699469246044600F1240801688A
:10056000880604D5E06921F01001216000E0012037
:10057000A84201DD471B00E00027A1697A1902EBC0
:100580000900081AA0612078C00602D42046FFF7AF
:1005900041FE002608E0D4E901211AF80600904740
:1005A000206A401C761C20624E45F4DB2078C00691
:1005B0000AD52046FFF72EFE06E0D4E901213020BF
:1005C0009047206A401C2062381EA7F10107F4DC26
:1005D00007E0D4E9012118F805009047206A401C83
:1005E0002062281EA5F10105F3DC2046FFF728FE56
:1005F0002078000602D50220BDE8F0870120FBE745
:1006000070472DE9FF4F0C461E464FF0FF378BB069
:10061000D2E90001DDF860800A908A46C1F30A55EC
:1006200005B93D46002108464FF00000BAF1000F21
:1006300000F4400005DA00EB80004FF4400101EACD
:1006400050004FEA9059B9F1010F00DDB9460A9800
:1006500050EA4A000ED044F61050A5F2FF3545434B
:100660002F14B8F1000F1ED07542291E1EDDC9F1EE
:1006700000021CE0B8F1010F4FF0000001D0302162
:1006800003E0F24305E02154401CB042FBDB30465E
:100690000022002121540B99C1F80880C1E90020F3
:1006A0000FB0BDE8F08FBD1B6D1CDEE74A4600DAD7
:1006B000694206A800F05CFA06AB93E8070003ABBA
:1006C00083E8070050460A9900F03DFB8DE80700DB
:1006D000A0F500501F3800900398002D0ADD42F26B
:1006E0001F014A460844002303A90390684600F00E
:1006F000A6FD09E0A0F500504A461F38002303A9D3
:100700000390684600F0B0FD8DE807000004000C7F
:1007100003D04FF0FF30410800E01046B8F1000F61
:1007200003D00022009215461EE0751E05D400F08D
:1007300099F9303262556D1EF9D5B346012208434E
:1007400002D000227F1C04E02078302801D1002252
:100750007F1E002A099784D01DE0112D07DA00F0D2
:1007600081F9303262556D1C50EA0102F5D108431F
:1007700002D00098C8B10EE00021681E05E0235C9D
:10078000625C63542254401E491C8142F7DBAB4635
:10079000A81B401E0990002004F80B000B98099A32
:1007A000C0F80880C0E9002B7AE711264FF0000856
:1007B00057E72DE9F04F88460446D21D22F0070185
:1007C00091B0D1E90001CDE90A0102F010FD024625
:1007D0000B98C00F01D02D2007E02068810701D5BC
:1007E0002B2002E0202101EAC000032A099001D059
:1007F000072A05DB03464146204600F079F90BE164
:100800002078800601D5E06900E00620B8F1650F88
:10081000814606D0B8F1660F18D0B8F1670F70D1D5
:1008200031E00020B9F1110F009001DB112301E04C
:1008300009F101030AAA01A90CA8FFF7E2FEDDE90C
:100840000C70002609F10105834647E001204B4664
:1008500000904FF000470AAA01A90CA8FFF7D1FEAB
:10086000DDE90DB00C995D46002610B909F10100D3
:100870000D18B9EB050003D4C0F1FF3609F10105ED
:10088000A5EB09002BE0B9F1010F01DA4FF00109E6
:100890000020B9F1110F0090484601DD112300E05E
:1008A00003460AAA01A90CA8FFF7ABFEDDE90C700C
:1008B0004D4600268346207800070AD4AB4500DA6F
:1008C0005D4601A8012D04DD411911F8011C3029F4
:1008D00007D04F4502DA17F1040F04DA01208246EF
:1008E0000FE06D1EEEE7002F02DCED1B3E4403E03F
:1008F000781CA84200DD7D1CB81B00F1010A4FF0F6
:1009000000472078000703D4AA4501DB4FF0FF3AE7
:100910000021B7F1004F0DF143088DF8431024D0AA
:1009200002202B23002F01DA7F422D230A21021EF1
:10093000A0F1010000DC5FB197FBF1FC97FBF1F245
:1009400001FB1C7C17460CF1300C08F801CDEEE7DA
:10095000A8F1010003702188090501D5452100E0B7
:100960006521A0F1010800F8011C09980FA9A1EB6D
:100970000807FF1D00B10120411901EBEA70A169D0
:100980003844081A401EA0612078C00602D42046D0
:10099000FFF740FC099828B1D4E901219047206A6B
:1009A000401C20622078C00622D52046FFF732FC8A
:1009B0001EE0002E04DBB34502DD01A8805D00E0EF
:1009C0003020D4E901219047206A401C2062761C27
:1009D000AAF101005FEA000A0AD100F03FF8C068FE
:1009E0000168405CD4E901219047206A401C2062E4
:1009F000281EA5F10105DCDC07E0D4E9012118F887
:100A0000010B9047206A401C2062381EA7F10107A5
:100A1000F3DC2046FFF714FC032011B041E6000090
:100A200001694A1C02610878704700B58FB0CDE9B2
:100A300001310021059105497944CDE903101146A2
:100A40006846FFF777FC0FB000BD0000E5FFFFFF31
:100A50000A6802F8010B0A607047000000487047FE
:100A6000CC00002030B5B0F10A024FEA900E71F1CF
:100A700000034EEA817EB0EB0E0061EB91014FEA7C
:100A8000101E4EEA017E10EB0E0041EB11114FEAF1
:100A9000102E4EEA016E10EB0E0041EB11214FEAD1
:100AA000104E4EEA014E10EB0E0041EB1141401882
:100AB00041F100014FEAD00040EA41704FEAD10114
:100AC00010EB80054FEA810444EA907444EB010482
:100AD0006D1944EB0404521BA3414FF0000348BFBF
:100AE0000A3200D530BD401C41F1000130BD00008C
:100AF0002DE9F0411F46044603260168072A01F448
:100B0000006004DB08B116A505E016A503E008B1F6
:100B100015A500E015A521F010002060A069C01EF9
:100B2000A0610FB1401EA0612046FFF773FB4FB1DB
:100B3000D4E9012138469047206A401C2062C01C3D
:100B4000206206E0206AFAE7D4E9012115F8010BDA
:100B50009047761EF8D22046FFF772FBBDE8F08181
:100B60004E414E006E616E00494E4600696E660051
:100B70002DE9F047814616468AB0354878440DC8BD
:100B80008DE80D0032487844801C03AC0DC884E821
:100B90000D0041F69B300844372190FBF1F290FBA9
:100BA000F1F5A5F1800501FB12041B3C02D564425E
:100BB000012000E00020DFF898A080460027FA44DA
:100BC000AAF1BE0A0EE0E0070AD03246684607EBFB
:100BD000470101230AEB810100F046FB8DE8070085
:100BE00064107F1C002CEED1194F7F44AE3F19E0FA
:100BF000E80715D007EB04100DF1180A90E80E0075
:100C00008AE80E00C068F04201D198190890324677
:100C1000012306A903A800F027FB03AB83E8070024
:100C20006D10641C002DE3D14FF00103324669467C
:100C3000B8F1000F03A802D000F001FB01E000F0C2
:100C400013FBC9E90001C9F808200AB0BDE8F08724
:100C5000E832000000487047AC0000207546FFF7FE
:100C6000F9FFAE4605006946534620F00700854669
:100C700018B020B5FFF7A8FABDE820404FF00006F5
:100C80004FF000074FF000084FF0000B21F0070174
:100C9000AC46ACE8C009ACE8C009ACE8C009ACE8B7
:100CA000C0098D46704710B50446AFF3008020465A
:100CB000BDE81040FFF774BA4FF0013C50F8042B28
:100CC00051F8043B9A4221D1A2EB0C03934313EA5F
:100CD000CC1317D150F8042B51F8043B9A4215D18C
:100CE000A2EB0C03934313EACC130BD150F8042B63
:100CF00051F8043B9A4209D1A2EB0C03934313EA47
:100D0000CC13DBD04FF00000704700BFD01A01BAFF
:100D1000B1FA81F101F0180122FA01F0CB40C1F1E2
:100D20002001DBB2C0B2C01A2CFA01F3D11A9143F0
:100D300011EAC311E6D1704701491820ABBEFEE7A6
:100D40002600020070475FEA400C08BF91F0000FD8
:100D50004FEA8C234FEAC12243EA51514FEA1C501B
:100D600018BF00F5F0404FEA300018BF41F00041D5
:100D70005FEA6C5C00F02980BCF1FF3F08BF40F0E7
:100D800080407047130C06BF12044FF0100C4FF058
:100D9000000C130E04BF12020CF1080C130F04BF59
:100DA00012010CF1040C930F04BF92000CF1020C21
:100DB000D30F04BF52000CF1010C11464FF000029A
:100DC000A0F11F00A0EB0C00704711F0004F08BF0E
:100DD000704731F000413FF4D5AF0B0C06BF09045A
:100DE0004FF0100C4FF0000C0B0E04BF09020CF179
:100DF000080C0B0F04BF09010CF1040C8B0F04BF8E
:100E000089000CF1020CCB0F04BF49000CF1010C5E
:100E1000CCF12003A0EB0C0022FA03F302FA0CF24F
:100E200041EA030100F10100704720F07F4C80EAA5
:100E3000030023F07F47ACEB070303F57C5300F07E
:100E4000004003F1FF032DE980494FEA154B09B437
:100E50004FEA144325EA0B4E24EA03480FF2042616
:100E600006EB132749083E785FEA320203FB066768
:100E7000C7F5000707FB06F64FEA54374FEAD64698
:100E800006F1020607FB066CCCF1005C4FEA1C473A
:100E90002CEA074C07FB06F40CFB06F504EB1546A1
:100EA0004FEA961634BF00204FF000404FEAD1378A
:100EB00006FB07FC4FEA1C4C0CFB0BF7D21B03FB99
:100EC0000CF761EB07010CFB0EF7B0EB074072EB80
:100ED00017420CFB08F734BFA2EB0742B2EB074204
:100EE00061EB17414FEA0C444FEA910706FB07FC00
:100EF0004FEA1C4C0CFB0BF7B0EBC74072EB5732C0
:100F000003FB0CF734BFA2EBC742B2EBC74261EB65
:100F100057310CFB0EF7B0EBC70072EB57720CFBAE
:100F200008F734BFA2EBC702B2EBC70261EB5771FF
:100F3000039F4FEA816141EA921104EBCC044FEA2E
:100F4000D1374FEA826206FB07FC42EA90124FEA71
:100F500080604FEA1C4C0CFB0BF7D21B03FB0CF719
:100F600061EB07010CFB0EF7B0EB074072EB174289
:100F70000CFB08F734BFA2EB0742B2EB074261EB70
:100F800017414FEA8C554FEA910704EB9C2406FB6E
:100F900007FC4FEA1C4C0CFB0BF7B0EBC74072EBA5
:100FA000573203FB0CF734BFA2EBC742B2EBC74288
:100FB00061EB57310CFB0EF7B0EBC70072EB5772C9
:100FC0000CFB08F734BFA2EBC702B2EBC70261EB20
:100FD000577115EB4C254FEA816141EA92114FEAB6
:100FE00082624FEAD13742EA901206FB07FC44F1D5
:100FF00000044FEA80604FEA1C4C0CFB0BF7D21B3D
:1010000003FB0CF761EB07010CFB0EF7B0EB07409D
:1010100072EB17420CFB08F734BFA2EB0742B2EBAE
:10102000074261EB174115EB1C154FEA813141EA8C
:1010300092414FEA823242EA90424FEA80304FEAD0
:101040000C7644F1000448EA03434EEA0B484FF0A3
:10105000000EB2EB080C71EB030724BF6246394661
:101060004EEB0E0E4FF0000B0018524149414BEB76
:101070000B0BB2EB080C71EB03077BF1000B24BFE9
:10108000624639464EEB0E0E4FF0000B00185241EF
:1010900049414BEB0B0BB2EB080C71EB03077BF1F7
:1010A000000B24BF624639464EEB0E0E51EA020792
:1010B00018BF46F0010616EB0E7655F1000254F10A
:1010C000000103D5BDE88901BDE80088BDE88901BC
:1010D000BDE80048B619524141EB0101A3F10103FB
:1010E000704780807F7E7D7C7B7A79787776767595
:1010F0007473727171706F6E6E6D6C6C6B6A6A690D
:101100006868676666656464636362616160605FA6
:101110005F5E5E5D5D5C5C5B5B5A5A59595858571F
:101120005756565555555454535352525251515087
:1011300050504F4F4F4E4E4D4D4D4C4C4C4B4B4BDA
:101140004A4A4A4949494848484747474746464620
:10115000454545444444444343434342424242415B
:101160004141002B9C4630D477002BD01CB54FEA70
:10117000370703B44FF010004FF01001BAF1000F21
:1011800006D0BCF1000FDCBF40F0080040F00801C1
:101190004FF000000FBCBDE810400BF1010BBBF19C
:1011A000010F08BF5FEA170722BF12F1010211F118
:1011B00001014FF0004143F1000300F0004043EA19
:1011C00000007047F9D35708D0E746EA064613F106
:1011D000400F4FEA16461FDD13F1200FDFBF164305
:1011E0000A46002120335B42BED0C3F1200746EA05
:1011F000064602FA07F74FEA164646EA0706C3F123
:10120000200722FA03F201FA07F721FA03F14FF05F
:10121000000342EA0702A7E746EA020646EA064654
:101220004FEA164646EA0106BCBF46EA0646360CB9
:101230004FF000034FF000024FF0000194E72DE95A
:10124000804C9A46934670B491E8380007C831EA5A
:10125000400C48BF34EA430C03D5FFF7E6FDFFF727
:1012600080FFF0BCBDE8008C2DE9804C9A46934687
:1012700070B491E8380007C810F0804F08BF13F031
:10128000804F03D100F005F8FFF76BFFF0BCBDE81D
:10129000008C20F07F4780EA030023F07F4C07EBAF
:1012A0000C03A3F57C5300F00040A3F1FE0392F081
:1012B000000F00F0B38095F0000F00F077802DE96B
:1012C00001494FEA11404FEA144621EA004800FB69
:1012D00006FC24EA064708FB06F607FB08F800FBB5
:1012E00007F718EB06484CEB164C4FEA124B18EB7D
:1012F00007484FEA15464CEB174022EA0B4E0BFB12
:1013000006FC25EA06470EFB06F607FB0EFE0BFB66
:1013100007F71EEB064E4CEB164C4FF000061EEB8B
:10132000074E4CEB174B18EB0B0840F1000018EB85
:101330000E0B58EB000840F100008F1A4FF000012F
:101340003CBFC943661B14BFB5EB040C00213CBF76
:10135000C943F61B4FEA17444EEA8E0E27EA0445AE
:101360004FEA1C4704FB07622CEA074C05FB07F712
:101370000CFB05F604FB0CFC16EB074642EB174290
:1013800016EB0C4642EB1C421BEB060658EB020226
:10139000414146EA9E0601D5BDE80189B619524190
:1013A00041EB0101A3F10103BDE801894FEA1445B6
:1013B0004FEA114724EA054621EA074C05FB07F4EA
:1013C00006FB07F70CFB06F105FB0CFC11EB0741D4
:1013D00044EB17444FEA124711EB0C4144EB1C4419
:1013E00022EA074C05FB07F206FB07F70CFB06F6A3
:1013F00005FB0CFC16EB074642EB174216EB0C46BE
:1014000042EB1C456A1854F1000148BF7047B619F9
:10141000524141EB0101A3F10103704795F0000F28
:1014200037D04FEA11424FEA144721EA024624EA34
:10143000074C02FB07F106FB07F70CFB06F402FB67
:101440000CFC14EB074441EB17414FEA154714EB32
:101450000C4441EB1C4125EA074C02FB07F506FB57
:1014600007F70CFB06F602FB0CFC16EB074645EBF8
:10147000174516EB0C4645EB1C42121951F10001C1
:1014800048BF7047B619524141EB0101A3F1010376
:1014900070474FEA14454FEA114724EA054621EA0E
:1014A000074C05FB07F106FB07F70CFB06F24FF0B4
:1014B000000605FB0CFC12EB074241EB174112EB57
:1014C0000C4251EB1C4148BF7047921841EB01019F
:1014D000A3F10103704700003EB513A0006802901D
:1014E000282000F037F96424032302AA70210F4852
:1014F000009400F031FC98B9642000F02BF9002032
:101500008DF80400012301AA70210848009400F01E
:10151000FBFA28B99DF80400C0F3C100032801D0EC
:1015200001203EBD00203EBDBE080000100000208E
:10153000FEB5064600200D4601904FF47A740A2746
:1015400002900EE0012301AA70212A48009700F0C2
:10155000DBFA18B99DF80400000605D5012000F05B
:10156000F9F8641EEED200E044B164200090062336
:1015700001AA70211F4800F0C7FA08B10120FEBD82
:101580009DF805009DF80610000340EA01109DF843
:10159000071040EA111002F01FFB02F0F1FA0022DE
:1015A000154B02F005F96FF01304224602F0A6FB7A
:1015B00002F01CF828609DF807009DF8081000074D
:1015C000000B40EA01209DF80910084302F004FBDB
:1015D00002F0D6FA0022094B02F0EAF8224602F0A5
:1015E0008DFB0022064B02F0E1F901F0FFFF3060B5
:1015F0000020FEBD1000002000005940000069409E
:10160000000049401CB500208DF8040064200090C3
:10161000012301AA7021044800F076FA08B1FF20E6
:101620001CBD9DF804001CBD100000201CB507A0C7
:101630000323006801906420009001AA70210448EF
:1016400000F08AFB002800D001201CBDAC33000054
:1016500010000020FEE7704772B6054D4FF40054AD
:101660002146284600F078F9642000F073F8F7E787
:101670000010014010B590F821100022022905D079
:101680000421816380F82020012010BD01680B68CF
:1016900023F00E030B6001680B6823F001030B605D
:1016A00090F84030C46B012101FA03F3636080F8C5
:1016B000211080F82020104610BD000010B590F8D1
:1016C00021100024022903D00421816301243DE07C
:1016D00001680A6822F00E020A6001680A6822F0B6
:1016E00001020A601A4A0168914201D1012121E0F8
:1016F000174A1432914201D110211BE0144A2832BA
:10170000914201D1891515E0114A3C32914201D133
:1017100089140FE00E4A5032914202D14FF48031C9
:1017200008E00B4A6432914202D14FF4801101E08B
:101730004FF08071064A083A5160012180F821106B
:10174000002180F82010416B01B18847204610BD70
:101750000800024070B5044600F00CF90546601C14
:1017600002D004480078044400F004F9401BA04271
:10177000FAD370BD000000202DE9F84FDFF8B891D2
:101780000024A9F1040B23460F2709F1040AABF149
:10179000040EC9E00125A5402A40AA427DD1674E2A
:1017A000D1F804C0ACEB0608B44532D014DCBCF16F
:1017B000030F3AD009DCBCF1000F2AD0BCF1010FB5
:1017C0001CD0BCF1020F31D11DE0BCF1110F17D0BC
:1017D000BCF1120F2AD119E0B8F5881F19D006DC28
:1017E000B8F5803F15D0B8F5801F1FD111E0B8F5CE
:1017F000001F0ED0B8F5041F18D10AE0CB6815E021
:10180000CB681B1D12E0CB6808330FE0CB680C33AC
:101810000CE08B682BB1012B4FF0080303D045611E
:1018200004E0042302E0056100E00023FF2A01D860
:10183000064601E000F104064FEA840501D9A5F14E
:101840002005D6F8008007FA05FC28EA0C0803FA00
:1018500005F548EA0508C6F800804D68ED0062D538
:10186000374DAE6946F00106AE61AD6924F003065E
:1018700005F001050095334D06EB050CDCF808502A
:10188000A607360F07FA06F825EA0805DFF8B8803C
:10189000404503D14FF0000817E044E0DFF8AC808A
:1018A000404502D14FF001080FE0DFF8A480404529
:1018B00002D14FF0020808E0DFF89880404502D1DD
:1018C0004FF0030801E04FF0040808FA06F848EA70
:1018D0000508CCF808804D68D9F80060ED024D4647
:1018E00001D5164300E096432E604D68DAF800609B
:1018F000AD02554601D5164300E096432E604D6873
:10190000DBF80060AD035D4601D5164300E0964369
:101910002E604D68DEF80060ED03754601D5164374
:1019200000E096432E60641C0D682A46E5407FF473
:1019300031AFBDE8F88F000008040140000011102D
:10194000001002400000014000080140000C01406E
:101950000010014000140140C26821EA02030A405D
:1019600043EA0241016170470AB10161704709040D
:10197000FBE700000148806870470000000000207D
:1019800070B5040025D094F83D00002520B984F8F6
:101990003C50204600F076FA242084F83D00206870
:1019A000016821F0010101602068016841F40041F3
:1019B00001602068016821F40041016000F0C4FB6F
:1019C0004D4A6168914201D84C4900E04C49884237
:1019D00001D2012070BD4B492368B0FBF1F15E6874
:1019E00026F03F060E435E606368934206D94FF4CB
:1019F000967359434FF47A73B1FBF3F12368491C92
:101A00001E6A26F03F06314319626168914210D880
:101A10004900401EB0FBF1F2521CC2F30B02042A33
:101A200001D2042022E0B0FBF1F0401CC0F30B0017
:101A30001CE0A268F2B301EBC10303EB0116431EE5
:101A4000B3FBF6F35B1C43F480431B0549D092B310
:101A500001EBC10202EB0111401EB0FBF1F0401C92
:101A6000C0F30B0040F4804040F400402168CA6994
:101A70004CF6FF739A431043C861D4E90710014341
:101A80002068026822F0C00211430160D4E903011A
:101A900001432068826848F2FF339A431143816012
:101AA000D4E9050108432168CA6822F0FF02104307
:101AB000C86001E00EE016E02068016841F0010115
:101AC00001602564202084F83D00256384F83E50A1
:101AD000002070BD01EB4106431EB3FBF6F35B1C17
:101AE000B3E70120C2E701EB4101401EB0FBF1F07A
:101AF000401CC0F30B00B7E7A086010080841E00E5
:101B000000093D0040420F002DE9F84F0025DDF8A7
:101B10002890984617468A4604460095FFF72AFF04
:101B2000064694F83D0020287AD1192301228649DF
:101B30002046009600F0F6FF0028F5D194F83C000E
:101B400001286DD0012084F83C0020680168C90795
:101B500003D1016841F0010101602068016821F4AE
:101B600000610160222084F83D00102084F83E00CE
:101B700025646762A4F82A80608D20857348E0623E
:101B800033464A465146204600F0DCFE00287CD110
:101B9000208DDFF8BC81202768B1012814D00228ED
:101BA000206801681ED041F48061016020684169AD
:101BB00080690090BBE020684169816900910168FB
:101BC00041F400710160B2E02068016821F4806195
:101BD000016072B62068416981690091016841F431
:101BE00000710AE041F40061016072B62068416949
:101BF00081690091016821F48061016062B696E01C
:101C0000032865D801280CD002284B464FF000026B
:101C10004146204600960BD000F084FFA8BB0CE0A4
:101C200090E032464946204601F022F868BB71E058
:101C300000F078FF48BB72B633E02068016821F4F9
:101C40008061016072B620680069616A0870606A2C
:101C5000401C6062208D401E2085608D401E608586
:101C60003C4846F2A8110068B0FBF1F0C0EBC000A0
:101C700000EB80000090401E009007D02068406973
:101C8000C04340070DD50098F5E727E044F8305FE2
:101C90006773A573206940F02000206162B6257348
:101CA0001CE02068016841F400710160206800694F
:101CB000616A0870606A401C6062218D491E21853E
:101CC000618D491E618562B621680969017025E050
:101CD00032464946204600F0CBFF10B10120BDE856
:101CE000F88F20680069616A0870606A401C606251
:101CF000208D401E81B22185608D401E6085206848
:101D00004269D243520712D4032903D1016821F456
:101D10008061016020680069616A0870606A401C27
:101D20006062208D401E2085608D401E6085208D64
:101D300000287FF465AF84F83D7084F83E5084F845
:101D40003C50CCE70220CAE7020010000000FFFF71
:101D5000040001000C0000202DE9F84F1F469046BA
:101D60008A460446DDF82890FFF704FE054694F8FD
:101D70003D0020287FD119230122404920460095AB
:101D800000F0D0FE002876D194F83C00012872D0F3
:101D9000012084F83C0020680168C90703D101686C
:101DA00041F0010101602068016821F400610160D7
:101DB000212084F83D00102084F83E00002626648F
:101DC000C4F824806785608D20852D48E0622B460D
:101DD0004A465146204600F02BFE90B920684169E2
:101DE0008069009036E02A464946204600F078FF98
:101DF00050B1206C042804D12068016841F40071BE
:101E000001600120BDE8F88F606A216800780861F0
:101E1000606A401C6062618D491E6185218D491E8A
:101E200089B2218522685369DB435B070BD451B12A
:101E300000781061606A401C6062608D401E6085A1
:101E4000208D401E20852A464946204600F03EFE51
:101E50000028CED1208D0028C5D154F83D0B016853
:101E600041F400710160202004F81E09E6776677CE
:101E70000020C7E7FFE70220C4E7000002001000CF
:101E80000000FFFF10B586B0002100910191029182
:101E9000039100680F4988421AD10F4CA06940F0A5
:101EA0000800A061A069694600F008000490C02005
:101EB000009012200190032003900848FFF75CFC7B
:101EC000E06940F40010E061E06900F40010049063
:101ED00006B010BD0054004000100240000C01404C
:101EE0000248816802781144816070470000002038
:101EF000074810B5016841F010010160032000F0AF
:101F000075F80F2000F006F800F024F8002010BD4E
:101F10000020024070B50D4D04464FF47A712878C8
:101F2000B1FBF0F00A490968B1FBF0F000F0E2FA09
:101F300048B9102C07D200222146501E00F036F876
:101F400000206C6070BD012070BD0000000000200A
:101F50000C0000200C4808B5816941F00101816145
:101F6000816901F001010091C16941F08051C161B5
:101F7000C06900F0805000900448416821F0E061A1
:101F800041F00071416008BD0010024000000140B6
:101F9000002809DB00F01F02012191404009800068
:101FA00000F1E020C0F8001170470000F0B40E4BC3
:101FB0001B680C46C3F30223C3F10705042D00D9A7
:101FC0000425191D072901D2002300E0DB1E01268C
:101FD00006FA05F1491E214099409E40761E1640A2
:101FE0003143F0BC01F017B90CED00E0064900F0F8
:101FF000070208684FF6FF03184040EA0220034A30
:1020000010430860704700000CED00E00000FA0586
:102010002DE9F0470F46050061D0434E306800F0CF
:102020000700B84209D2306820F00700384330601A
:10203000306800F00700B84251D128683B4C810756
:1020400012D5400703D5606840F4E06060602878EE
:10205000000703D5606840F4605060606068A9685C
:1020600020F0F000084360602878C00728D0686836
:10207000012810D02168022810D0890700292EDA03
:10208000616821F0030101436160FFF773FC804642
:1020900041F288390DE021688903EFE78901EDE716
:1020A000FFF768FCA0EB0801494502D90320BDE811
:1020B000F0876068696800F00C00B0EB810FEFD129
:1020C000306800F00700B8420BD9306820F00700F4
:1020D00038433060306800F00700B84201D001207A
:1020E000E5E72878400705D56068E96820F4E060F6
:1020F000084360602878000706D56068296920F4E5
:10210000605040EAC100606000F03EF86168084A33
:10211000C1F30311515CC8400649086006480068D5
:10212000FFF7F8FE0020C2E7002002400010024046
:102130009A3D00080C0000200400002001480068BF
:10214000704700000C0000200448054900684968F9
:10215000044AC1F30221515CC84070470C000020C2
:1021600000100240AA3D000804480549006849687B
:10217000044AC1F3C221515CC84070470C000020E2
:1021800000100240AA3D00080E4A51680E4801F0B6
:102190000C03042B11D0082B0FD10C48C1F383433F
:1021A000C903C05C0AD55168084AC1F34041921E78
:1021B000515C054A5043B0FBF1F070470449484375
:1021C000704700000010024000127A008A3D0008AB
:1021D00000093D002DE9F84F040070D02078C04D73
:1021E000C00749D06868C0F38100012807D068683B
:1021F000C0F38100022809D16868C00306D52868A9
:10220000800339D560680028E7D035E06068B0F514
:10221000803F0BD010B1B0F5A02F11D0286820F46A
:1022200080302860286820F4802002E0286840F48C
:1022300080302860606890B1FFF79CFB06460AE09A
:10224000286840F480202860F0E700BFFFF792FB89
:10225000801B642873D828688003F7D50CE0FFF74B
:1022600089FB064605E000BFFFF784FB801B64285E
:10227000F0D828688003F7D420789A4E80074FF072
:1022800001094FF0000839D5686810F00C0F07D02D
:102290006868C0F38100022809D16868C00306D4C9
:1022A0002868800714D52069012808D110E020692A
:1022B000B0B1C6F80090FFF75DFB074605E00AE104
:1022C000FFF758FBC01B0228C4D828688007F7D541
:1022D0002868616920F0F80040EAC10028600DE03C
:1022E000C6F80080FFF746FB074604E0FFF742FB15
:1022F000C01B022823D828688007F7D4207800075D
:102300002CD57948A169D9B1C0F80090FFF732FB0C
:10231000074604E0FFF72EFBC01B02280FD8686AAF
:102320008007F7D571484FF4FA510068B0FBF1F01F
:10233000009000BF0098411E0091FAD20EE080E0AC
:10234000C0F80080FFF716FB074604E0FFF712FB1A
:10235000C01B022875D8686A8007F7D42078400728
:1023600060D5E8690027C00008D4E86940F08050D3
:10237000E861E869012700F0805000905C4801683E
:10238000C90513D40168834641F480710160FFF7E9
:10239000F1FA824606E000BFFFF7ECFAA0EB0A0074
:1023A00064284ED8DBF80000C005F5D5E0680128A8
:1023B0000AD008B1052813D0286A20F0010028624D
:1023C000286A20F0040002E0286A40F00100286238
:1023D000E06841F2883B98B1FFF7CCFA82460BE007
:1023E000286A40F004002862EEE700BFFFF7C2FA57
:1023F000A0EB0A0159455AD8286A8007F6D50CE0A7
:10240000FFF7B8FA824605E0FFF7B4FAA0EB0A013D
:1024100059454CD8286A8007F6D41FB1E86920F0E6
:102420008050E861E06988B36968C1F381010229DD
:1024300044D00228C6F8608004D0FFF79BFA044617
:1024400038E034E0FFF796FA074604E0FFF792FA27
:10245000C01B02282BD828688001F7D4206AB0F569
:10246000803F05D16868A16820F4003008436860A7
:10247000D4E908010843696821F4741108436860CD
:10248000C6F86090FFF776FA044606E025E000BF44
:10249000FFF770FA001B022809D828688001F7D5D9
:1024A0001BE000BFFFF766FA001B022802D90320D9
:1024B000BDE8F88F28688001F4D40EE00128F7D039
:1024C0006868226A00F48031914204D1616A00F4A4
:1024D0007010884201D00120EAE70020E8E7000000
:1024E0000010024000004242800442420C000020E2
:1024F0000070004010B5401EB0F1807F01D3012074
:1025000010BD4FF0E02460610F21601700F083FEE2
:102510000020A06107202061002010BD7047704797
:10252000F8B5016804460868CA684B6910F00F0FD7
:102530004FF0000559D003F0010602F490773743BD
:1025400065D0C10705D0D10503D5616C41F001010B
:102550006164410705D5D90703D0616C41F00201E0
:102560006164810705D5D90703D0616C41F004018E
:102570006164010707D502F02001314303D0616C8B
:1025800041F008016164616C00293AD0800604D5ED
:10259000900602D5204600F01AFD20684069616C63
:1025A000C0F38010090700D460B3204600F0E8FCB7
:1025B00020684069400621D52068143050E8001F8B
:1025C00021F0400140E80012002AF5D1E06BA8B1EB
:1025D0006D494163E06BFFF771F8002811D0E06BA3
:1025E000416B01B0BDE8F040084783060FD5930664
:1025F0000DD52046BDE8F84000F0E9BC2046FFF7C5
:102600008EFFF8BD2046FFF78AFF6564F8BD266B94
:102610002023012E7CD1C6067AD5D60678D5086847
:102620004868009048694FF00206400640D5E16BCB
:10263000086840680004000CE8D0A28D8242E5D909
:10264000E085886920282DD020680C3050E8001FD4
:1026500021F4807140E80012002AF5D1206814307E
:1026600050E8001F21F0010140E80012002AF5D1D6
:102670002068143050E8001F21F0400140E80012AB
:10268000002AF5D184F84230256320680C3050E8E8
:10269000001F21F0100140E80012002AF5D1E06B84
:1026A000FEF7E8FF6663A08DE18D401A81B22AE053
:1026B000A08DE18D401A81B2E08D0028A6D00029BE
:1026C000A4D022680C3252E8000F20F4907042E847
:1026D0000007002FF5D12068143050E8002F22F0B9
:1026E000010240E80027002FF5D184F8423025632D
:1026F00020680C3050E8002F22F0100240E8002340
:10270000002BF5D166632046FFF708FFF8BDFFE711
:1027100005062BD5150629D594F841002128F5D1B9
:10272000A068B0F5805F01D12069B0B1206A411C7A
:102730002162216800784860E08C401E0004000C93
:10274000E084E3D12068C16821F08001C160206885
:10275000C16841F04001C160D8E7206A0088C0F339
:1027600008004860206A801C2062E5E74006CDD55D
:102770005006CBD5CA68204622F04002CA6084F8D1
:10278000413000F0C6F8C1E7712F000870B50400B1
:1027900004D094F84100002510B106E0012070BD7E
:1027A00084F84050204600F023F8242084F84100AB
:1027B0002068C16821F40051C160204600F07AFC15
:1027C0002068016921F4904101612068416921F08C
:1027D0002A0141612068C16841F40051C16065640B
:1027E000202084F8410084F842006563002070BD19
:1027F00030B585B0002400940194029403940068DD
:10280000184988422CD11848816941F4804181617E
:10281000816901F480410491816941F00401816181
:102820008069124D00F0040004904FF40070009095
:10283000022001900320039069462846FEF79CFF82
:102840002815CDE90004694628460294FEF794FF56
:10285000002211462520FFF7A9FB2520FFF798FB52
:1028600005B030BD003801400010024000080140B2
:1028700070472DE9F843044690F841009846164603
:102880000D46202802D00220BDE8F88385B17EB134
:1028900000206064212084F84100FFF76BF8A684D3
:1028A0008146E684A0682027B0F5805F02D003E06F
:1028B0000120E9E7206910B12E4600250EE0002630
:1028C0000CE08021204600F051FCA8B9C6B116F8F2
:1028D000010B21684860E08C401EE084E08C4B4690
:1028E0004FF00002CDF800800028EAD14FF04001FF
:1028F000204600F03BFC40B184F841700320C3E760
:1029000035F8020BC0F30800E3E784F841700020BB
:10291000BAE77047FEE701684A69D24352050FD40F
:102920006FF480624A61002140F8301F2022427318
:102930008173026942F00402026101730120704751
:10294000002070472DE9F84F0446C06A1E469346A2
:102950000D4621680A6842F480620A60082807D0A0
:10296000012805D010F5803F02D0206B112804D13A
:102970002068016841F4807101604FF001195B46E5
:10298000002249462046009600F0CCF84FF400782B
:1029900040B120680068C00501D5C4F8408003201C
:1029A000BDE8F88F2069DFF884A0B0F5804F0FD024
:1029B0000620216800EAD51747F0F0000861334689
:1029C0005A460AF10601204600F0F4F858BB03E02D
:1029D000E8B240F001001CE02168E8B2086133462B
:1029E0005A465146204600F0E5F8E0B920684169B2
:1029F00081690091016841F4807101605B460022A9
:102A000049462046009600F08DF80028C1D147F0D5
:102A1000F1002168086133465A465146204600F0CD
:102A2000C9F80028BCD00120BAE70000020001006C
:102A3000F8B50446C06A1E460D461746082807D05A
:102A4000012805D010F5803F02D0206B122804D158
:102A50002068016841F480710160134600224FF044
:102A600001112046009600F05DF840B12068006832
:102A7000C00502D54FF4007020640320F8BD206922
:102A8000B0F5804F0ED00620216800EAD51040F046
:102A9000F000086133463A460B49204600F08AF8B8
:102AA00078B902E005F0FE0000E0E8B221680861B4
:102AB000054933463A46891F204600F07BF8002836
:102AC000DCD00120F8BD00000800010070B51646FA
:102AD0000D4604461EE02046FFF71DFF08B1012009
:102AE00070BD681C16D0FEF745FF801BA84200D8B9
:102AF00085B920684069C04340070BD5002044F8E1
:102B0000300F20216173A073216941F02001216100
:102B10002073E4E720684069C0434007DBD400200D
:102B200070BD00002DE9F047984617460D46044653
:102B3000C1F30746DDF820902AE000BFB8F1FF3F5F
:102B400026D0FEF717FFA0EB0901414502D8B8F1E6
:102B5000000F1DD12068012E16D0806925EA0000E3
:102B60000004000C12D00020B84211D1002044F81B
:102B7000300F20216173A073216941F02001216190
:102B800020730120BDE8F0874069E7E70120EBE70B
:102B90002068012E0AD0806925EA00000004000C9C
:102BA00006D00020B842C9D00020EBE74069F3E727
:102BB0000120F7E72DE9F047984616460D460446F2
:102BC0004FF000094FF0200AC1F3074723E02068C7
:102BD0004069C043400515D42068016841F4007184
:102BE000016021686FF480604861C4F8309084F817
:102BF0003DA084F83E90216C41F00401216484F8EA
:102C00003C9021E0701C06D0FEF7B4FEA0EB08005B
:102C1000B04203D816B1012F1FD021E02068012F48
:102C200015D0806925EA00000004000C18D000BF10
:102C300044F8309F84F80DA084F80E90216941F08B
:102C40002001216184F80C900120BDE8F0874069E3
:102C500025EA00000004000CEAD12068406901E088
:102C60002068806925EA00000004000CAFD1ECE781
:102C70002DE9F041002590460E460446202728E025
:102C80004069C043C0060CD454F8301B6FF01000EC
:102C9000486144F810596777A577206A2062257744
:102CA00014E0FEF767FEA0EB0800B04200D886B93A
:102CB00020684069C04340060BD544F8305F677315
:102CC000A573206940F02000206125730120BDE834
:102CD000F08120684169C9434906D1D40020F6E754
:102CE00070B516460D4604461EE02046FFF713FE5B
:102CF00008B1012070BD681C16D0FEF73BFE801B9A
:102D0000A84200D885B920684069C04300060BD5A9
:102D1000002044F8300F20216173A073216941F035
:102D2000200121612073E4E720684069C043000668
:102D3000DBD4002070BD000070B586B000241C48B4
:102D40000094019402940394816941F0100181611F
:102D5000816901F010010491816941F020018161D4
:102D6000816901F020010491816941F004018161D0
:102D7000816901F004010491816941F008018161D8
:102D800080690C4E00F008004FF4005504900022BA
:102D900029463046FEF7E8FD01200095CDE9010403
:102DA0000220039069463046FEF7E6FC06B070BD8F
:102DB00000100240001001400C4810B50A490160A3
:102DC0000B49416000214FF480428160C0E9031249
:102DD00041618161C1610162FEF7D2FD002801D02D
:102DE000FEF73AFC10BD0000005400401000002027
:102DF000A0860100FEE7FEE770477047FFF770B856
:102E000030B58FB028216846FDF777FB14210AA85A
:102E1000FDF773FB01210804CDE9001000240294A2
:102E200002250491CDE907504FF4E010099068465F
:102E3000FFF7D0F960B90F20CDE90A056802CDE9A6
:102E40000C4002210AA80E94FFF7E2F8002801D0F6
:102E5000FEF702FC0FB030BD7047000000B599B01E
:102E600017A000F015F9FFF78FF902461EA168467A
:102E7000FDF7BCF9684600F00BF9FFF75FF9024671
:102E80001FA16846FDF7B2F9684600F001F9FFF7A7
:102E90005BF9024621A16846FDF7A8F9684600F0F3
:102EA000F7F8FFF761F9024623A16846FDF79EF99E
:102EB000684600F0EDF827A000F0EAF819B000BD70
:102EC0000D0A3D3D3D2053544D33324631303320C1
:102ED00053797374656D20446961676E6F737469AB
:102EE00063203D3D3D0D0A0053797374656D2043A9
:102EF0006C6F636B3A20256C7520487A0D0A0000D0
:102F000048434C4B204672657175656E63793A2073
:102F1000256C7520487A0D0A0000000050434C4B88
:102F200031204672657175656E63793A20256C753E
:102F300020487A0D0A00000050434C4B3220467264
:102F4000657175656E63793A20256C7520487A0D38
:102F50000A0000003D3D3D20446961676E6F737457
:102F6000696320456E64203D3D3D0D0A0D0A000059
:102F700010B5406A0021C185C184FFF7D0FA10BDA9
:102F800001680C3151E8002F22F4907241E80023CF
:102F9000002BF5D10168143151E8002F22F0010215
:102FA00041E80023002BF5D1016B012909D101680B
:102FB0000C3151E8002F22F0100241E80023002BD1
:102FC000F5D1202180F8421000210163704708B537
:102FD00090F84210222901D0022008BD82684FF4E7
:102FE00080539A4201D1016921B1816A9A421BD072
:102FF0004AB10AE00268816A5268C2F308020A8094
:10300000816A891C08E0026972B10268526802F0A4
:103010007F020A70816A491C8162C18D491E0904C0
:10302000090CC18503D01BE002685268F1E7016812
:10303000CA6822F02002CA600168CA6822F480725D
:10304000CA6001684A6922F001024A61202180F8C1
:10305000421000214163026B012A03D0FFF708FCF4
:10306000002008BD016301680C3151E8002F22F0F7
:10307000100241E80023002BF5D101680A68D2064E
:1030800002D50A6849680091818DFFF747FAE7E7A2
:1030900010B504000AD0FDF711FA214682B2BDE84E
:1030A00010404FF47A730248FFF7E3BB10BD0000F5
:1030B0006400002070B5044600680169E26821F4EC
:1030C0004051114301612169A068084361690843C7
:1030D0002168CA6841F20C639A430243CA602068BF
:1030E0004169A26921F44071114341611E49206880
:1030F000884202D1FFF738F801E0FFF725F800EB2E
:10310000C00101EB0012606864218000B2FBF0F3A3
:10311000B3FBF1F36FF018067343B2FBF0F5B2FBAB
:10312000F0F605EB8305322303EB0515B5FBF1F54E
:10313000B6FBF1F605F0F00505EB0615B2FBF0F66F
:10314000B2FBF0F0B0FBF1F06FF01802504306EB69
:10315000800003EB0010B0FBF1F0216800F00F00DD
:103160002844886070BD0000003801402DE9F84314
:10317000984617460D460446089E24E0701C22D04F
:10318000FEF7F8FBA0EB0800B0421AD8CEB12068D9
:10319000C168490717D5802D15D0402D13D001687F
:1031A000C94309070FD401680025406800902046F4
:1031B000FFF7E6FE0820606484F840500120BDE877
:1031C000F8830320FBE72068006835EA000004D09C
:1031D0000020B842D2D00020F1E70120F9E700003A
:1031E0000148FFF79DB9000064000020FEE7490098
:1031F00050EAC12018BF04204A0D18BF40F001005A
:1032000040F2FF72B2EB515F08BF40F002000128AC
:1032100008BF052070470907090E002804DB00F1EC
:10322000E02080F80014704700F00F0000F1E0206B
:1032300080F8141D704730380A2801D201207047E9
:10324000002070479AB0FEF753FEFFF7D9FDFFF755
:1032500073FDFFF7B1FD464844490C2201604FF46D
:10326000E131416000218160C160C0E904128161E7
:10327000C161FFF78BFA08B1FEF7EEF93D4F00246C
:103280004FF4005631463846FEF766FB6420FEF7E1
:1032900061FA641C062CF5DB002231463846FEF745
:1032A00063FB35A0FFF7F4FE34A0FFF7F1FE3EA06C
:1032B000FFF7EEFE47A0FFF7EBFE51A0FFF7E8FE99
:1032C000FFF7CCFD59A0FFF7E3FEFEF705F920B1AB
:1032D0005EA0FFF7DDFE67A00AE06EA0FFF7D8FE54
:1032E000FEF790F9024676A16846FCF77FFF684634
:1032F000FFF7CEFE78A0FFF7CBFE85A0FFF7C8FE54
:1033000000244FF4FA69641CFEF790F908B18CA010
:1033100005E019A918A8FEF70BF930B192A0FFF744
:10332000B7FE4846FEF716FAEDE7199800F028FCBC
:1033300005468846189800F023FC8DE823012246B4
:1033400092A104A8FCF752FF04A8FFF7A1FE0122F6
:1033500031463846FEF708FB6420FEF7FBF90022F1
:1033600031463846FEF700FBDBE70000003801403D
:1033700064000020001001400D0A00002A2A2A2AB9
:103380002A2A2A2A2A2A2A2A2A2A2A2A2A2A2A2A9D
:103390002A2A2A2A2A2A2A2A2A2A2A2A2A2A2A2A8D
:1033A0002A2A2A0D0A0000002A2053544D3332469F
:1033B0003130332041485432302053656E736F7280
:1033C00020546573742050726F6772616D202A0DEE
:1033D0000A0000002A20202020202020205665728C
:1033E00073696F6E3A20322E30202D204669786541
:1033F0006420202020202020202A0D0A0000000028
:103400002A2A2A2A2A2A2A2A2A2A2A2A2A2A2A2A1C
:103410002A2A2A2A2A2A2A2A2A2A2A2A2A2A2A2A0C
:103420002A2A2A2A2A2A2A0D0A0D0A00496E6974B4
:1034300069616C697A696E67204148543230207343
:10344000656E736F722E2E2E0D0A00004552524F7C
:10345000523A20414854323020696E697469616C77
:10346000697A6174696F6E206661696C6564210DAB
:103470000A000000506C6561736520636865636BCA
:103480002049324320636F6E6E656374696F6E2EE0
:103490000D0A0000535543434553533A20414854C5
:1034A000323020696E697469616C697A6564207371
:1034B00075636365737366756C6C79210D0A000022
:1034C0004148543230205374617475733A20307817
:1034D000253032580D0A00000D0A53746172746968
:1034E0006E672074656D70657261747572652061B8
:1034F0006E642068756D6964697479206D656173A7
:103500007572656D656E742E2E2E0D0A000000001A
:103510003D3D3D3D3D3D3D3D3D3D3D3D3D3D3D3DDB
:103520003D3D3D3D3D3D3D3D3D3D3D3D3D3D3D3DCB
:103530003D3D3D3D3D3D3D3D3D3D3D0D0A000000D5
:103540004552524F523A204661696C656420746F4F
:10355000207374617274206D6561737572656D6539
:103560006E740D0A000000004552524F523A204638
:1035700061696C656420746F207265616420736595
:103580006E736F7220646174610D0A005B256C7547
:103590005D2054656D70657261747572653A2025A1
:1035A000362E326620432C2048756D696469747923
:1035B0003A2025362E32662025250D0A000000000F
:1035C00010B500290AD00878002807D005487844AB
:1035D000FDF772FB002801D0002010BD024878449E
:1035E00010BD0000D2080000CA08000021F000420F
:1035F000A2F16052B2F5801F01F0004328BFD2F162
:103600007F6C0BD95FEA001C43EAC20242EB5070A8
:1036100018BF704728BF20F001007047B2F5801F27
:10362000BCBF184670474FEA410C1CF5001F02D280
:10363000084600F02ABB70B500F064F9000000896C
:10364000FFF7F6BF4FF00040A0F580007047000084
:1036500010B591EA030F48BF83F0004300F1AE813B
:10366000841A71EB030C05D2121943EB0C03001BF7
:1036700061EB0C01DFF824E14FEA1154A4EB135C79
:103680001EEA430F18BF9EEA445F73D023EA0E037D
:10369000DCF1200E21EA045143F4801332D322FAE4
:1036A0000CFE10EB0E0023FA0CFE41EB0E01CCF1E8
:1036B000200E03FA0EFE10EB0E0051F10001B1F5E1
:1036C000801FCCF1200E32D201EB045112FA0EF21F
:1036D000BDE8104058BF7047401C38BF5FEA420247
:1036E00018BF7047002814BF20F0010041F100010D
:1036F0004FEA410313F5001F38BF7047A1F1C041E5
:1037000000F04EB9012A43EB0302ACF1200CDCF1CE
:103710001F0E32BF4FF0000E23FA0CF310EB030024
:1037200041EB0451B4EB115FD0D0A1EB045101F592
:10373000801149085FEA300001EB04510ED350F1CB
:10374000000038BF12FA0EFE08D1BDE81040C9E7EC
:10375000401C38BF5FEA4202CAD1C3E7BDE810404F
:103760004FEA410313F5001F38BF7047A1F1C04174
:1037700000F016B99EEA445F08D011EA5E0FBDE87A
:10378000104004BF01F0004100207047BDE8104028
:1037900070B500F0B7F800BF64FBBE3E0000E0FF6C
:1037A00002494FF0000000F077BA00BF0000F87F38
:1037B000DFF848C170B51CEA111E1EBF1CEA1315C4
:1037C0009EEA0C0F95EA0C0F00F06F8081EA03046B
:1037D00023EA4C134EEAD47E21EA4C1141F48011C5
:1037E00043F48013AE44A1FB024CA0FB0365AEF191
:1037F0007F7E361955EB0C05A1FB034C4CF1000301
:10380000A0FB021C16EB0C06654153F100030942B4
:1038100018BF46F0010613F4007F0BD14FEA0331C5
:103820004FEA0530340341EA155140EA16506FF073
:1038300003020AE04FEAC3214FEAC520F40241EA3D
:10384000555140EA56506FF0020202EB2E4201EB56
:10385000025585EACE710AD05FEA440C18BF24F005
:10386000004450F1000041F1000120EAD47040F220
:10387000FE7C624500D270BDA84214BF4FF0804468
:103880004FF04044002E08BF0024BEF1806FA8BF57
:10389000A1F1C041BDE8704080F282804FF000008D
:1038A00001F1C04101F0004170479EEA0C0F0CEAA3
:1038B000131518BF95EA0C0F06D04FF0000081EAEF
:1038C000030E0EF0004170BD00F01CF88900013EAF
:1038D00000F007B800F009B84FEA430C5FEA5C5CFF
:1038E00008D081EA030100F05BB84FEA410C5FEABF
:1038F0005C5CF6D14FF00000014970470000FF0703
:103900000000F87F0EF1020E2EF0030E5EF8046B3D
:10391000364205D4012A43EB030515F5001F12D8E2
:10392000012841EB010C1CF5001F0CD80ED14FEA09
:10393000D17C15F5001F0CEB4C0C0CF1020C08BFF0
:103940004CEBD37C04E04FF0080C01E04FEAD37C51
:103950000CEB4C0526FA05F606F00706B6F1040C4A
:1039600006D20EEB860CBDE870404CF0010C6047AF
:10397000DFE80CF0090B02024FF000414FF00000AD
:10398000A1F5002170BD19461046012851EB010434
:1039900018BFD4F5001484BF002001F0004170BDB1
:1039A0000808A0F500114FEA3101704710B591EAFF
:1039B000030F48BF83F000433FF552AE841A71EB0A
:1039C000030C07D212198CF0004C43EB0C03001BC4
:1039D00061EB0C01DFF8A4E14FEA1154A4EB135C96
:1039E0001EEA430F18BF9EEA445F00F0B08023EA4E
:1039F0006E03524221EA0451C3EB6E0338BF5B1ED3
:103A0000DCF1200E25D322FA0CFE10EB0E0043FA57
:103A10000CFE41EB0E01CCF1200E03FA0EFE10EB72
:103A20000E0051F10001CCF1200E29D412FA0EF251
:103A300001EB0451BDE8104058BF7047401C1CBF4B
:103A4000B2F1004F704700280CBF491C20F0010064
:103A5000704712EB020E43EB030218BF4FF0010E4A
:103A60004EEA4202ACF1200CDCF11E0E54D943FAAE
:103A70000CFE10EB0E0051F1FF31CCF11E0ED5D52E
:103A80000EF1010E12FA0EFE404141EB010101EB75
:103A9000445C5FEA5C5C10D910EBDE7001EB045112
:103AA00038BFBEF1004FBDE8104018BF7047002876
:103AB0000CBF491C20F00100704730D24FEAD42CD3
:103AC00011F5001124F400641BD0B1FA81F20B3A15
:103AD000A41AA41ED2F12003914030FA03F3194333
:103AE000904001EBCC71002C01EB0451BDE810407B
:103AF000A8BF704701F1C0414FF0000001F0004144
:103B00007047B0FA80F310FA03F100D110BDE41A47
:103B1000173C4805C90AE4E701EB045110BD491000
:103B200001EB0451BDE810404FEA300002E04FF0D5
:103B3000000170474A0008BF0042F8D0B2F5001FEC
:103B400028BF704701F000414FF0000070479EEA27
:103B5000445F07D011EA5E0FBDE8104004BF0021AA
:103B600000207047BDE8104070B5FFF7CBFE00BFE6
:103B700040DFF63E83F00041104670470000E0FF52
:103B800043004FEAD30C4FEA3C0C43401FBF4007B1
:103B90000CF1605113F0FE4F70471CF0006F03D121
:103BA00000200CF0004170470CF0004343EA5070D5
:103BB00010B540EACC0000F022F800BF00000092EF
:103BC0004FEA0001FFF7ECBE4FF000414FF000005C
:103BD000A1F5002170470000B0FA80F310FA03F25B
:103BE000C3F19D030AD0D90501EB1220530638BF5B
:103BF000704700F1010008BF20F0010070470EF18E
:103C0000020E2EF0030E5EF8044B244204D44FEA59
:103C10004102B2F17F4F11D84FEA4003B3F17F4F19
:103C20000CD80ED14FEAD07CB2F17F4F0CEB4C0C8C
:103C30000CF1020C08BF4CEBD17C04E04FF0080CF7
:103C400001E04FEAD17C0CEB4C0324FA03F404F0BE
:103C50000704B4F1040C06D20EEB840CBDE810404E
:103C60004CF0010C6047DFE80CF0070802024FF04F
:103C70000040A0F5800010BD0846420018BFD2F1F8
:103C8000807288BF00F0004010BDFF2141EAD05093
:103C9000C0057047FCF78DBD0CF00F03092B08BF62
:103CA000082000F059800A2B0BD0082B18BF704752
:103CB00008BF1CF0400F0AD04FF000004FF0000189
:103CC00070471CF0400F18BF4FF0004070471CF0C9
:103CD000100F08D020F0704300F07F4242EAD30179
:103CE0004FEA4370704700F0604021F07F4242EAA3
:103CF000000201F07F4040EA727070474FF0FF0C05
:103D00004CF4E06C1CEA11531CBF9CEA030C944574
:103D1000C2BFDA4201EB02517047002B0DD0BCF15B
:103D2000000F0FD0002A01F00041A4BF41F0E04194
:103D300041F07F614FF00000704701F000414FF00B
:103D40000000704750EA01334FF09B0C18BF4CF055
:103D5000806C7FF425AD70471CF4801F11D01CF4DB
:103D6000E02F03D06FEACC31490070474FF040504C
:103D7000EFF3008222F0704242EA000282F30088F0
:103D800070474FF000007047010202030405060768
:103D900008090A0B0C0D0E0F1010000000000000A7
:103DA00000000102030406070809000000000102E8
:103DB00003043031323334353637383941424344E5
:103DC0004546403058003031323334353637383993
:103DD000616263646566403078000400000800009A
:103DE000000000000002000100001000024000007E
:103DF000000000A00000000005400000000000C816
:103E0000000000000C4000000000409C000000008A
:103E1000194000000020BCBE00000000344000003B
:103E2000BFC91B8E00000004B5400000504BCFD02E
:103E30006607E2CF010000006C4100003E8251AAFB
:103E4000DFEEA73401000000D9420000DCB5A0E29B
:103E50003A301F97FFFFFFFFB4450000FD25A0C8C3
:103E6000E9A3C14FFFFFFFFFFF3F000000000080FC
:103E700000000000FF3F0000000000800000000084
:103E8000BC3E0008000000201000000028010008CF
:103E9000CC3E00081000002000070000440100088C
:103EA0001C00000043000000F8FFFFFF0C000000B2
:103EB0000E0000000F0000002E00000001000000B6
:0C3EC000100000000000000000127A005A
:04000005080000ED02
:00000001FF
