:020000040800F2
:1000000080070020910100086D12000869120008A5
:100010006B1200083B060008911400080000000065
:100020000000000000000000000000007112000845
:1000300073060008000000006F1200087312000829
:10004000AB010008AB010008AB010008AB010008E0
:10005000AB010008AB010008AB010008AB010008D0
:10006000AB010008AB010008AB010008AB010008C0
:10007000AB010008AB0100083D060008AB01000819
:10008000AB010008AB010008AB010008AB010008A0
:10009000AB010008AB010008AB010008AB01000890
:1000A000AB010008AB010008AB010008AB01000880
:1000B000AB010008AB010008AB010008AB01000870
:1000C000AB010008AB010008AB010008AB01000860
:1000D000AB010008AB010008AB010008AB01000850
:1000E000AB010008AB010008AB01000800F002F80A
:1000F00000F03FF80AA090E8000C82448344AAF183
:100100000107DA4501D100F034F8AFF2090EBAE880
:100110000F0013F0010F18BFFB1A43F0010318473B
:10012000AC140000CC140000103A24BF78C878C189
:10013000FAD8520724BF30C830C144BF04680C60ED
:10014000704700000023002400250026103A28BF35
:1001500078C1FBD8520728BF30C148BF0B60704739
:10016000642900F07180002070471FB51FBD10B5D5
:1001700010BD00F028FA1146FFF7F7FF01F0A0F9D3
:1001800000F046FA03B4FFF7F2FF03BC00F04EFAAA
:100190000948804709480047FEE7FEE7FEE7FEE71B
:1001A000FEE7FEE7FEE7FEE7FEE7FEE70448054957
:1001B000054A064B70470000D5120008ED00000804
:1001C00080010020800700208003002080030020A1
:1001D0000FB41CB5074B06AA7B44694600900598EE
:1001E00000F0D9F90020694600F0E8F91CBC5DF880
:1001F00014FB0000E103000070B504468569006847
:10020000C10601D5302600E02026C00707D070BD0A
:10021000D4E9012130469047206A401C20626D1EBF
:10022000F6D570BD70B5044685690078C00707D162
:1002300070BDD4E9012120209047206A401C206233
:100240006D1EF6D570BD00002DE9F0410646002474
:1002500010687529314616A510D0AFF3008000282C
:1002600002DA404213A507E031688A0701D512A5DA
:1002700002E0490704D511A5012401E0AFF3008095
:1002800000210A2206F1240709E0B0FBF2FCB0FBD2
:10029000F2F302FB1C00303078541846491C002849
:1002A000F3D123462A463046BDE8F04100F015B9A7
:1002B000000000002D0000002B00000020000000C6
:1002C0002DE9F05F894604464FF0000ADFF874B16B
:1002D000FB44C0F820A02046E1688847002874D07D
:1002E000252806D0D4E901219047206A401C2062CD
:1002F000F1E700265F462046E1688847202805464A
:1003000007DB312D05D2781910F8200C08B106430F
:10031000F1E7B00701D526F00406C4F81CA00027B9
:10032000C4F818A02A2D09D0284601F0C2F838B325
:1003300004EB8708303DC8F8185019E059F8041B41
:10034000204604EB87029161E1688847012F05464A
:1003500018D1E069002820DA26F020061DE0D8F840
:10036000180000EB800005EB40003038C8F818009A
:100370002046E1688847054601F09BF80028EED149
:10038000012F0AD02E2D08D12046E16888477F1C16
:100390000546022F46F02006C4DBA069002803DAD8
:1003A000404246F00106A061F00701D026F0100699
:1003B0006C2D0BD0682D09D04C2D39D06A2D35D03D
:1003C000742D35D07A2D33D016E038E0E1682F4611
:1003D00020468847B842054609D16C2F26D04FF4F5
:1003E0008060E168064320468847054604E06C2F9C
:1003F0001AD04FF4807006430DB3A5F141001928BF
:1004000002D8203546F400664A4629462046266032
:100410004E46FFF7A5FE80B101280BD0F61D26F051
:10042000070000F1080956E74020E4E78020D8E7FC
:100430000020D6E706F104094DE7284652E7206A76
:10044000BDE8F09FE612000010B5431C02E010F872
:10045000011B71B18107FAD14FF0013202C88C1A29
:100460008C4314EAC211F9D0C01A0A0603D0C01E88
:1004700010BDC01A10BD0A0401D0801E10BD0902B3
:10048000FCD0401E10BD4FF0000200B5134694464C
:100490009646203922BFA0E80C50A0E80C50B1F1DC
:1004A0002001BFF4F7AF090728BFA0E80C5048BFF0
:1004B0000CC05DF804EB890028BF40F8042B08BF8E
:1004C000704748BF20F8022B11F0804F18BF00F88A
:1004D000012B70477047704770472DE9F0470D4674
:1004E00099469246044600F124080168880604D51E
:1004F000E06921F01001216000E00120A84201DD47
:10050000471B00E00027A1697A1902EB0900081ACD
:10051000A0612078C00602D42046FFF76DFE0026B9
:1005200008E0D4E901211AF806009047206A401C2F
:10053000761C20624E45F4DB2078C0060AD52046A2
:10054000FFF75AFE06E0D4E9012130209047206AE7
:10055000401C2062381EA7F10107F4DC07E0D4E953
:10056000012118F805009047206A401C2062281ECF
:10057000A5F10105F3DC2046FFF754FE20780006C4
:1005800002D50220BDE8F0870120FBE701694A1C83
:1005900002610878704700B58FB0CDE901310021C4
:1005A000059105497944CDE9031011466846FFF7E6
:1005B00087FE0FB000BD0000E5FFFFFF0A6802F8EC
:1005C000010B0A607047754600F02CF8AE46050036
:1005D0006946534620F00700854618B020B5FFF75E
:1005E000E5FDBDE820404FF000064FF000074FF05A
:1005F00000084FF0000B21F00701AC46ACE8C00941
:10060000ACE8C009ACE8C009ACE8C0098D46704749
:1006100010B50446AFF300802046BDE81040FFF758
:10062000B1BD00000048704720010020014918209A
:10063000ABBEFEE7260002007047FEE7014800F06F
:100640001BB80000DC00002030B590F840500124B9
:10065000AC40C56B6C60046863604368102B036832
:1006600003D099600068C26030BD9A600068C160C4
:1006700030BD704772B6FEE72DE9F05FC16B0C68C4
:1006800001680B68D0F840C0042202FA0CF2494D10
:10069000DFF824A1494E4A4FDFF828B1DFF828E1FE
:1006A00022422CD05A072AD50A68920603D40A6837
:1006B00022F004020A600168A94201D1042219E073
:1006C000514501D1402215E0B14202D14FF4806280
:1006D00010E0B94202D14FF480420BE0594502D1FB
:1006E0004FF4802206E0714502D14FF4800201E010
:1006F0004FF080622F4908394A60C16A3BE04FF0F1
:10070000020808FA0CF818EA040F4FF000094FF03D
:10071000010235D05FEA837832D50B689B0605D499
:100720000B6823F00A030B6080F821200168A942BE
:1007300001D1022219E0514501D1202215E0B14238
:1007400002D14FF4007210E0B94202D14FF40052CE
:100750000BE0594502D14FF4003206E0714502D159
:100760004FF4001201E04FF00072124908394A605C
:1007700080F82090816A00291AD0BDE8F05F084710
:10078000082505FA0CF5254212D01B0710D50B6879
:1007900023F00E030B6090F84010C36B02FA01F1D6
:1007A0005960826380F8212080F82090016BE2E795
:1007B000BDE8F09F080002401C00024030000240EB
:1007C00044000240580002406C00024030B528B39B
:1007D00008C8134914221944B1FBF2F18900C1631E
:1007E00010498163022141771A6843F6F0718A4308
:1007F000D0E900142143D0E902452C432143046988
:100800002143446921438469214311431960002134
:100810004163012242770177084630BD012030BD97
:10082000F8FFFDBF0000024070B5044690F82000BC
:10083000002501280CD0012084F8200094F82160C4
:100840000020012E06D084F820000225284670BD25
:10085000022070BD022684F82160A063206806682B
:1008600026F0010606602046FFF7EEFEE06A00284B
:100870002068016802D041F00E0106E021F0040179
:1008800001602068016841F00A0101602068016888
:1008900041F001010160D9E770B5044600F0FEF8AF
:1008A0000546601C02D004480078044400F0F6F8C5
:1008B000401BA042FAD370BD040000202DE9F84F80
:1008C000DFF8B8910024A9F1040B23460F2709F1A2
:1008D000040AABF1040EC9E00125A5402A40AA4252
:1008E0007DD1674ED1F804C0ACEB0608B44532D0D8
:1008F00014DCBCF1030F3AD009DCBCF1000F2AD0A4
:10090000BCF1010F1CD0BCF1020F31D11DE0BCF1D4
:10091000110F17D0BCF1120F2AD119E0B8F5881FBA
:1009200019D006DCB8F5803F15D0B8F5801F1FD16F
:1009300011E0B8F5001F0ED0B8F5041F18D10AE079
:10094000CB6815E0CB681B1D12E0CB6808330FE0C5
:10095000CB680C330CE08B682BB1012B4FF00803F4
:1009600003D0456104E0042302E0056100E00023B8
:10097000FF2A01D8064601E000F104064FEA84058B
:1009800001D9A5F12005D6F8008007FA05FC28EA70
:100990000C0803FA05F548EA0508C6F800804D681A
:1009A000ED0062D5374DAE6946F00106AE61AD6926
:1009B00024F0030605F001050095334D06EB050C08
:1009C000DCF80850A607360F07FA06F825EA0805EE
:1009D000DFF8B880404503D14FF0000817E044E04D
:1009E000DFF8AC80404502D14FF001080FE0DFF89E
:1009F000A480404502D14FF0020808E0DFF898805B
:100A0000404502D14FF0030801E04FF0040808FA16
:100A100006F848EA0508CCF808804D68D9F8006067
:100A2000ED024D4601D5164300E096432E604D6819
:100A3000DAF80060AD02554601D5164300E0964352
:100A40002E604D68DBF80060AD035D4601D51643AE
:100A500000E096432E604D68DEF80060ED037546B9
:100A600001D5164300E096432E60641C0D682A46AB
:100A7000E5407FF431AFBDE8F88F00000804014085
:100A80000000111000100240000001400008014069
:100A9000000C014000100140001401400148806832
:100AA0007047000004000020024881680278114469
:100AB0008160704704000020074810B5016841F0CC
:100AC00010010160032000F075F80F2000F006F817
:100AD00000F024F8002010BD0020024070B50D4D3C
:100AE00004464FF47A712878B1FBF0F00A4909689E
:100AF000B1FBF0F000F0DCFA48B9102C07D200226C
:100B00002146501E00F036F800206C6070BD0120B8
:100B100070BD000004000020100000200C4808B543
:100B2000816941F001018161816901F00101009158
:100B3000C16941F08051C161C06900F080500090EE
:100B40000448416821F0E06141F08061416008BDE6
:100B50000010024000000140002809DB00F01F02E5
:100B6000012191404009800000F1E020C0F800110F
:100B700070470000F0B40E4B1B680C46C3F3022311
:100B8000C3F10705042D00D90425191D072901D239
:100B9000002300E0DB1E012606FA05F1491E214074
:100BA00099409E40761E16403143F0BC00F071BC67
:100BB0000CED00E0064900F0070208684FF6FF035D
:100BC000184040EA0220034A1043086070470000C2
:100BD0000CED00E00000FA052DE9F0470F46050096
:100BE00061D0434E306800F00700B84209D2306847
:100BF00020F0070038433060306800F00700B8424A
:100C000051D128683B4C810712D5400703D5606855
:100C100040F4E06060602878000703D5606840F425
:100C2000605060606068A96820F0F0000843606070
:100C30002878C00728D06868012810D021680228C9
:100C400010D0890700292EDA616821F003010143E1
:100C50006160FFF723FF804641F288390DE021688B
:100C60008903EFE78901EDE7FFF718FFA0EB080123
:100C7000494502D90320BDE8F0876068696800F043
:100C80000C00B0EB810FEFD1306800F00700B842E4
:100C90000BD9306820F0070038433060306800F02E
:100CA0000700B84201D00120E5E72878400705D5C4
:100CB0006068E96820F4E060084360602878000715
:100CC00006D56068296920F4605040EAC100606080
:100CD00000F038F86168084AC1F30311515CC8405C
:100CE0000649086006480068FFF7F8FE0020C2E7E2
:100CF0000020024000100240A21500081000002051
:100D0000080000200448054900684968044AC1F306
:100D10000221515CC84070471000002000100240C2
:100D2000B21500080448054900684968044AC1F33F
:100D3000C221515CC84070471000002000100240E2
:100D4000B21500080E4A51680E4801F00C03042B3E
:100D500011D0082B0FD10C48C1F38343C903C05CE9
:100D60000AD55168084AC1F34041921E515C054AB8
:100D70005043B0FBF1F0704704494843704700000E
:100D80000010024000127A009215000800093D0090
:100D90002DE9F84F040070D02078C04DC00749D02D
:100DA0006868C0F38100012807D06868C0F381003B
:100DB000022809D16868C00306D52868800339D5A0
:100DC00060680028E7D035E06068B0F5803F0BD060
:100DD00010B1B0F5A02F11D0286820F48030286021
:100DE000286820F4802002E0286840F480302860E1
:100DF000606890B1FFF752FE06460AE0286840F4AA
:100E000080202860F0E700BFFFF748FE801B6428C1
:100E100073D828688003F7D50CE0FFF73FFE06463D
:100E200005E000BFFFF73AFE801B6428F0D8286871
:100E30008003F7D420789A4E80074FF001094FF0D5
:100E4000000839D5686810F00C0F07D06868C0F347
:100E50008100022809D16868C00306D42868800789
:100E600014D52069012808D110E02069B0B1C6F876
:100E70000090FFF713FE074605E00AE1FFF70EFEBC
:100E8000C01B0228C4D828688007F7D52868616984
:100E900020F0F80040EAC10028600DE0C6F80080AC
:100EA000FFF7FCFD074604E0FFF7F8FDC01B022832
:100EB00023D828688007F7D4207800072CD57948F4
:100EC000A169D9B1C0F80090FFF7E8FD074604E03A
:100ED000FFF7E4FDC01B02280FD8686A8007F7D52A
:100EE00071484FF4FA510068B0FBF1F0009000BF78
:100EF0000098411E0091FAD20EE080E0C0F8008018
:100F0000FFF7CCFD074604E0FFF7C8FDC01B022831
:100F100075D8686A8007F7D42078400760D5E869FB
:100F20000027C00008D4E86940F08050E861E86913
:100F3000012700F0805000905C480168C90513D477
:100F40000168834641F480710160FFF7A7FD824686
:100F500006E000BFFFF7A2FDA0EB0A0064284ED810
:100F6000DBF80000C005F5D5E06801280AD008B11B
:100F7000052813D0286A20F001002862286A20F092
:100F8000040002E0286A40F001002862E06841F2B3
:100F9000883B98B1FFF782FD82460BE0286A40F05B
:100FA00004002862EEE700BFFFF778FDA0EB0A011E
:100FB00059455AD8286A8007F6D50CE0FFF76EFD30
:100FC000824605E0FFF76AFDA0EB0A0159454CD8BF
:100FD000286A8007F6D41FB1E86920F08050E861E4
:100FE000E06988B36968C1F38101022944D002280D
:100FF000C6F8608004D0FFF751FD044638E034E0C5
:10100000FFF74CFD074604E0FFF748FDC01B022830
:101010002BD828688001F7D4206AB0F5803F05D12D
:101020006868A16820F4003008436860D4E90801CA
:101030000843696821F4741108436860C6F8609039
:10104000FFF72CFD044606E025E000BFFFF726FD74
:10105000001B022809D828688001F7D51BE000BFD3
:10106000FFF71CFD001B022802D90320BDE8F88F02
:1010700028688001F4D40EE00128F7D06868226A5D
:1010800000F48031914204D1616A00F4701088420A
:1010900001D00120EAE70020E8E70000001002404C
:1010A00000004242800442421000002000700040D4
:1010B00010B5401EB0F1807F01D3012010BD4FF06C
:1010C000E02460610F21601700F0E3F90020A061C7
:1010D00007202061002010BD704710F8411F4078A4
:1010E0000843704770B5040004D094F8410000250F
:1010F00010B106E0012070BD84F84050204600F099
:1011000023F8242084F841002068C16821F40051AC
:10111000C160204600F060F92068016921F4904127
:1011200001612068416921F02A0141612068C1689C
:1011300041F40051C1606564202084F8410084F8C6
:1011400042006563002070BD70B586B0002506467C
:10115000009501950295039500681F49884238D192
:101160001E49886940F480408861886900F48040A5
:101170000490886940F0040088618869184C00F088
:101180000400049048150090022001900320039071
:1011900069462046FFF792FB2015CDE90005694618
:1011A00020460295FFF78AFB0F4C0E482060102066
:1011B000C4E901058020C4E903052020C4E90550E5
:1011C0002046E561FFF702FB08B1FFF753FAB4636D
:1011D000666206B070BD0000003801400010024099
:1011E0000008014044000240DC00002070B50446C5
:1011F00090F84100202801D0022070BD49B342B3CD
:101200002162A284E28400206064212384F84130BA
:10121000A56B114BAB62A56B104BEB62A56B104B32
:101220002B63A36B5863256813462A1DA06BFFF739
:10123000FBFA21686FF0400008602068143050E825
:10124000001F41F0800140E80012002AF5D1002083
:1012500070BD012070BD0000211300086313000859
:10126000D712000870477047FEE7FEE7FEE77047B9
:101270007047FFF719BC30B58FB028216846FFF7DB
:1012800002F914210AA8FFF7FEF801210804CDE9AC
:1012900000100024029402250491CDE907504FF478
:1012A000E01009906846FFF773FD08B172B6FEE7DB
:1012B0000F20CDE90A054FF48060CDE90C400221F2
:1012C0000AA80E94FFF788FC002801D072B6FEE74A
:1012D0000FB030BD704770B5446A2068406994F81B
:1012E0004110C0F3C0100025212904D118B1E584B4
:1012F000204600F062F82068406994F84210C0F37C
:101300008010222904D118B1E585204600F02EF87E
:10131000606C40F0100060642046FFF7DDFE70BD99
:1013200010B50146406A09680968890616D400218B
:10133000C1840168143151E8002F22F0800241E895
:101340000023002BF5D101680C3151E8002F42F049
:10135000400241E80023002BF5D110BDFFF782FFCA
:1013600010BD10B5406AFFF77EFF10BD01680C315B
:1013700051E8002F22F4907241E80023002BF5D1B0
:101380000168143151E8002F22F0010241E80023E6
:10139000002BF5D1016B012909D101680C3151E80D
:1013A000002F22F0100241E80023002BF5D120216C
:1013B00080F8421000210163704701680C3151E848
:1013C000002F22F0C00241E80023002BF5D120219C
:1013D00080F841107047000070B50446006801694C
:1013E000E26821F44051114301612169A06808437A
:1013F000616908432168CA6841F20C639A43024359
:10140000CA6020684169A26921F4407111434161B9
:101410001E492068884202D1FFF784FC01E0FFF7F3
:1014200071FC00EBC00101EB0012606864218000D8
:10143000B2FBF0F3B3FBF1F36FF018067343B2FBAA
:10144000F0F5B2FBF0F605EB8305322303EB05154F
:10145000B5FBF1F5B6FBF1F605F0F00505EB061569
:10146000B2FBF0F6B2FBF0F0B0FBF1F06FF0180257
:10147000504306EB800003EB0010B0FBF1F0216855
:1014800000F00F002844886070BD00000038014063
:10149000FEE70907090E002804DB00F1E02080F8D0
:1014A0000014704700F00F0000F1E02080F8141DD8
:1014B000704730380A2801D2012070470020704759
:1014C00008B5FFF7F9FAFFF7D6FE2848816941F021
:1014D00020018161816901F020010091816941F061
:1014E00004018161816901F004010091416941F0C9
:1014F000010141614069002200F0010000901146A5
:101500000E20FFF737FB0E20FFF726FB194818497E
:101510000C2201604FF4E131416000218160C16023
:10152000C0E904128161C161FFF7DCFD08B172B648
:10153000FEE7114C0F4811A148302268FEF748FE23
:101540002068401C20600B48FFF7C7FD2128FAD017
:1015500008484830FEF778FF064982B2483105480E
:10156000FFF744FE0A20FFF797F9E3E70010024077
:10157000003801401400002000000020444D4120AC
:1015800073656E643A202530346C640D0A000000E7
:10159000010202030405060708090A0B0C0D0E0FD1
:1015A0001010000000000000000001020304060704
:1015B0000809000000000102030404000008000004
:1015C000000000000002000100001000EC150008FF
:1015D0000000002014000000280100080016000888
:1015E000140000206C070000440100080000000007
:1015F00001000000100000000000000000127A004E
:04000005080000ED02
:00000001FF
