:020000040800F2
:10000000603A0020010100084D0E0008DD0C0008D8
:10001000B10D0008650200089D43000800000000C3
:1000200000000000000000000000000091420008F5
:10003000FD03000800000000D701000801230008AC
:100040001B0100081B0100081B0100081B01000820
:100050001B0100081B0100081B0100081B01000810
:100060001B0100081B0100081B0100081B01000800
:100070001B0100081B0100081B0100081B010008F0
:100080001B0100081B0100081B0100081B010008E0
:100090001B0100081B0100081B0100081B010008D0
:1000A0001B0100081B0100081B0100081B010008C0
:1000B0001B0100081B0100081B0100081B010008B0
:1000C0001B0100081B0100081B0100081B010008A0
:1000D0001B0100081B0100081B0100081B01000890
:1000E0001B0100081B0100081B010008DFF80CD0F1
:1000F00000F044F800480047D9440008603A002066
:100100000648804706480047FEE7FEE7FEE7FEE7B1
:10011000FEE7FEE7FEE7FEE7FEE7FEE7E142000856
:10012000ED00000872B6704762B67047EFF31080BA
:1001300072B6704780F31088704730BF704720BF99
:100140007047B0FA80F0704790FAA0F0B0FA80F0F3
:10015000704790FAA0F07047D2B201E000F8012B8E
:10016000491EFBD270470022F6E710B513460A4637
:1001700004461946FFF7F0FF204610BD064C074D18
:1001800006E0E06840F0010394E807009847103467
:10019000AC42F6D3FFF7AEFF6C4700088C4700086F
:1001A0001D484FF0FF010170002080F309881B48B3
:1001B000016881F308881A484FF08051016062B6E7
:1001C000FEE717484FF080510160704714484FF028
:1001D00080510160704772B6EFF3098028B1203872
:1001E00080E8F00F0F490968086000B50E488047A5
:1001F0005DF804EB0D480E490A78027009480D4974
:100200000A680260106890E8F00F203080F30988D7
:100210004EF0F40E62B6704722ED00E020000020A0
:1002200004ED00E004010020E91F00087E0000202A
:100230007F0000200801002010B500F005F8BDE89F
:10024000104000F04DBD000010B500F0EDFA04497B
:100250000968BDE81040B0FBF1F002F069B8000099
:1002600018470008FEE70000054910B50020486067
:1002700000F0A6F800F006F8BDE8104000F086B8DF
:10028000000000202DE9F041104D002427462C806D
:100290006C80AC60EC606C61AC612C61FFF746FF78
:1002A000804600266C6100F049F800F057F8686954
:1002B000761C36040744360CF4D0C5E90474404675
:1002C000AC61BDE8F041FFF735BF00000000002041
:1002D00003490969884201D9401A704700207047D4
:1002E0000000002010B5FFF721FF04494C69FFF71B
:1002F00021FF2046BDE81040FFF7EABF00000020C4
:1003000010B5FFF7EFFF0446FFF710FF034A002187
:100310005161FFF70FFF204610BD000000000020D4
:1003200010B5FFF703FF04498C69FFF703FF204670
:10033000BDE81040FFF7CCBF0000002010B5064C10
:100340002088401C2080608810B900F051F8A0601F
:100350006088401C608010BD0000002010B50A4C71
:100360006088401E0004000C60800CD100F040F852
:10037000E060A168401A6169814200D26061A169B0
:10038000814200D2A06110BD0000002010B5FFF72F
:10039000CDFE0446FFF7D2FF1021054800F009FD0D
:1003A000FFF7DCFF2046BDE81040FFF7C3BE0000AA
:1003B0002001002001494860704700000000002033
:1003C000094810B5016841F08071016007480021BB
:1003D0004160016841F00101016000F025FABDE8CB
:1003E0001040FFF7E7BF0000FCED00E0001000E068
:1003F0000148406870470000001000E070477047F7
:100400002DE9F84FDFF8B8910024A9F1040B234639
:100410000F2709F1040AABF1040EC9E00125A5403C
:100420002A40AA427DD1674ED1F804C0ACEB060841
:10043000B44532D014DCBCF1030F3AD009DCBCF176
:10044000000F2AD0BCF1010F1CD0BCF1020F31D13A
:100450001DE0BCF1110F17D0BCF1120F2AD119E029
:10046000B8F5881F19D006DCB8F5803F15D0B8F56F
:10047000801F1FD111E0B8F5001F0ED0B8F5041F82
:1004800018D10AE0CB6815E0CB681B1D12E0CB68E1
:1004900008330FE0CB680C330CE08B682BB1012BD9
:1004A0004FF0080303D0456104E0042302E0056136
:1004B00000E00023FF2A01D8064601E000F104060F
:1004C0004FEA840501D9A5F12005D6F8008007FA86
:1004D00005FC28EA0C0803FA05F548EA0508C6F801
:1004E00000804D68ED0062D5374DAE6946F00106DB
:1004F000AE61AD6924F0030605F001050095334DAA
:1005000006EB050CDCF80850A607360F07FA06F8CC
:1005100025EA0805DFF8B880404503D14FF0000810
:1005200017E044E0DFF8AC80404502D14FF001080D
:100530000FE0DFF8A480404502D14FF0020808E048
:10054000DFF89880404502D14FF0030801E04FF0FA
:10055000040808FA06F848EA0508CCF808804D684F
:10056000D9F80060ED024D4601D5164300E09643F0
:100570002E604D68DAF80060AD02554601D516438D
:1005800000E096432E604D68DBF80060AD035D46E9
:1005900001D5164300E096432E604D68DEF80060FA
:1005A000ED03754601D5164300E096432E60641CAA
:1005B0000D682A46E5407FF431AFBDE8F88F0000B2
:1005C000080401400000111000100240000001402A
:1005D00000080140000C01400010014000140140DF
:1005E0000AB1016170470904FBE700000148806817
:1005F000704700000C010020074810B5016841F069
:1006000010010160032000F067F80F2000F006F8E9
:1006100000F024F8002010BD0020024070B50D4D00
:1006200004464FF47A712878B1FBF0F00A49096862
:10063000B1FBF0F000F0D4FA48B9102C07D2002238
:100640002146501E00F028F800206C6070BD01208B
:1006500070BD00000C010020180100200C4808B5F6
:10066000816941F001018161816901F0010100911D
:10067000C16941F08051C161C06900F080500090B3
:100680000448416821F0E06141F00071416008BD1B
:100690000010024000000140F0B40E4B1B680C46F5
:1006A000C3F30223C3F10705042D00D90425191D46
:1006B000072901D2002300E0DB1E012606FA05F11E
:1006C000491E214099409E40761E16403143F0BCA1
:1006D00003F06EBE0CED00E0064900F0070208686A
:1006E0004FF6FF03184040EA0220034A1043086017
:1006F000704700000CED00E00000FA052DE9F0471E
:100700000F46050061D0434E306800F00700B84244
:1007100009D2306820F0070038433060306800F0BC
:100720000700B84251D128683B4C810712D54007D9
:1007300003D5606840F4E06060602878000703D566
:10074000606840F4605060606068A96820F0F00064
:10075000084360602878C00728D06868012810D056
:100760002168022810D0890700292EDA616821F05B
:10077000030101436160FFF739FF804641F2883988
:100780000DE021688903EFE78901EDE7FFF72EFF10
:10079000A0EB0801494502D90320BDE8F087606855
:1007A000696800F00C00B0EB810FEFD1306800F009
:1007B0000700B8420BD9306820F00700384330609A
:1007C000306800F00700B84201D00120E5E7287842
:1007D000400705D56068E96820F4E0600843606080
:1007E0002878000706D56068296920F4605040EA3F
:1007F000C100606000F03EF86168084AC1F303116F
:10080000515CC8400649086006480068FFF706FFCB
:100810000020C2E7002002400010024052470008BA
:1008200018010020100100200148006870470000F6
:10083000180100200448054900684968044AC1F3CA
:100840000221515CC840704718010020001002408E
:10085000624700080448054900684968044AC1F332
:10086000C221515CC84070471801002000100240AE
:10087000624700080E4A51680E4801F00C03042B31
:1008800011D0082B0FD10C48C1F38343C903C05CBE
:100890000AD55168084AC1F34041921E515C054A8D
:1008A0005043B0FBF1F070470449484370470000E3
:1008B0000010024000127A004247000800093D0083
:1008C0002DE9F84F040070D02078C04DC00749D002
:1008D0006868C0F38100012807D06868C0F3810010
:1008E000022809D16868C00306D52868800339D575
:1008F00060680028E7D035E06068B0F5803F0BD035
:1009000010B1B0F5A02F11D0286820F480302860F5
:10091000286820F4802002E0286840F480302860B5
:10092000606890B1FFF762FE06460AE0286840F46E
:1009300080202860F0E700BFFFF758FE801B642886
:1009400073D828688003F7D50CE0FFF74FFE064602
:1009500005E000BFFFF74AFE801B6428F0D8286836
:100960008003F7D420789A4E80074FF001094FF0AA
:10097000000839D5686810F00C0F07D06868C0F31C
:100980008100022809D16868C00306D4286880075E
:1009900014D52069012808D110E02069B0B1C6F84B
:1009A0000090FFF723FE074605E00AE1FFF71EFE71
:1009B000C01B0228C4D828688007F7D52868616959
:1009C00020F0F80040EAC10028600DE0C6F8008081
:1009D000FFF70CFE074604E0FFF708FEC01B0228E5
:1009E00023D828688007F7D4207800072CD57948C9
:1009F000A169D9B1C0F80090FFF7F8FD074604E0FF
:100A0000FFF7F4FDC01B02280FD8686A8007F7D5EE
:100A100071484FF4FA510068B0FBF1F0009000BF4C
:100A20000098411E0091FAD20EE080E0C0F80080EC
:100A3000FFF7DCFD074604E0FFF7D8FDC01B0228E6
:100A400075D8686A8007F7D42078400760D5E869D0
:100A50000027C00008D4E86940F08050E861E869E8
:100A6000012700F0805000905C480168C90513D44C
:100A70000168834641F480710160FFF7B7FD82464B
:100A800006E000BFFFF7B2FDA0EB0A0064284ED8D5
:100A9000DBF80000C005F5D5E06801280AD008B1F0
:100AA000052813D0286A20F001002862286A20F067
:100AB000040002E0286A40F001002862E06841F288
:100AC000883B98B1FFF792FD82460BE0286A40F020
:100AD00004002862EEE700BFFFF788FDA0EB0A01E3
:100AE00059455AD8286A8007F6D50CE0FFF77EFDF5
:100AF000824605E0FFF77AFDA0EB0A0159454CD884
:100B0000286A8007F6D41FB1E86920F08050E861B8
:100B1000E06988B36968C1F38101022944D00228E1
:100B2000C6F8608004D0FFF761FD044638E034E089
:100B3000FFF75CFD074604E0FFF758FDC01B0228E5
:100B40002BD828688001F7D4206AB0F5803F05D102
:100B50006868A16820F4003008436860D4E908019F
:100B60000843696821F4741108436860C6F860900E
:100B7000FFF73CFD044606E025E000BFFFF736FD29
:100B8000001B022809D828688001F7D51BE000BFA8
:100B9000FFF72CFD001B022802D90320BDE8F88FC7
:100BA00028688001F4D40EE00128F7D06868226A32
:100BB00000F48031914204D1616A00F470108842DF
:100BC00001D00120EAE70020E8E700000010024021
:100BD00000004242800442421801002000700040A0
:100BE00010B5401EB0F1807F01D3012010BD4FF041
:100BF000E02460610F21601703F0DAFB0020A061A0
:100C000007202061002010BD70B5040004D094F8C6
:100C10004100002510B106E0012070BD84F840506D
:100C2000204600F023F8242084F841002068C168A1
:100C300021F40051C160204603F054FB2068016993
:100C400021F4904101612068416921F02A0141614C
:100C50002068C16841F40051C1606564202084F8B7
:100C6000410084F842006563002070BD30B585B056
:100C7000002400940194029403940068144988426B
:100C800024D11448816941F480418161816901F472
:100C900080410491816941F00401816180690E4DB8
:100CA00000F0040004904FF40070009002200190C6
:100CB0000320039069462846FFF7A2FB2815CDE9DB
:100CC0000004694628460294FFF79AFB05B030BD40
:100CD000003801400010024000080140FEE700001B
:100CE0002DE9F04186B0002420480094019402943C
:100CF0000394816941F010018161816901F0100163
:100D00000491816941F020018161816901F0200134
:100D10000491816941F0040181618069144F00F000
:100D200004004FF400550490002229463846FFF78E
:100D300057FCDFF84080002208214046FFF750FCB6
:100D40000095022601250396CDE9015469463846EF
:100D5000FFF756FB0820CDE90005CDE902466946BC
:100D60004046FFF74DFB06B0BDE8F08100100240A1
:100D700000100140000801400C4810B50A4901600C
:100D80004FF4E1314160002181600C22C160C0E973
:100D900004128161C161FFF737FF002803D0BDE86D
:100DA0001040FFF72CBB10BD003801401436002066
:100DB000FEE70A46002100F023B800000D480E4966
:100DC0000246C0E9001200218160C16001614161F9
:100DD0008161C16101620163C162416200F1480148
:100DE0008163C1634FF4A051016441640348026010
:100DF0007047000030010020484541501C00002091
:100E000010B5002A21D000281FD000244FEA040387
:100E10005B1C41EA0424042BFAD310F0030305D130
:100E20000BE000BF521E00F8011B5B1C002A0CD017
:100E3000042BF7D301E010C0121F042AFBD202E0FA
:100E400000F8011B521E002AFAD110BDFEE77047C0
:100E500002480068002800D0004770473400002096
:100E600010B5044600F0BEF8464800210A22017081
:100E7000454801704548017045480160454801609A
:100E8000454801704548017045480170454801607A
:100E90004548016045480160454801704548006883
:100EA000B0FBF2F0444A1060444A106830B1444844
:100EB000006818B1126802C0521EFCD1414801609E
:100EC000414801604148016041480160414801607A
:100ED00041480160414801604148017001F068FFEC
:100EE00002F01AF8204601F039FA2088002847D18C
:100EF000204601F02FFD2088002841D1204601F036
:100F000035FD208800283BD1204601F0DBFD2088FC
:100F1000002835D1204601F071FF208800282FD10C
:100F2000204602F01FF92088002829D1204602F02F
:100F300089FB2088002823D1204601F07FFC2088EF
:100F400000281DD1204601F017FB2088002817D16A
:100F5000204603F035F82088002811D1204602F001
:100F6000D1FA208800280BD1204603F083F820888E
:100F7000002805D101F0F0F9BDE81040FFF767BF88
:100F800010BD000048000020500000209800002004
:100F900004010020080100207E0000207F000020C6
:100FA000800000208C000020900000209400002091
:100FB000A0000020184700089C000020F44600080C
:100FC000F0460008280000202C00002030000020FF
:100FD00034000020380000203C00002040000020A9
:100FE000CE000020054806490068096800EB810032
:100FF000044920F00700086070470000F046000830
:10100000F446000820000020184810B50078012898
:101010002BD1FFF78BF804461548017801B3491E20
:1010200011F0FF0101701BD112480078C0B901F026
:10103000ADFE11490870114900EB400051F8201035
:101040000F4801600F480068814209D051F88C0FA9
:10105000401C08600C480168491C0160FFF7B6F8A5
:101060002046BDE81040FFF765B810BD50000020D5
:1010700048000020980000207F0000208C2A0020DB
:101080000801002004010020C40000202DE9F041E7
:10109000044626480E461746007810B142F6E16035
:1010A0000FE064B1FFF742F88046FFF747F9204DA3
:1010B0002878401CC0B22870012805D006E045F60B
:1010C000C3501080BDE8F08101F0ECFFFFF746F956
:1010D0004046FFF72FF81748C4E9000600262662AD
:1010E00084F825602020A66284F8240004F108001A
:1010F00001F07FFD204601F0D3FC0F490888401C19
:101100000880FFF713F80446FFF718F92878401E07
:1011100010F0FF00287001D101F0D2FFFFF71EF997
:101120002046FFF707F83E80CCE70000480000208B
:10113000980000204D5554587C0000202DE9F04FB8
:101140000646854889B01C460078129D17468B4696
:1011500010B146F2AE10C3E036B147B1B7F5004F5B
:1011600005D045F62560BBE045F6C350B8E07B49A5
:101170003068884202D045F6C450B1E04FF0000814
:101180000CB1C4F80080FEF7D1FF0090FFF7D6F84D
:1011900096F82500724A012190B19246336A12688E
:1011A000934222D1401C86F825000CB1B06A206021
:1011B000FFF7D4F80098FEF7BDFF45F282708FE08C
:1011C0001068306290F8370086F8240086F8251001
:1011D0000CB1B06A2060FFF7C1F80098FEF7AAFFD3
:1011E000A5F8008009B0BDE8F08F380407D5FFF7F7
:1011F000B5F80098FEF79EFF46F2B01070E059482F
:1012000002783AB1FFF7AAF80098FEF793FF46F686
:10121000635065E08146017001F044FFFFF79EF8DE
:101220000098FEF787FF376ADAF8000097F8372052
:1012300090F837108A421ED997F8360008282ED227
:10124000DFE800F00413161613131616384601F0E3
:10125000DDFEDAF8000090F8370087F8370001F07B
:10126000ADFD384601F082FE05E087F8371002E058
:10127000384601F0A5FC5B460422314601A801F086
:101280002DFCFEF753FF0646FFF758F899F80000CB
:10129000401E10F0FF0089F8000023D024E0FEF784
:1012A00045FF0446FFF74AF899F80000401E10F089
:1012B000FF0289F800200CD101F002FF2A480088C3
:1012C00038B1FFF74BF82046FEF734FF01F0C8FEB7
:1012D00004E0FFF743F82046FEF72CFF46F62D60AA
:1012E00028807FE701F0ECFEFFF738F83046FEF784
:1012F00021FF00F02FF9FEF719FF0646FFF71EF851
:10130000DAF8001091F8350040B101280CD002281D
:101310001CD003280ED046F62E6010E00CB1086CED
:101320002060A5F800800BE00CB1086C206046F24C
:10133000A91004E00CB1C4F8008047F2D92028803D
:10134000FFF70CF83046FEF7F5FE4BE70CB1086CE2
:10135000206045F6C250F2E7480000204D55545831
:1013600004010020980000205C0000202DE9F84FC7
:101370000446724815468A46007810B146F20E209F
:1013800011E03CB1080008D0B1F5004F05D045F69A
:10139000256008E045F6C35005E0694920688842A9
:1013A00004D045F6C4501080BDE8F88FFEF7BEFEAD
:1013B0000646FEF7C3FFDFF88C91216AD9F80000DA
:1013C000814207D0FEF7CAFF3046FEF7B3FE45F272
:1013D0008170B0E0DFF8708198F80010491CC9B244
:1013E00088F80010012901D101F05CFEFEF7B6FF7C
:1013F0003046FEF79FFEFEF7FBFF0646A06294F81C
:101400002500DFF848B1401E10F0FF0084F82500E9
:1014100021D0FEF78BFE0446FEF790FF98F80000FF
:10142000401E10F0FF0288F800200CD101F048FEA9
:10143000BBF8000038B1FEF791FF2046FEF77AFEB8
:1014400001F00EFE04E0FEF789FF2046FEF772FE73
:1014500045F283706FE0208A04F10807D0B3D9F811
:10146000001094F8243091F837209A4214D008469E
:1014700001F0CCFDD9F8001094F8240081F8370071
:1014800001F09CFCD9F8000001F08CFDD9F80000B7
:101490002F4990F837000870386800231A46816891
:1014A000216291F8370084F82400012084F8250097
:1014B0002046009601F0FDFBFEF738FE0446FEF7DD
:1014C0003DFF98F80000401E10F0FF0288F8002051
:1014D00024D025E0FFE700262662FEF727FE04461B
:1014E000FEF72CFF98F80000401E10F0FF0088F86F
:1014F00000000CD101F0E4FDBBF8000038B1FEF7AC
:101500002DFF2046FEF716FE01F0AAFD04E0FEF7CF
:1015100025FF2046FEF70EFE2E8045E701F0D0FDA8
:10152000FEF71CFF2046FEF705FE5FEA0A4001D4E5
:1015300000F010F80020288036E700004800002066
:101540004D55545804010020980000205C000020F4
:101550007E000020154810B50078002824D11448DA
:101560000078002820D1FEF7E1FD044601F00EFCD2
:1015700010490870104900EB400051F820000F4955
:1015800008600F490968884209D050F88C1F491C2F
:1015900001600C480168491C0160FEF712FE2046FC
:1015A000BDE81040FEF7C6BD10BD00004800002099
:1015B000980000207F0000208C2A002008010020D5
:1015C00004010020C400002070B5044612480078D1
:1015D00010B146F662501DE010480078012802D094
:1015E00045F6896016E00E4D2878FA2802D345F2B8
:1015F00009200FE0FEF79AFD0646FEF79FFE2878C9
:10160000401C287001F04EFDFEF7A8FE3046FEF7A4
:1016100091FD0020208070BD480000205000002077
:10162000980000202DE9F04116460C460546FEF7CD
:101630007DFD0746FEF782FE29460D48002501295B
:1016400001D0057001E0012101700A480CB104606D
:1016500005E009490A220968B1FBF2F10160FEF7D1
:101660007DFE3846FEF766FD3580BDE8F08100005E
:10167000A00000209C0000201847000870B5044618
:101680001848007810B146F6655029E016480078F1
:10169000012802D045F6896022E0144D287890B1E7
:1016A000FEF744FD0646FEF749FE2878401E10F07E
:1016B000FF0028700AD0FEF751FE3046FEF73AFDD3
:1016C00046F663500CE046F6645009E001F0F8FC81
:1016D000FEF744FE3046FEF72DFDFFF73BFF0020EE
:1016E000208070BD4800002050000020980000209D
:1016F00070B50F4D0446287818B145F68A602080F1
:1017000070BD01F043FB0B4908700B4908700B4991
:1017100000EB400051F820000949086009490860C1
:1017200001202870FEF73CFD43F69920E7E7000012
:10173000500000207F0000207E0000208C2A002026
:1017400008010020040100202DE9F0410646FEF7C3
:10175000EDFC0546FEF7F2FD2E48002404602E48FD
:1017600004802E4804802E4804602E4804602E48D1
:1017700004602E4804602E4804602E480481FEF761
:10178000EDFD2846FEF7D6FCFEF7D0FC0746FEF737
:10179000D5FD2948056818E0FEF7C8FC0746FEF7A6
:1017A000CDFDC5F8B040C5F8B44045F8744F2C6382
:1017B000AC61AC82EC826C62AC62FEF719FE45F85B
:1017C000200FA5F134008481AD6AFEF7C7FD3846CD
:1017D000FEF7B0FC002DDFD1FEF7A8FC0746FEF7B0
:1017E000ADFD1648056806E0FEF7A0FC0746FEF7CB
:1017F000A5FDAC85AD69FEF7B1FD3846FEF79AFC54
:10180000002DF1D102F082FA02F0CCFC3480BDE868
:10181000F0810000640000205E000020AE00002087
:10182000C0000020D4000020F40000204C00002064
:1018300090000020802A0020C800002084000020A2
:10184000F8B504466946244800F0A4FBBDF8000042
:1018500058BB6A460021022000F0FAFBBDF80000E8
:1018600018BBFEF763FC0746FEF768FD1B4E00251C
:101870003560FEF773FD3846FEF75CFC18491948E1
:101880000A6803689A4202D9B2FBF3F010B90A2140
:10189000B2FBF1F06A46002100F0DAFB69460E481F
:1018A00000F0F0F9BDF8000008B12080F8BDFEF7A7
:1018B0003DFC0746FEF742FD0B480C4905603068C9
:1018C00008600B4901200870FEF748FD3846FEF716
:1018D00031FC2580F8BD0000C02D0020B0000020A4
:1018E0001847000804470008C0000020B40000208A
:1018F000BC00002002480068002800D00047704764
:10190000380000202DE9FF4F83B004467248DDE91E
:101910001785DDE910960078DDF854A0139F10B10B
:1019200047F24A102AE04CB1059850B166B16B48B5
:10193000006887420BD246F630601FE047F2AD10D8
:101940001CE047F24F1019E046F62F6016E012989F
:10195000B84202D346F6316010E046F27320B9F186
:10196000200F0BD25FEA090103D0B9F11F0F02D09B
:1019700008E05B4900E05B498C4203D0288007B057
:10198000BDE8F08F204601F06DFE4FF0000BA5F88A
:1019900000B05FEAC8700AD05FEA887007D53046A9
:1019A00000215A4601E004C0491CB942FBD31298F9
:1019B000CDE9007806EB8005DDE905012B463246CE
:1019C00000F0AEFA0599A1620699E16204992162DC
:1019D00084F83790C4F850A0A56020605FEA0A0040
:1019E00024D060651698A76366626060A4F83C80A6
:1019F0000020594604EB8002401C916710F0FF0064
:101A0000F8D004F16000149900F0FEFF204600F0C9
:101A100075F8FEF78BFB0646FEF790FC324D2878F2
:101A2000401CC0B22870012803D004E02F48006891
:101A3000D7E701F037FBFEF791FC3046FEF77AFB63
:101A400094F8370001F0BAF9204601F0ABFA2046CD
:101A500001F0CAFD26490888401C08802548007806
:101A6000012821D0FEF762FB0446FEF767FC2878C8
:101A7000401E10F0FF0129700ED101F021FB1E481D
:101A8000008848B1FEF76AFC2046FEF753FB07B01A
:101A9000BDE8F04F01F0E4BAFEF760FC07B0204665
:101AA000BDE8F04FFEF746BBFEF740FB0446FEF7ED
:101AB00045FC2878401E10F0FF01297001D101F08B
:101AC000FFFAFEF74BFC2046FEF734FB07B0BDE8FB
:101AD000F04FFFF73FBD000048000020144700080A
:101AE000BC290020F8280020980000209C0000203D
:101AF000CC000020500000205C0000200249096852
:101B0000002900D008477047280000202DE9F04147
:101B1000044651480E46007810B147F24E100AE0D4
:101B20004E48844202D147F24C1004E04C488442B3
:101B300004D147F24D100880BDE8F0815CB9FEF792
:101B4000F5FA0546FEF7FAFB46480468FEF706FC80
:101B50002846FEF7EFFAFEF7E9FA0746FEF7EEFB36
:101B6000414D2878401CC0B22870012801D101F0F5
:101B700099FAFEF7F3FB3846FEF7DCFA94F83600E4
:101B800008283BD2DFE800F004082B2B0B082B2B96
:101B9000204601F03BFA02E0204602F097F804F1FB
:101BA000600000F017FF204600F064F8204601F0C6
:101BB0002DFD2E490888401E0880204601F052FD68
:101BC000FF2084F83600FEF7B1FA0446FEF7B6FBB4
:101BD0002878401E10F0FF00287030D031E094F8D3
:101BE00034000728D8D2DFE800F004050405050515
:101BF0000500D1E7204601F02EF8CDE7FEF796FA72
:101C00000446FEF79BFB2878401E10F0FF0028706A
:101C10000CD101F055FA1648008838B1FEF79EFB4A
:101C20002046FEF787FA01F01BFA04E0FEF796FB68
:101C30002046FEF77FFA46F62D6030807CE701F003
:101C40003FFAFEF78BFB2046FEF774FA0020308047
:101C5000BDE8F041FFF77EBC48000020F8280020D6
:101C6000BC2900200401002098000020CC000020A6
:101C70005C00002002490968002900D0084770472D
:101C80002C0000207FB50D460446FEF74FFA0646AD
:101C9000FEF754FB1CB114480068844208D1FEF7DB
:101CA0005DFB3046FEF746FA47F2571028807FBDAD
:101CB000FEF754FB3046FEF73DFA0C48007858B169
:101CC0000020CDE90205009003460246019021461E
:101CD000074800F085FC7FBD04B029462046BDE8DA
:101CE000704001F0C1BD0000040100204800002048
:101CF0005452455302490968002900D008477047EB
:101D0000300000202DE9F0478146574814461E4612
:101D10000078884610B146F2AE1006E0080006D002
:101D2000B1F5004F03D045F6256018803DE000274F
:101D300004B12760FEF7FAF98246FEF7FFFA4B4D31
:101D40002968486CD8B1401E804648640CB1086CC4
:101D50002060FEF74DFB29680A6C801AC1F8A000CC
:101D6000D1F8A420824201D2C1F8A400FEF7F6FA0D
:101D70005046FEF7DFF937804046BDE8F0875FEA5E
:101D8000084007D5FEF7EAFA5046FEF7D3F946F2C7
:101D9000B01009E03648017849B1FEF7DFFA504645
:101DA000FEF7C8F946F6635030800020E5E70121D0
:101DB0008046017001F076F9FEF7D0FA5046FEF742
:101DC000B9F900214B460722084600F087FEFEF7CE
:101DD000ADF98146FEF7B2FA98F80010491E11F0ED
:101DE000FF0188F8001001D101F06AF9FEF7B6FA98
:101DF0004846FEF79FF9FFF7ADFBFEF797F98046DF
:101E0000FEF79CFA286890F8351031B1012916D0F8
:101E100003291AD046F62E601BE074B1006C2060D6
:101E2000FEF7E6FA29680A6C801AC1F8A000D1F81A
:101E3000A420824201D2C1F8A40037800AE00CB18C
:101E4000006C206046F2A91003E004B1276047F25D
:101E5000D92030802868446CFEF780FA4046FEF7AF
:101E600069F9204689E700004800002004010020AD
:101E7000980000202DE9F0470546274816460F46F2
:101E800000781C4610B147F259100AE046F2D520FE
:101E90003FB136B1FEF74AF98146FEF74FFA1DB160
:101EA00004E01880BDE8F0871C4805684FF0000882
:101EB000286858B195F83C00C00713D0FEF74EFAD9
:101EC0004846FEF737F90020696A1AE0FEF746FA3D
:101ED0004846FEF72FF9C7F8008047F25210C6F8BF
:101EE00000800AE0FEF73AFA4846FEF723F9C7F801
:101EF000008047F25410C6F800802080D2E7401CD2
:101F0000091D0A68002AFAD03860A96B081A3060E7
:101F1000A4F80080C6E7000048000020040100206B
:101F200010B5029C02EB840222F007024FF080748D
:101F300042E90204164842F80C0C4FF0123042F805
:101F4000100CA2F114004FF0023240E903134FF0DD
:101F5000113140F8101CD10040F8141C4FF0093129
:101F600040F8181C910040F81C1C4FF007314FF04E
:101F7000033440F8201C610040F8241C4FF0053168
:101F800040F8281D5100C0E9092440F8041D10BD87
:101F9000693900081FB5104A904202D147F25B1020
:101FA00004E00E4A904203D147F25C1008801FBD46
:101FB0000B4A127852B10022CDE90221014600926B
:101FC00013460192074800F00BFB1FBD04B0BDE8AB
:101FD000104001F099BD0000F8280020BC29002025
:101FE000480000205453555370B51548006800B19F
:101FF0008047FEF7FDF9134C134A2168126891429D
:1020000007D0D1F89430C31A41F8903F8D682B4423
:102010008B60C2F89400FEF773F92168D1F8B02004
:10202000824201D2C1F8B000084AD1F8B430106839
:10203000834201D2C1F8B4000020106070BD0000DE
:102040003C00002004010020080100209400002032
:102050002DE9F041074634480E461546007810B188
:1020600047F275201EE0314C207810B146F66350DF
:1020700018E046B1022E06D0042E05D0082E02D05C
:1020800045F625600EE05FB1FEF750F88046FEF79A
:1020900055F92078401CC0B22070012805D006E018
:1020A00047F27E201080BDE8F08100F0FBFFFEF7D4
:1020B00055F94046FEF73EF832461D4E2B4639464E
:1020C000306801F0C5FD288898B1FEF72FF8054665
:1020D000FEF734F92078401E10F0FF01217001D185
:1020E00000F0EEFFFEF73AF92846BDE8F041FEF7B2
:1020F00021B8306800F08AFFFEF718F80646FEF7B0
:102100001DF92078401E10F0FF00207001D100F072
:10211000D7FFFEF723F93046FEF70CF8FFF71AFA5F
:1021200000202880BFE70000480000209800002021
:10213000040100202DE9F047594EDDE908543678B6
:1021400016B147F27520A5E0DFF858A19AF80060B3
:1021500016B146F663509DE015F00E0647F27E2953
:1021600045F6256705D0022E03D0042E06D0082E92
:1021700007D11BB912B909B900287CD035F01E0C63
:1021800002D02780BDE8F087C5F3001547F2792C0F
:1021900047F278284FF47A773DB142F20F75A942A1
:1021A00012D900BFA4F800C0ECE7BB4202D347F24B
:1021B0007B206FE03B2A02D947F27A206AE03B2974
:1021C000F0D8632802D804E0B84202D3A4F8008013
:1021D000D8E7354D4FF4FA7CC1EB01112D68BCFBFB
:1021E000F5FC63446B43B3FBF7F34FF4616778434B
:1021F00000EB8100104400FB0537E7B3FDF796FFC5
:102200008046FEF79BF89AF800005546401CC0B285
:102210008AF80000012801D100F044FFFEF79EF883
:102220004046FDF787FF3246204E23463946306848
:1022300001F00EFD208898B1FDF778FF0446FEF707
:102240007DF82878401E10F0FF01297001D100F0C0
:1022500037FFFEF783F82046BDE8F047FDF76ABF79
:10226000306800F0D3FEFDF761FF0646FEF766F822
:102270002878401E00E00FE010F0FF00287001D128
:1022800000F01EFFFEF76AF83046FDF753FFFFF738
:1022900061F90020208075E7A4F8009072E7000043
:1022A0004800002098000020184700080401002082
:1022B00000B585B000F01CF8FEF79AF804AA0021DA
:1022C00003920091CDE901100648074900230078E8
:1022D0001A4600EB400001EB8001044800F080F951
:1022E00005B000BD7E0000208C2A00205449434BDD
:1022F00002480068002800D00047704740000020D6
:1023000010B5FDF713FF0446FEF718F807490878E3
:10231000401C0870FEF722F82046FDF70BFFFFF780
:10232000C7FFBDE81040FEF76FBE00004800002068
:102330004FF0E021401E48610648026822F07F42CB
:102340000260086940F005000861086940F0020079
:102350000861704720ED00E070470000034A00214B
:102360001160034A1180018070470000680000205E
:102370006C0000202DE9F05F9A4690460D46044619
:102380000A9FFDF7D3FE8346FDF7D8FF5FEA0800FA
:1023900024D0012807D0B0F5004F1FD06FF40041C2
:1023A00018EB010F12D1206A30EA0500C4E9080ACF
:1023B000208A04F108064FF0000990B14B4D2878AF
:1023C000401CC0B22870012815D016E0FDF7C6FFEA
:1023D0005846FDF7AFFE45F6256068E0206A2843C1
:1023E000E4E7FDF7BBFF5846FDF7A4FEA7F8009011
:1023F000206ABDE8F09F00F055FEFDF7AFFF58469C
:10240000FDF798FE36682FE090F88410766801F0AA
:102410000F01012919D002291ED004290DD0082945
:102420000FD0FDF783FE0446FDF788FF2878401E95
:1024300010F0FF00287026D032E0216AC26F1140F0
:1024400007E0216AC26F114009E0C16F236A0A46A2
:1024500099438A4204D006E0C16F226A914311B1C8
:10246000524600F047F816B1B0680028CCD1FDF70D
:102470005DFE0646FDF762FF2878401E10F0FF0063
:10248000287017D018E000F01BFE1948008838B1FA
:10249000FDF764FF2046FDF74DFE00F0E1FD04E08E
:1024A000FDF75CFF2046FDF745FE43F6FF20388030
:1024B00000209EE700F004FEFDF750FF3046FDF7D8
:1024C00039FE5FEA084001D4FFF744F8FDF72EFE1D
:1024D0000546FDF733FF246AFDF740FF2846FDF768
:1024E00029FEA7F80090204683E70000980000200E
:1024F0005C00002070B50025C0F8801080F83550D1
:1025000080F834500446026490F83600082813D24C
:10251000DFE800F01212040412120F0F032802D198
:10252000204601F0D3FB204600F008FD84F8365029
:1025300002E0042084F836002046BDE8704000F038
:102540008ABB00000A4C0B4DFDF7F0FD0646FDF777
:10255000F5FE2068401C20602868401C2860FDF7BC
:10256000FDFE3046FDF7E6FDFEF772FCECE70000ED
:1025700044000020B000002000B50E4A89B00021C0
:1025800011600B2205910691CDE907200A480B4AFC
:102590000B4B006812681B680292CDE903011F20F3
:1025A000CDE900030023074A07A10C48FFF7AAF969
:1025B00009B000BD44000020D8460008D4460008F9
:1025C000D04600084525000875432F4F532D494933
:1025D000492049646C65205461736B00F828002021
:1025E0002DE9F84F1D46DDE90CB4DDE90AA91646D0
:1025F0000F468046FDF79AFD0090FDF79FFE1D48AF
:102600001D4A0188128891422DD2491C89B201804D
:102610001A4802888A4200D2018019490868C0F825
:102620000080C0E902760582C0F814A0A0F81890D6
:10263000C0F81CB0406808601248012101811249AD
:1026400001604160002000F0B9FB1048007808B13B
:102650000F49087000202080FDF780FE0098BDE83B
:10266000F84FFDF767BD0B490888401C088044F20D
:102670005360F0E75C000020E04600085E000020A8
:10268000540000208C2A0020BC2900207E0000205D
:1026900080000020600000203EB5374C374B02A977
:1026A00020680268D51A9A4245D015DC344BD218FE
:1026B0002DD0344BD21822D0334BD21832D0334BDA
:1026C000DA4208D1C269CDE90021038B028AC168D0
:1026D000806801F027F83EBD2D4AAA181ED02D4B68
:1026E000D21824D02C4BDA42F5D1C269CDE90021B1
:1026F000038B028AC168806800F08CFB3EBD0091AC
:10270000028BC36941698068FFF734FE3EBD018BCF
:10271000C269806802AB00F031FD3EBD806801F007
:10272000A3F83EBD018BC269806802AB21E08068DE
:1027300001F0EAF93EBD19481949007800EB400064
:1027400001EB800000F0DAFC206802AB0021C269D6
:10275000144801F015F914480168491E0160E9D1D7
:10276000124909680160FDF743FE024602AB0021F1
:102770000F4801F005F93EBD580000205449434B75
:10278000ADBAB2BE0DF90BFAF2F8F7FF0006F6FF8C
:1027900000F7FDF700FFEFFF03FE0FFE80000020B3
:1027A0008C2A0020D02C002000010020FC000020FA
:1027B000C02D00201D4D1E4C1E4E00BFFDF7B6FC67
:1027C0000746FDF7BBFD208808B3FDF7C7FD384677
:1027D000FDF7B0FCFDF70CFE0746FFF75DFFFDF7C8
:1027E00007FE2968C01B814200D22860FDF79EFCCD
:1027F0000746FDF7A3FD3068406830602088401E22
:102800002080FDF7ABFD3846FDF794FCD6E70A497A
:10281000002008810860486000F0E0FAFDF79EFDA6
:102820003846FDF787FCFEF795FEC5E764000020FB
:102830005C000020580000208C2A0020F0B52F49B1
:102840002F4D89B000220A80296831B12D4E318880
:10285000022905D244F2546135E044F2526132E07B
:1028600029490023294F0A60296801F1200410E05A
:1028700041F8087B5B1C41F8082B9BB241F8042C03
:1028800021F8102B41F80C2C21F8082C41F81C4C95
:102890002034B6F800C06345EAD32B6841F81C3CED
:1028A0001B490B601B490B601B490A801B490A80AE
:1028B0001B490B6853B11B4B1B4D1C682D68AC4268
:1028C00007D244F25661018009B0F0BD44F255616F
:1028D000F9E7032405920692CDE907401868134BE7
:1028E00009681B68CDE903020092CDE901130023BA
:1028F0000F4A10A11648FFF705F8E5E76000002031
:10290000DC460008E0460008640000204E4F4E45BB
:1029100054000020580000205C0000205E000020D1
:10292000E4460008EC46000814470008E8460008A2
:10293000B527000875432F4F532D49494920495366
:1029400052205175657565205461736B000000005D
:10295000BC290020034A00211160034A1180018034
:10296000704700007000002074000020F0B5164C85
:10297000216859B1154E318859B189B2491E226872
:102980008FB2002502F1100329460EE045F21E71B8
:1029900018E045F21D7115E0E2E802316D1C22F8E5
:1029A000081BADB242F8041C1033BD42F4D31160D1
:1029B00051601181D160064A236813603388938087
:1029C000D18011810180F0BDFC460008F846000866
:1029D000802A002010B5428992B10A4903680C6828
:1029E0001C6043680B60CB8844891B1BCB808B88A1
:1029F000448923448B8000214181818101604160B1
:102A0000104610BD802A0020018100214181818172
:102A10000160416070470000F0B54489DDE905E7D9
:102A20000589AC4202D346F293501EE01B4DAE889E
:102A3000CEB12C68761ED4F800C0C5F800C0AE80B8
:102A4000EE88761CB6B2EE80B5F808C0B44500D268
:102A50002E814689002556B1DB060ED403681C6022
:102A6000046025600CE045F21D703880F0BD046004
:102A7000012344604381256005E04368236044608E
:102A800043895B1C4381868943899E4200D28381AE
:102A900061602281C4F80CE03D80F0BD802A0020F6
:102AA0000022074B05A14261C161196819B181611A
:102AB0004861186070478261FBE700002000000059
:102AC00078000020034A00211160034A1180018030
:102AD00070470000780000207C0000202DE9F041C4
:102AE000114D07460C4628680026194680F8342008
:102AF00080F8356000F064FD64B1FC6004F1080604
:102B000001223946286800F011F83946304600F0B5
:102B100075F802E02868C687066320462968BDE884
:102B2000F04100F01BB800000401002010B5C2877E
:102B30000024234601630EE04B6041F8103B641C07
:102B400041F8103BA4B241F80C3C21F8083C41F894
:102B5000043C41F8180C9442EED310BD38B14268E1
:102B6000C1F8C02081688968096AC161704791F81D
:102B70003400022803D0072803D004A002E004A0F8
:102B800000E005A0C1F8C000704700002000000070
:102B90005461736B205100005461736B2053656D59
:102BA0000000000005A2C1F8C020816811B1896849
:102BB000096A00E001A1C161704700002000000027
:102BC00070B580F83710C68F056B0FE0EC68208A6F
:102BD0000834012807D92946204600F04FF8294635
:102BE000204600F00BF8761EB6B22035002EEDD14F
:102BF00070BD0021016041600181704730B58A6875
:102C0000002392F8374002891AB1521C02810268EF
:102C10000BE0012202814B600B60016014E09568BB
:102C200095F83750A54203D85268002AF7D107E03B
:102C300032B1146854B1C1E900426160116030BD25
:102C40004B6042680A605160416030BD1160C1E96B
:102C50000032016030BD70B50646C48F056B07E0D9
:102C6000E8682946083000F009F8641EA4B220354F
:102C7000002CF5D10020F087306370BD10B50289BB
:102C80000023012A0BD00A6862B14C6874B1546009
:102C900022600289521E02814B600B6010BD0360EE
:102CA0004360F6E74A6813600260F2E753604260EF
:102CB000EFE7F8B50C46064691F836100025069861
:102CC00008294ED2DFE801F04D4D04044D4D28286F
:102CD00094F83410032910D0A265A4F85C30206465
:102CE00036B12046FFF7B7FF21463046FFF75AFFBF
:102CF00094F83600032806D008E0009021463046BC
:102D000000F030F8ECE7204600F0E0FF204600F04D
:102D100015F984F8365020E094F83410032910D0C7
:102D2000A265A4F85C30206436B12046FFF793FF1B
:102D300021463046FFF736FF94F83600072806D0C4
:102D400008E000902146304600F00CF8ECE7204601
:102D500000F0BCFF042084F8360084F8355084F875
:102D60003450F8BD70B50C6B049DC98F0AE0E6685D
:102D7000864204D1C4E904022383E56170BD491E83
:102D800089B220340029F2D170BD000010B50024B2
:102D9000064802E02034E4B2001D01680029F9D0A1
:102DA0000846FDF7CEF92044C0B210BD2400002033
:102DB00001490020086070472400002000F01F0235
:102DC00041090120C2F11F029040034A52F821300C
:102DD000034342F8213070472400002000F01F0216
:102DE00041090120C2F11F029040034A52F82130EC
:102DF000834342F82130704724000020034A002119
:102E00001160034A11800180704700008400002097
:102E1000880000202DE9FF4F83B01F46DDE9109A9E
:102E200093460646FDF782F90546FDF787FA384CCA
:102E30002078401CC0B22070012801D100F032F986
:102E4000FDF78CFA2846FDF775F9358A06F108007A
:102E50001DB1B90530D500683CE0F80601D4002367
:102E600000E01023CDE9009A5A4606F120000499AB
:102E7000FFF7D2FDFDF75AF90546FDF75FFA207816
:102E8000401E10F0FF0121700ED100F019F9214809
:102E9000008848B1FDF762FA2846FDF74BF907B004
:102EA000BDE8F04F00F0DCB8FDF758FA07B028464F
:102EB000BDE8F04FFDF73EB9006801255B46D0E95B
:102EC0000181CDF800903046049AFFF7F2FE6D1EA6
:102ED0004046ADB2002DF1D1FDF728F90546FDF7CA
:102EE0002DFA2078401E10F0FF00207001D100F074
:102EF000E7F8FDF733FA2846FDF71CF9380401D44A
:102F0000FEF728FB0021AAF8001007B0BDE8F08FFB
:102F1000980000205C0000200020074B014600BF05
:102F200000EB400203EB8202401C11811160C0B231
:102F300051602028F4D370478C2A002010B5044635
:102F400090F83700FFF73AFF074994F837000978FF
:102F50008842204603D1BDE8104000F023B8BDE808
:102F6000104000F003B800007E00002090F83710F9
:102F70000B4A01EB410102EB810100220B8943B1B5
:102F80005B1C0B810B68C0E903320A6810610860A2
:102F9000704701230B81C26002610860486070477E
:102FA0008C2A002090F837100A4A01EB410102EB0D
:102FB000810100220B893BB15B1C0B81C2604A6816
:102FC0000261D0604860704701230B81C2600261DA
:102FD0000860F7E78C2A002010B50289002A14D077
:102FE000012A12D00021022A07D0D0E90024D36898
:102FF0001961C2E90314E26005E0D0E90023C2E9E7
:103000000313C3E90321C0E9003210BD70B50546C2
:1030100090F83700114900EB400001EB8001D5E941
:103020000302002442B10B895B1E0B81D06090B17A
:1030300002612C61EC6070BD28B10A89521E0A81C0
:1030400004610860F5E70C810C604C6095F837006E
:10305000FFF7C4FEEDE74A60EBE700008C2A002092
:1030600010B5FDF763F80B490446002008700B48C3
:103070000949016051F88C0F401C0860084801683C
:10308000491C0160FDF79DF82046BDE81040FDF7A2
:1030900051B800007F000020BC290020080100205A
:1030A000C4000020044810B50078012803D1FDF7C2
:1030B0009FF90249086010BD980000208C00002094
:1030C0000A4810B5007800280ED1FDF791F908499B
:1030D0000968401A07490A68824200D20860064916
:1030E0000A68824200D2086010BD000098000020EB
:1030F0008C000020900000209400002070B5044651
:1031000014480078012824D1FDF710F80546FDF792
:1031100015F92168B1B11048814213D04A6D12B13E
:10312000521E4A650ED1208902280BD30B48007825
:1031300040B92046FFF750FF2068016D09B90849E2
:1031400009684165FDF70AF92846BDE87040FCF7BB
:10315000F1BF70BDA0000020F828002098000020DA
:103160009C000020034A00211160034A1180018065
:1031700070470000A4000020A80000202DE9F84FAF
:103180001E46904689460446FCF7D0FF0090FDF7A6
:10319000D5F8208A04F108074FF0000B50B1DFF892
:1031A000BCA09AF80010491CC9B28AF80010012985
:1031B0001AD01BE0256A681C0CD06D1CC4E90858A5
:1031C000FDF7CCF80098FCF7B5FFA6F800B028464C
:1031D000BDE8F88FFDF7C2F80098FCF7ABFF46F6A4
:1031E000C55030800020F3E7FFF75CFFFDF7B6F82D
:1031F0000098FCF79FFF5FEA895002D53D893F6840
:103200000CE03F6801250023B9687F681A46204614
:10321000CDF80080FFF74DFD6D1EADB2002DF2D14F
:10322000246AFCF783FF0546FDF788F89AF800004A
:10323000401E10F0FF008AF8000001D1FFF740FFA8
:10324000FDF78CF82846FCF775FF5FEA094001D4CA
:10325000FEF780F9A6F800B02046B9E798000020F4
:103260000EB5964C964E2068450004E028466A4606
:103270000021FEF7EDFE30780128F7D16846FEF711
:1032800063FA904822680168914206D90A4621688B
:10329000B2FBF1F15FEA010803D100680A21B0FB3B
:1032A000F1F8DFF824B2894F42F2107A5FF000069D
:1032B000FDF79EF80190FDF733F885490860FCF7AB
:1032C00035FF0546FDF73AF88248834C01682160D6
:1032D0000660FDF743F82846FCF72CFF7F4823687B
:1032E00002689A422BD97E48824202D2504601217E
:1032F00015E07C48824203D24FF47A700A210EE036
:103300007948824202D26420014608E0774882422E
:1033100003D20A204FF47A7101E001205146B2FB3A
:10332000F1F15843B0FBF1F0AAEB0000704980B214
:10333000ABF800000A88824203D2088001E0ABF8B3
:1033400000A0FEF7D7FA0024FCF7F0FE8146FCF758
:10335000F5FF3D6842E000BFFCF7E8FE0290FCF795
:10336000EDFFDFF8909199F80010491CC9B289F877
:103370000010012901D1FFF795FEFCF7EFFF02983D
:10338000FCF7D8FED5F89800C5E92660FCF7CEFE1C
:103390000290FCF7D3FF99F80010491E11F0FF01CD
:1033A00089F800100CD1FFF78BFE5348008838B124
:1033B000FCF7D4FF0298FCF7BDFEFFF751FE04E0D6
:1033C000FCF7CCFF0298FCF7B5FE55F89C0F0444BF
:1033D000FCF7ACFE8146FCF7B1FF2D6AFCF7BEFF9F
:1033E0004846FCF7A7FE002DB6D12CB33C488442DA
:1033F00002D25546012015E03A48844203D24FF4E8
:103400007A750A200EE03848844202D264252846A4
:1034100008E03648844203D20A254FF47A7001E06E
:1034200001255046B4FBF0F08146FCF77FFE029088
:10343000FCF784FF3C6822E000250120F4E700BF90
:10344000D4F89C006843B0FBF9F080B2504500D935
:103450005046A4F88800B4F88A10814201D2A4F83A
:103460008A0004F1A8026B46111D2046FEF702FDFA
:10347000FCF75CFE0290FCF761FFD4F8BC40FCF75F
:103480006DFF0298FCF756FE002CD9D11B4801783D
:10349000012903D106706846FEF756F9FCF7A8FF2C
:1034A0000199401A16490A68824200D208606A46A9
:1034B00000214046FEF7CCFDFAE600000447000874
:1034C000BC00002018470008AC000020C800002005
:1034D0004C000020B0000020B8000020B400002004
:1034E000801A060000093D00005A62020084D717C6
:1034F000AE000020980000205C000020AA00002000
:10350000C000002030B51D4A89B0002111601C4A5E
:1035100011601C4A11601C4A11701C4A11701C4A2F
:10352000136843B11B4B1C4D1C682D68AC4205D27F
:1035300046F62C6108E046F62B6105E0174C25782D
:103540001F2D04D346F62A61018009B030BD032542
:1035500005910691CDE9075011481B681268006873
:10356000CDE90120CDE903312078009000230D4AF8
:103570000DA11248FEF7C6F9E7E70000B0000020F1
:10358000B8000020B4000020BC000020AA000020E9
:1035900008470008104700081447000800470008C3
:1035A0000C4700086132000875432F4F532D4949DD
:1035B000492053746174205461736B000C2C0020FB
:1035C00010B5044631B10A460146064800F010FB2A
:1035D000032000E0022084F836002046BDE81040B9
:1035E000FFF714BDE0000020074B0022C0F8B82010
:1035F000196829B1C0F8BC10C1F8B800186070474C
:10360000C0F8BC20FAE70000C8000020D0E92E2155
:1036100000234AB181B1C2F8BC10C1F8B820C0F88B
:10362000BC30C0F8B8307047054A116009B1C1F824
:10363000B830C0F8BC307047C2F8BC30F1E70000C9
:10364000C8000020044A00211160044A1180044A85
:103650001160018070470000C8000020CC000020ED
:10366000C400002070B50025056085604560C56018
:10367000056145610446856127A0C4E9075065627C
:10368000A562E5622563E5872564A565A4F85C501D
:10369000002104F16000FFF7B7F925676567E5676A
:1036A000A4F884500020C4F8805000BF04EB8001CF
:1036B000401C8D6710F0FF00F8D06564C4F8A0507E
:1036C000C4F8A450A56384F88650C4F8AC50C4F87C
:1036D000A850A587A564E56425656565A4F88850AC
:1036E000A4F88A50C4F88C50C4F890503434FCF7D5
:1036F0007FFEC4E91805E567C4F8805004F8015B53
:10370000202004F8015B04F8015B04F8810B04A09D
:1037100020C4C4E9005070BD3F5461736B000000C9
:10372000200000002DE9FC5F0546DDE90C76002055
:10373000994692468B463080FCF7F8FC8046FCF7B1
:10374000FDFD464C2078401CC0B22070012801D1FC
:10375000FFF7A8FCFCF702FE4046FCF7EBFC0DB9B6
:103760003F480568DFF8FC8095F83600082852D2FB
:10377000DFE800F00404262604042626CDE90076BE
:103780004B465246594605F16000FFF745F9FCF7F4
:10379000CDFC0546FCF7D2FD2078401E10F0FF015D
:1037A000217031D1FFF78CFCB8F8000060B3FCF752
:1037B000D5FD2846FCF7BEFCBDE8FC5FFFF750BC1A
:1037C00095F834000228D9D153465A46294600209C
:1037D0000097FFF76EFAFCF7A9FC0546FCF7AEFD73
:1037E0002078401E10F0FF01217001D1FFF768FC26
:1037F000FCF7B4FD2846FCF79DFC5FEA09402AD49B
:10380000BDE8FC5FFDF7A6BEFCF7A8FD2846BDE8B5
:10381000FC5FFCF78FBCFCF789FC0546FCF78EFDCE
:103820002078401E10F0FF0020700CD1FFF748FCFC
:10383000B8F8000038B1FCF791FD2846FCF77AFC97
:10384000FFF70EFC04E0FCF789FD2846FCF772FC4C
:1038500046F62D603080BDE8FC9F000098000020F7
:10386000040100205C0000202DE9F0410D460446D3
:10387000FCF75CFC0746FCF761FD00262E8094F8FF
:103880003600082864D2DFE800F0040404040D398F
:103890004955FCF763FD3846FCF74CFC47F25310E2
:1038A000288037E02F4D2878401CC0B228700128AE
:1038B00001D1FFF7F7FBFCF751FD3846FCF73AFC66
:1038C00094F88600401E10F0FF0084F8860004D1B2
:1038D00084F836602046FFF731FBFCF727FC0446EE
:1038E000FCF72CFD2878401E10F0FF01297001D153
:1038F000FFF7E6FBFCF732FD204609E094F886006E
:10390000401E10F0FF0084F886001BD101200EE05D
:10391000FCF710FCBDE8F041FDF71CBE94F88600F2
:10392000401E10F0FF0084F886000BD1022084F8BE
:10393000360007E094F88600401E10F0FF0084F87F
:10394000860003D0FCF70AFD3846E1E70320EEE7E6
:10395000FCF704FD3846FCF7EDFB46F62D602880A9
:10396000BDE8F08198000020044808B50068FEF723
:10397000C1F969460020FEF7C9F808BD040100201E
:103980002DE9F84F984691468B460646FCF7CEFB4C
:103990000546FCF7D3FC594C2078401CC0B220707F
:1039A000012801D1FFF77EFBFCF7D8FC2846FCF785
:1039B000C1FB0EB9524806680020524FC6F840902D
:1039C000A8F8000096F8360046F6C55A082872D2C4
:1039D000DFE800F033332F2F33332F2FFCF7BEFCFB
:1039E0002846FCF7A7FBFFF73BFB04E0FCF7B6FC1F
:1039F0002846FCF79FFBA8F800A00020BDE8F88F40
:103A00006D1C7564FCF792FB0646FCF797FC20786A
:103A1000401E10F0FF00207047D1FFF751FB38889F
:103A2000F0B3FCF79BFC3046FCF784FBFFF718FB78
:103A300062E096F83400072813D0756C681CDFD15B
:103A4000FCF774FB0546FCF779FC2078401E10F06B
:103A5000FF002070CAD1FFF733FB38880028C5D09B
:103A6000BCE700231A4631461846CDF80090FFF710
:103A700020F9756CFCF75AFB0646FCF75FFC2078D2
:103A8000401E10F0FF00207001D1FFF719FBFCF77A
:103A900065FC3046FCF74EFB5FEA0B402CD401E09E
:103AA00003E008E0FDF756FD26E0FCF757FC304642
:103AB000FCF740FB20E0FCF739FB0546FCF73EFC39
:103AC0002078401E10F0FF0020700BD1FFF7F8FAAD
:103AD000388838B1FCF742FC2846FCF72BFBFFF78F
:103AE000BFFA04E0FCF73AFC2846FCF723FB46F655
:103AF0002D60A8F80000002528467FE798000020E8
:103B0000040100205C0000202DE9F0410D46044630
:103B1000FCF70CFB0746FCF711FC334804B90468BA
:103B2000016832488C4209D1017839B1FCF716FCA2
:103B30003846FCF7FFFA46F6635052E00021298030
:103B400094F836100126082944D2DFE801F0043148
:103B500033393B3B3B3B05460078401CC0B22870E4
:103B6000012801D1FFF79EFAFCF7F8FB3846FCF775
:103B7000E1FA042084F8360084F886602046FFF7D6
:103B800045FAFCF7D3FA0446FCF7D8FB2878401E28
:103B900010F0FF01297001D1FFF792FAFCF7DEFB6C
:103BA0004FEA0400FCF7C6FABDE8F041FDF7D2BCCD
:103BB000052000E0062084F8360084F8866005E0E1
:103BC0000720F8E714F8860F401C2070FCF7C6FBAE
:103BD0003846E7E7FCF7C2FB3846FCF7ABFA46F697
:103BE0002D602880BDE8F0810401002098000020AD
:103BF00030B50368002433B94C618A64C1E90640DA
:103C0000016001210FE09D6C954216D39D694B61C7
:103C10008A6455B1C1E906509C6CA21A9A649961F4
:103C200069618188491C818030BDC1E906409C6C76
:103C3000A21A9A6499610160F3E7521B1D465B6901
:103C4000002BE0D14C618A64C1E90650E8E700002E
:103C5000F0B51C461B4BDFF868C000251B6847F217
:103C60007E26042A04D0082A08D029B10A4614E086
:103C7000CA1A624500D882B985641EE0D0F84CE0CB
:103C8000A3EB0E078F4202D90A46991804E0CA1B1B
:103C900062450BD852B17144C164012180F83610DD
:103CA00001460948FFF7A4FF2580F0BDB7FBF1F2FC
:103CB00001FB02E21144C0E912512680F0BD000070
:103CC0000000FFFFD0000020D800002030B5D0E970
:103CD0000524C369002174B1626122B19461946CBE
:103CE000856C2C44946481619A88521E9A8041614B
:103CF0008164C16130BD32B19161946C856C2C449A
:103D000094641A60F0E719609980F1E77047000049
:103D10002DE9F047FCF70AFA0446FCF70FFBDFF841
:103D2000C88098F80000401CC2B288F80020012A20
:103D300001D1FFF7B7F9FCF711FB2046FCF7FAF9C0
:103D4000FCF756FB294D074600262C6814B3A06CDF
:103D5000B146401E4FF0040AA06418E0761C94F8A7
:103D60003600B6B2012802D0052806D007E084F854
:103D700036902046FFF7E2F801E084F836A0646947
:103D80002C60CCB1A888401EA880C4F81890A06C04
:103D90000028E3D0EE80FCF72BFBC41BFCF7C6F930
:103DA0000546FCF7CBFA98F80000401E10F0FF0023
:103DB00088F8000003D00FE0A5F80490EAE7FFF7C9
:103DC0007FF90B48008838B1FCF7C8FA2846FCF7A1
:103DD000B1F9FFF745F904E0FCF7C0FA2846FCF713
:103DE000A9F92046BDE8F08798000020D8000020FF
:103DF0005C0000202DE9F047FCF798F90446FCF739
:103E00009DFADFF8FC9099F80000401CC2B289F8D6
:103E10000020012A01D1FFF745F9FCF79FFA20465F
:103E2000FCF788F9FCF7E4FA364D074600262C68C3
:103E3000DCB3A06C4FF0030A401EB046A06431E032
:103E4000761C94F83600B6B2032802D0072810D0AA
:103E500020E0C4F85880A4F85C80FCF7C9FA20641C
:103E60002046FEF7F8FE2046FFF768F884F8368013
:103E70000CE0C4F85880A4F85C80FCF7B9FA206420
:103E80002046FEF7E8FE042084F8360084F835A0CA
:103E900084F8348064692C60CCB1A888401EA88066
:103EA000C4F81880A06C0028CAD0EE80FCF7A0FAF5
:103EB000C41BFCF73BF90546FCF740FA99F80000F3
:103EC000401E10F0FF0089F8000003D00FE0A5F8B5
:103ED0000480EAE7FFF7F4F80B48008838B1FCF7F4
:103EE0003DFA2846FCF726F9FFF7BAF804E0FCF79C
:103EF00035FA2846FCF71EF92046BDE8F087000099
:103F000098000020E00000205C0000201CB5274C39
:103F1000274D00216B4601AA0846FDF7F3FEBDF8C8
:103F200000000028F5D1234800780128F1D1FCF7E2
:103F3000FDF80646FCF702FA2078401CC0B220705B
:103F4000012801D1FFF7AEF8FCF708FA3046FCF77C
:103F5000F1F819480168491C0160FCF7E7F80646CA
:103F6000FCF7ECF92078401E10F0FF0020700CD117
:103F7000FFF7A6F81148008838B1FCF7EFF9304692
:103F8000FCF7D8F8FFF76CF804E0FCF7E7F93046E7
:103F9000FCF7D0F8FFF7BCFE0646FFF72BFF2968B9
:103FA00030448142B5D22860B3E700009800002079
:103FB000D400002050000020D00000205C00002031
:103FC00030B51D4A89B0002111601C4A1C4B11609C
:103FD00019609180D1801B4A9980D980136843B1C0
:103FE000194B1A4D1C682D68AC4205D247F21321BB
:103FF00008E047F2122105E0154C25781F2D04D367
:1040000047F21121018009B030BD0B2505910691C1
:10401000CDE9075018680F4B12681B68CDE9030102
:10402000CDE901232078009000230B4A0BA1104812
:10403000FDF768FCE7E70000D0000020D800002072
:10404000E000002020470008284700081447000827
:104050001C470008244700080D3F000875432F4FF8
:10406000532D494949205469636B205461736B0097
:10407000D02C002030B50546294889B000240460C2
:1040800028482A492A4A04602748048029480B689E
:104090001BB11268B2FBF3F103E011680A22B1FB15
:1040A000F2F10160084624492A460860234825A108
:1040B0000460234804602748FCF7E8FF28880028AC
:1040C00015D12548016841B12449254B0A681B6870
:1040D0009A4205D247F2483008E047F2473005E0FF
:1040E000204A13781F2B04D347F24630288009B0AA
:1040F00030BD0B23CDE906431B4B089505941B6887
:1041000009680068CDE90103CDE903141078009037
:104110000023164A16A11C48FDF7F4FBE7E7000050
:10412000E8000020F0000020EC00002030470008EC
:1041300018470008FC00002000010020F8000020C3
:10414000F40000204F5320546D72204D7574657833
:1041500000000000942D0020344700083C47000870
:10416000144700082C47000838470008A9410008F8
:1041700075432F4F532D4949492054696D6572206D
:104180005461736B00000000C02D00200EB501A823
:104190000022009002AB11460148FCF7CFFF0EBD94
:1041A000942D0020704700001CB5DFF88880DFF8F0
:1041B0008890DFF888A000216B4601AA0846FDF729
:1041C000A1FDFFF7E3FFFCF713F9D8F8001006464E
:1041D000491CC8F800100327D9F8004018E06846C9
:1041E000FDF7F2F9A0692569401EA0610CD1A08CF1
:1041F00002281BD0204600F023F884F82670A2681D
:1042000012B12046E16890472C466846FDF736FA21
:10421000002CE4D1FCF7ECF8841B00F02FF8DAF85E
:104220000010A142C7D2CAF80040C4E7206AA061CA
:10423000E5E70000F8000020F0000020F400002076
:104240000C4B10B51C6800220169844203D119602F
:1042500029B14A6103E04369196101B14B61012150
:1042600080F826100449026142610888401E0880D7
:1042700010BD0000F0000020EC00002008B56A46E8
:1042800000210248FDF772F808BD0000942D0020BF
:10429000704730B58FB028216846FBF764FF1421C2
:1042A0000AA8FBF760FF01210804CDE900100024F3
:1042B000029402250491CDE907504FF4E0100990D3
:1042C0006846FCF7FDFA0F20CDE90A056802CDE942
:1042D0000C4002210AA80E94FCF710FA0FB030BD72
:1042E0007047000070B5044600680169E26821F477
:1042F0004051114301612169A06808436169084385
:104300002168CA6841F20C639A430243CA6020687C
:104310004169A26921F44071114341611E4920683D
:10432000884202D1FCF796FA01E0FCF783FA00EB31
:10433000C00101EB0012606864218000B2FBF0F361
:10434000B3FBF1F36FF018067343B2FBF0F5B2FB69
:10435000F0F605EB8305322303EB0515B5FBF1F50C
:10436000B6FBF1F605F0F00505EB0615B2FBF0F62D
:10437000B2FBF0F0B0FBF1F06FF01802504306EB27
:10438000800003EB0010B0FBF1F0216800F00F009B
:104390002844886070BD000000380140FEE700003E
:1043A000014A024900F023B8114400081C01002012
:1043B0000907090E002804DB00F1E02080F8001452
:1043C000704700F00F0000F1E02080F8141D7047E6
:1043D00002E008C8121F08C1002AFAD170477047CE
:1043E000002001E001C1121F002AFBD170472DE916
:1043F000F04116460F460446002503E03946B04713
:10440000641C6D1C20780028F8D12846BDE8F08196
:1044100038B504468DF8000069460320ABBE20463F
:1044200038BD00000EB5FBF707FFFBF71DFFFCF7DB
:10443000C5FC02A8FDF704FAFBF762FF0E4E00254B
:1044400002AC002208213046FCF7CAF80023CDE96F
:104450000054032219461846FDF76CFE012208217C
:104460003046FCF7BDF80023CDE90054032219467D
:104470001846FDF75FFEE4E7000801400EB5FBF7C4
:10448000DBFEFBF7F1FEFCF799FC02A8FDF7D8F97B
:10449000FBF736FF0F4F002502AC4FF40056002209
:1044A00031463846FCF79CF80023CDE90054012240
:1044B00019461846FDF73EFE012231463846FCF704
:1044C0008FF80023CDE90054012219461846FDF764
:1044D00031FEE4E70010014010B58AB009A8FCF7EE
:1044E000BFFCFCF789F8FFF7D4FEFCF745FC002081
:1044F00006AB09AA0321059083E80700602209237F
:10450000094CCDE90232CDE9001404900346074A74
:1045100007A104F59060FDF7F5F909A8FDF7E8F8A3
:104520000AB0002010BD0000842E00208145000844
:104530007374617274207461736B00000EB5FBF7C5
:104540007BFEFBF791FEFCF739FC02A8FDF778F93A
:10455000FBF7D6FE002402AD05A0FFF721FF0023E4
:10456000022219461846CDE90045FDF7E3FDF3E7C1
:1045700068656C6C6F2075632F4F53200D0A000027
:104580002DE9F0438BB0FBF757FE09A8FDF758F96A
:10459000FBF7B6FE012109AA0846FDF743F8FBF731
:1045A000C5FD0446FBF7CAFEDFF8E09099F800006D
:1045B000401CC2B289F80020012A01D1FEF772FD29
:1045C000FBF7CCFE2046FBF7B5FD00244FF00308B7
:1045D000CDE9064809AE2E4801A9402706250896D0
:1045E0000594049481E8A100042000902346294A00
:1045F00029A12C48FDF786F9CDE906482A4801A9EA
:1046000008960594049481E8A1000023274A28A174
:1046100000F553700095FDF775F9CDE90648264879
:1046200001A908960594049481E8A1000520009052
:104630001C480023214A22A1C430FDF763F9194820
:1046400009A9C438FFF760FAFBF770FD0446FBF7D1
:1046500075FE99F80000401E10F0FF0289F8002056
:104660000ED1FEF72DFD1948008848B1FBF776FE04
:104670002046FBF75FFDFEF7F3FC0BB0BDE8F083CF
:10468000FBF76CFE2046FBF755FDF6E7980000208F
:10469000043000207D4400086C65645F7063313332
:1046A00000000000C8330020043200202544000828
:1046B0006C65645F70613300043100203D45000883
:1046C00073656E645F6D7367000000005C0000201E
:1046D000781500200C0000008000000078170020F2
:1046E0000A000000B81800200C0000008000000044
:1046F000B81A00208000000064000000B81C0020F0
:104700000B0000000A000000F82200200C0000004E
:104710008000000040000000E80300000A000000E4
:10472000F82400200C000000800000000B000000B6
:104730000A000000F82600200C00000080000000A5
:10474000010202030405060708090A0B0C0D0E0FEF
:104750001010000000000000000001020304060722
:104760000809000000000102030400008C47000853
:104770000000002020010000D0430008AC480008E1
:104780002001002040390000E04300080000000044
:104790000000000000000000000000000000000019
:1047A0000000000000000000000000000000000009
:1047B00000000000000000000000000000000000F9
:1047C00000000000000000000000000000000000E9
:1047D00000000000000000000000000000000000D9
:1047E00000000000000000000000000000000000C9
:1047F00000000000000000000000000000000000B9
:1048000000000000000000000000000000000000A8
:104810000000000000000000000000000000000098
:104820000000000000000000000000000000000088
:104830000000000000000000000000000000000078
:104840000000000000000000000000000000000068
:104850000000000000000000000000000000000058
:104860000000000000000000000000000000000048
:104870000000000000000000000000000000000038
:104880000000000000000000000000000000000028
:104890000000000000000000010000001000000007
:0C48A0000000000000127A000000000080
:04000005080000ED02
:00000001FF
