:020000040800F2
:10000000C80B00209101000883150008D5110008D5
:1000100081150008EF040008CF160008000000005A
:10002000000000000000000000000000871500082C
:10003000F10400080000000085150008891500087B
:10004000AB010008AB010008AB010008AB010008E0
:10005000AB010008AB010008AB010008AB010008D0
:10006000AB010008AB010008AB010008AB010008C0
:10007000AB010008AB010008AB010008AB010008B0
:10008000AB010008AB010008AB010008AB010008A0
:10009000AB010008AB010008AB010008AB01000890
:1000A000AB010008AB010008AB010008AB01000880
:1000B000AB010008AB010008AB010008AB01000870
:1000C000AB010008AB010008AB010008AB01000860
:1000D000AB010008AB010008AB010008AB01000850
:1000E000AB010008AB010008AB01000800F002F80A
:1000F00000F03FF80AA090E8000C82448344AAF183
:100100000107DA4501D100F034F8AFF2090EBAE880
:100110000F0013F0010F18BFFB1A43F0010318473B
:100120001C8A00003C8A0000103A24BF78C878C1BD
:10013000FAD8520724BF30C830C144BF04680C60ED
:10014000704700000023002400250026103A28BF35
:1001500078C1FBD8520728BF30C148BF0B60704739
:10016000642900F08380002070471FB51FBD10B5C3
:1001700010BD00F082F91146FFF7F7FF01F0B8FA61
:1001800000F0A0F903B4FFF7F2FF03BC00F0A8F9F8
:100190000948804709480047FEE7FEE7FEE7FEE71B
:1001A000FEE7FEE7FEE7FEE7FEE7FEE70448054957
:1001B000054A064B70470000EB150008ED000008EB
:1001C000C8050020C80B0020C8070020C807002071
:1001D0000FB41CB50C0007AA009001D02044401EAB
:1001E000074B7B4469460190069800F026F9002CE5
:1001F00003D06946002000F033F91CBC5DF814FB05
:10020000850200002DE9F0410E46044600202062E0
:100210002046E168884730B3252805D0D4E901217C
:100220009047206A401CF2E7E16820460027884793
:10023000050018D0A5F14100192802D820354FF447
:1002400000673246294620462760FFF789FF40B104
:10025000012804D0F61D26F007060836D8E7361D1B
:10026000D6E72846DAE7206ABDE8F0812DE9F041BB
:100270000646002410687529314616A510D0AFF344
:100280000080002802DA404213A507E031688A079F
:1002900001D512A502E0490704D511A5012401E00A
:1002A000AFF3008000210A2206F1240709E0B0FB29
:1002B000F2FCB0FBF2F302FB1C003030785418461D
:1002C000491C0028F3D123462A463046BDE8F041B8
:1002D00000F054B8000000002D0000002B000000CA
:1002E000200000004FF000020429C0F0128010F03E
:1002F000030C00F01B80CCF1040CBCF1020F18BF02
:1003000000F8012BA8BF20F8022BA1EB0C0100F094
:100310000DB85FEAC17C24BF00F8012B00F8012B67
:1003200048BF00F8012B70474FF0000200B513469C
:1003300094469646203922BFA0E80C50A0E80C5005
:10034000B1F12001BFF4F7AF090728BFA0E80C50B6
:1003500048BF0CC05DF804EB890028BF40F8042BAF
:1003600008BF704748BF20F8022B11F0804F18BF1C
:1003700000F8012B70477047704770472DE9F04730
:100380000D4699469246044600F124080168880605
:1003900004D5E06921F01001216000E00120A842AD
:1003A00001DD471B00E00027A1697A1902EB090073
:1003B000081AA0612078C00602D42046AFF300805E
:1003C000002608E0D4E901211AF806009047206AC7
:1003D000401C761C20624E45F4DB2078C0060AD50E
:1003E0002046AFF3008006E0D4E901213020904799
:1003F000206A401C2062381EA7F10107F4DC07E0E8
:10040000D4E9012118F805009047206A401C2062B9
:10041000281EA5F10105F3DC2046AFF3008020780B
:10042000000602D50220BDE8F0870120FBE70000AE
:1004300001694A1C02610878704700B58FB0CDE9A8
:1004400001310021059105497944CDE90310114698
:100450006846FFF7D7FE0FB000BD0000E5FFFFFFC5
:100460000A6802F8010B0A607047D1E900239A423A
:1004700002D2531C0B6010707047754600F02CF8C8
:10048000AE4605006946534620F00700854618B081
:1004900020B5FFF78BFEBDE820404FF000064FF07F
:1004A00000074FF000084FF0000B21F00701AC46A9
:1004B000ACE8C009ACE8C009ACE8C009ACE8C009C8
:1004C0008D46704710B50446AFF300802046BDE866
:1004D0001040FFF757BE0000004870476805002035
:1004E00001491820ABBEFEE7260002007047FEE778
:1004F000704772B6FEE7000070B5044600F0FEF8E3
:100500000546601C02D004480078044400F0F6F868
:10051000401BA042FAD370BD080000202DE9F84F1F
:10052000DFF8B8910024A9F1040B23460F2709F145
:10053000040AABF1040EC9E00125A5402A40AA42F5
:100540007DD1674ED1F804C0ACEB0608B44532D07B
:1005500014DCBCF1030F3AD009DCBCF1000F2AD047
:10056000BCF1010F1CD0BCF1020F31D11DE0BCF178
:10057000110F17D0BCF1120F2AD119E0B8F5881F5E
:1005800019D006DCB8F5803F15D0B8F5801F1FD113
:1005900011E0B8F5001F0ED0B8F5041F18D10AE01D
:1005A000CB6815E0CB681B1D12E0CB6808330FE069
:1005B000CB680C330CE08B682BB1012B4FF0080398
:1005C00003D0456104E0042302E0056100E000235C
:1005D000FF2A01D8064601E000F104064FEA84052F
:1005E00001D9A5F12005D6F8008007FA05FC28EA14
:1005F0000C0803FA05F548EA0508C6F800804D68BE
:10060000ED0062D5374DAE6946F00106AE61AD69C9
:1006100024F0030605F001050095334D06EB050CAB
:10062000DCF80850A607360F07FA06F825EA080591
:10063000DFF8B880404503D14FF0000817E044E0F0
:10064000DFF8AC80404502D14FF001080FE0DFF841
:10065000A480404502D14FF0020808E0DFF89880FE
:10066000404502D14FF0030801E04FF0040808FABA
:1006700006F848EA0508CCF808804D68D9F800600B
:10068000ED024D4601D5164300E096432E604D68BD
:10069000DAF80060AD02554601D5164300E09643F6
:1006A0002E604D68DBF80060AD035D4601D5164352
:1006B00000E096432E604D68DEF80060ED0375465D
:1006C00001D5164300E096432E60641C0D682A464F
:1006D000E5407FF431AFBDE8F88F00000804014029
:1006E000000011100010024000000140000801400D
:1006F000000C0140001001400014014001488068D6
:10070000704700000800002070B5040025D094F860
:100710003D00002520B984F83C50204600F04EF9F9
:10072000242084F83D002068016821F00101016067
:100730002068016841F4004101602068016821F4EB
:100740000041016000F088FA4D4A6168914201D889
:100750004C4900E04C49884201D2012070BD4B4910
:100760002368B0FBF1F15E6826F03F060E435E6041
:100770006368934206D94FF4967359434FF47A73E2
:10078000B1FBF3F12368491C1E6A26F03F06314392
:1007900019626168914210D84900401EB0FBF1F225
:1007A000521CC2F30B02042A01D2042022E0B0FB47
:1007B000F1F0401CC0F30B001CE0A268F2B301EBA7
:1007C000C10303EB0116431EB3FBF6F35B1C43F4BA
:1007D00080431B0549D092B301EBC10202EB01112A
:1007E000401EB0FBF1F0401CC0F30B0040F4804011
:1007F00040F400402168CA694CF6FF739A431043E5
:10080000C861D4E9071001432068026822F0C002E1
:1008100011430160D4E9030101432068826848F272
:10082000FF339A4311438160D4E9050108432168ED
:10083000CA6822F0FF021043C86001E00EE016E033
:100840002068016841F0010101602564202084F8DE
:100850003D00256384F83E50002070BD01EB410649
:10086000431EB3FBF6F35B1CB3E70120C2E701EBC9
:100870004101401EB0FBF1F0401CC0F30B00B7E794
:10088000A086010080841E0000093D0040420F0048
:100890002DE9F84F1F4690468A460446DDF8289019
:1008A000FFF72CFF054694F83D0020287FD119233F
:1008B000012240492046009500F01EFD002876D117
:1008C00094F83C00012872D0012084F83C00206894
:1008D0000168C90703D1016841F001010160206886
:1008E000016821F400610160212084F83D0010209E
:1008F00084F83E0000262664C4F824806785608D55
:1009000020852D48E0622B464A465146204600F09D
:1009100079FC90B9206841698069009036E02A46E8
:100920004946204600F08EFD50B1206C042804D1C9
:100930002068016841F4007101600120BDE8F88F72
:10094000606A216800780861606A401C6062618D9D
:10095000491E6185218D491E89B22185226853690E
:10096000DB435B070BD451B100781061606A401C17
:100970006062608D401E6085208D401E20852A4665
:100980004946204600F08CFC0028CED1208D00285E
:10099000C5D154F83D0B016841F40071016020207D
:1009A00004F81E09E67766770020C7E7FFE7022014
:1009B000C4E70000020010000000FFFF10B586B081
:1009C0000021009101910291039100680F49884232
:1009D0001AD10F4CA06940F00800A061A0696946D7
:1009E00000F008000490C020009012200190032025
:1009F00003900848FFF792FDE06940F40010E061C1
:100A0000E06900F40010049006B010BD00540040EE
:100A100000100240000C0140024881680278114435
:100A20008160704708000020074810B5016841F058
:100A300010010160032000F067F80F2000F006F8B5
:100A400000F024F8002010BD0020024070B50D4DCC
:100A500004464FF47A712878B1FBF0F00A4909682E
:100A6000B1FBF0F000F0BEFA48B9102C07D200221A
:100A70002146501E00F028F800206C6070BD012057
:100A800070BD000008000020140000200C4808B5CC
:100A9000816941F001018161816901F001010091E9
:100AA000C16941F08051C161C06900F0805000907F
:100AB0000448416821F0E06141F00071416008BDE7
:100AC0000010024000000140F0B40E4B1B680C46C1
:100AD000C3F30223C3F10705042D00D90425191D12
:100AE000072901D2002300E0DB1E012606FA05F1EA
:100AF000491E214099409E40761E16403143F0BC6D
:100B000000F0E6BD0CED00E0064900F007020868C1
:100B10004FF6FF03184040EA0220034A10430860E2
:100B2000704700000CED00E00000FA052DE9F047E9
:100B30000F46050061D0434E306800F00700B84210
:100B400009D2306820F0070038433060306800F088
:100B50000700B84251D128683B4C810712D54007A5
:100B600003D5606840F4E06060602878000703D532
:100B7000606840F4605060606068A96820F0F00030
:100B8000084360602878C00728D06868012810D022
:100B90002168022810D0890700292EDA616821F027
:100BA000030101436160FFF7A9FD804641F28839E6
:100BB0000DE021688903EFE78901EDE7FFF79EFD6E
:100BC000A0EB0801494502D90320BDE8F087606821
:100BD000696800F00C00B0EB810FEFD1306800F0D5
:100BE0000700B8420BD9306820F007003843306066
:100BF000306800F00700B84201D00120E5E728780E
:100C0000400705D56068E96820F4E060084360604B
:100C10002878000706D56068296920F4605040EA0A
:100C2000C100606000F028F86168084AC1F3031150
:100C3000515CC8400649086006480068FFF706FF97
:100C40000020C2E70020024000100240218B000873
:100C5000140000200C000020044805490068496881
:100C6000044AC1F30221515CC840704714000020BF
:100C700000100240318B00080E4A51680E4801F006
:100C80000C03042B11D0082B0FD10C48C1F3834364
:100C9000C903C05C0AD55168084AC1F34041921E9D
:100CA000515C054A5043B0FBF1F07047044948439A
:100CB000704700000010024000127A00118B0008FB
:100CC00000093D002DE9F84F040070D02078C04D98
:100CD000C00749D06868C0F38100012807D0686860
:100CE000C0F38100022809D16868C00306D52868CE
:100CF000800339D560680028E7D035E06068B0F53A
:100D0000803F0BD010B1B0F5A02F11D0286820F48F
:100D100080302860286820F4802002E0286840F4B1
:100D200080302860606890B1FFF7E8FC06460AE072
:100D3000286840F480202860F0E700BFFFF7DEFC61
:100D4000801B642873D828688003F7D50CE0FFF770
:100D5000D5FC064605E000BFFFF7D0FC801B6428E9
:100D6000F0D828688003F7D420789A4E80074FF097
:100D700001094FF0000839D5686810F00C0F07D052
:100D80006868C0F38100022809D16868C00306D4EE
:100D90002868800714D52069012808D110E020694F
:100DA000B0B1C6F80090FFF7A9FC074605E00AE1DC
:100DB000FFF7A4FCC01B0228C4D828688007F7D519
:100DC0002868616920F0F80040EAC10028600DE061
:100DD000C6F80080FFF792FC074604E0FFF78EFCA0
:100DE000C01B022823D828688007F7D42078000782
:100DF0002CD57948A169D9B1C0F80090FFF77EFCE5
:100E0000074604E0FFF77AFCC01B02280FD8686A87
:100E10008007F7D571484FF4FA510068B0FBF1F044
:100E2000009000BF0098411E0091FAD20EE080E0D1
:100E3000C0F80080FFF762FC074604E0FFF75EFCA5
:100E4000C01B022875D8686A8007F7D4207840074D
:100E500060D5E8690027C00008D4E86940F08050F8
:100E6000E861E869012700F0805000905C48016863
:100E7000C90513D40168834641F480710160FFF70E
:100E80003DFC824606E000BFFFF738FCA0EB0A00FD
:100E900064284ED8DBF80000C005F5D5E0680128CD
:100EA0000AD008B1052813D0286A20F00100286272
:100EB000286A20F0040002E0286A40F0010028625D
:100EC000E06841F2883B98B1FFF718FC82460BE0DE
:100ED000286A40F004002862EEE700BFFFF70EFC2E
:100EE000A0EB0A0159455AD8286A8007F6D50CE0CC
:100EF000FFF704FC824605E0FFF700FCA0EB0A01C7
:100F000059454CD8286A8007F6D41FB1E86920F00B
:100F10008050E861E06988B36968C1F38101022902
:100F200044D00228C6F8608004D0FFF7E7FB0446EF
:100F300038E034E0FFF7E2FB074604E0FFF7DEFBB2
:100F4000C01B02282BD828688001F7D4206AB0F58E
:100F5000803F05D16868A16820F4003008436860CC
:100F6000D4E908010843696821F4741108436860F2
:100F7000C6F86090FFF7C2FB044606E025E000BF1C
:100F8000FFF7BCFB001B022809D828688001F7D5B1
:100F90001BE000BFFFF7B2FB001B022802D90320B1
:100FA000BDE8F88F28688001F4D40EE00128F7D05E
:100FB0006868226A00F48031914204D1616A00F4C9
:100FC0007010884201D00120EAE70020E8E7000025
:100FD00000100240000042428004424214000020FF
:100FE0000070004010B5401EB0F1807F01D3012099
:100FF00010BD4FF0E02460610F21601700F068FB26
:101000000020A06107202061002010BD70B590F87D
:101010003C20012A26D0012480F83C40022280F89E
:101020003D2003685A689D6822F070060A683243C2
:101030005A600D4B02689A4208D0B2F1804F05D039
:101040000A4B9A4202D00A4B9A4204D1496825F0D1
:1010500080031943916080F83D40002180F83C10E6
:10106000084670BD022070BD002C01400004004005
:101070000008004010B5040003D094F83D0010B102
:1010800007E0012010BD002084F83C00204600F05D
:101090001FF8022084F83D00211D206800F0A6FA08
:1010A000012084F8460084F83E0084F83F0084F86C
:1010B000400084F8410084F8420084F8430084F83A
:1010C000440084F8450084F83D00002010BD000075
:1010D00008B500680649884208D10648816941F48C
:1010E00000618161806900F40060009008BD00002B
:1010F000002C01400010024070B5044690F83C00FE
:101100000025012817D0012684F83C60022084F8CD
:101110003D002068826822F0770222F47F428260DC
:101120000868502838D00DDC20284FD005DC90B35B
:10113000102811D14AE0022070BD302846D0402846
:101140000AD13BE060282FD070280DD0B0F5805F29
:1011500003D0B0F5005F12D0012584F83D60002077
:1011600084F83C00284670BDCB68D1E90121206895
:1011700000F078FA2068816841F0770109E0CB68D7
:10118000D1E90121206800F06DFA2068816841F4FE
:1011900080418160E1E719E0CA684968206800F091
:1011A00073FA5021206806E0CA684968206800F098
:1011B0007CFA6021206800F05FFACEE7CA684968CF
:1011C000206800F061FA40212068F4E722680146B7
:1011D0001046F0E7FEE701684A69D24352050FD492
:1011E0006FF480624A61002140F8301F2022427370
:1011F0008173026942F004020261017301207047A9
:1012000000207047F8B50446C06A1E460D461746D2
:10121000082807D0012805D010F5803F02D0206BA8
:10122000122804D12068016841F4807101601346DE
:1012300000224FF001112046009600F05DF840B109
:1012400020680068C00502D54FF4007020640320B8
:10125000F8BD2069B0F5804F0ED00620216800EA65
:10126000D51040F0F000086133463A460B4920465D
:1012700000F08AF878B902E005F0FE0000E0E8B27C
:1012800021680861054933463A46891F204600F027
:101290007BF80028DCD00120F8BD00000800010028
:1012A00070B516460D4604461EE02046FFF793FF34
:1012B00008B1012070BD681C16D0FFF71FFA801B13
:1012C000A84200D885B920684069C04340070BD5C3
:1012D000002044F8300F20216173A073216941F090
:1012E000200121612073E4E720684069C043400782
:1012F000DBD4002070BD00002DE9F047984617466A
:101300000D460446C1F30746DDF820902AE000BFF1
:10131000B8F1FF3F26D0FFF7F1F9A0EB09014145F5
:1013200002D8B8F1000F1DD12068012E16D08069B7
:1013300025EA00000004000C12D00020B84211D1B0
:10134000002044F8300F20216173A073216941F01F
:101350002001216120730120BDE8F0874069E7E7A3
:101360000120EBE72068012E0AD0806925EA000001
:101370000004000C06D00020B842C9D00020EBE7E2
:101380004069F3E70120F7E72DE9F0479846164654
:101390000D4604464FF000094FF0200AC1F30747FD
:1013A00023E020684069C043400515D420680168E7
:1013B00041F40071016021686FF480604861C4F8F5
:1013C000309084F83DA084F83E90216C41F00401F7
:1013D000216484F83C9021E0701C06D0FFF78EF960
:1013E000A0EB0800B04203D816B1012F1FD021E0B6
:1013F0002068012F15D0806925EA00000004000C48
:1014000018D000BF44F8309F84F80DA084F80E90E7
:10141000216941F02001216184F80C900120BDE890
:10142000F087406925EA00000004000CEAD120683A
:10143000406901E02068806925EA00000004000C92
:10144000AFD1ECE770B516460D4604461EE02046C7
:10145000FFF7C1FE08B1012070BD681C16D0FFF770
:101460004DF9801BA84200D885B920684069C04367
:1014700000060BD5002044F8300F20216173A073C3
:10148000216941F0200121612073E4E7206840696F
:10149000C0430006DBD4002070BD00000D4808B535
:1014A000816941F020018161816901F02001009191
:1014B000816941F004018161816901F004010091B9
:1014C000816941F008018161806900F008000090A5
:1014D00008BD0000001002400D4810B50B49016026
:1014E0000C49416000214FF480428160C0E9031241
:1014F00041618161C1610162FFF706F9002803D0F3
:10150000BDE81040FEF7F5BF10BD000000540040DC
:10151000AC040020801A060010B586B000241748DD
:101520000094019402940394049413490594016077
:101530004721C0E901144FF6FF71C0E9031444616B
:101540008461FFF797FD08B1FEF7D3FF4FF4805099
:10155000009069460948FFF7CFFD08B1FEF7C9FFC3
:10156000049404A905480594FFF750FD002801D014
:10157000FEF7BFFF06B010BD002C014000050020A3
:10158000FEE7FEE770477047FFF746BA30B58FB009
:1015900028216846FEF7C8FE14210AA8FEF7C4FEFB
:1015A00001210804CDE900100024029402250491D1
:1015B000CDE907504FF4E01009906846FFF782FB31
:1015C00008B172B6FEE70F20CDE90A054FF480603E
:1015D000CDE90C4002210AA80E94FFF7A7FA0028D3
:1015E00001D072B6FEE70FB030BD7047F0B50268AB
:1015F000194B1A4C1A4D4FF08047984205D0B8420B
:1016000003D0A04201D0A84203D122F070064A685C
:101610003243984205D0B84203D0A04201D0A8423C
:1016200003D122F44074CA6822434C6922F080023C
:10163000224302608A68C2620A688262984201D1CB
:1016400009690163012141610169C90703D0016989
:1016500021F001010161F0BD002C014000040040B7
:101660000008004010B5846842EA032224F47F4455
:101670000A432243826010BD826822F070020A434E
:1016800042F007018160704710B5036A046A24F0D4
:1016900001040462846924F0F00444EA021423F093
:1016A0000A020A438461026210BD10B5036A046A2B
:1016B00024F010040462846923F0A00324F470442D
:1016C00044EA023243EA01118261016210BDFEE781
:1016D0000907090E002804DB00F1E02080F800145F
:1016E000704700F00F0000F1E02080F8141D7047F3
:1016F00086B0FFF799F9FFF749FFFFF7CFFEFFF735
:10170000EBFEFFF709FF714B714A7249724800F016
:10171000A9FA714800F091FE00216F4800F09DFE8B
:101720006D4800F005F96D496B4800F052FA6CA362
:1017300014220021684800F015FA674800F040FACA
:101740004FF4FA60FEF7D8FE634800F0F1F86849FC
:10175000614800F03EFA67A3142200215E4800F0C1
:1017600009FA68A3282200215B4800F003FA5A48CE
:1017700000F026FA40F6B830FEF7BEFE644956483F
:1017800000F027FA40246542534800F0D1F8A2B295
:1017900058A30021504800F0E5F904F1140082B28A
:1017A00058A300214C4800F0DDF94B4800F008FA3E
:1017B0003220FEF7A1FE641EAC42E5DA4FF47A70E7
:1017C000FEF79AFE14264FF0020A3546D14605244C
:1017D0004FF000084FF0400B3F4800F0A9F80022FE
:1017E000802311463C48CDF800B000F0CAF80A2723
:1017F000B9B240230022384800F0C4F90A37802FDC
:10180000F6DB0A27BAB280230021334800F035F90D
:101810000A37402FF6DB0F2000902346AAB2B1B260
:101820002D4800F08EF8AAB2B1B22B4800F082F930
:1018300056444D44A64203DDC4F18000B0420ADCA8
:10184000CAF1000AA64201DA264604E0C4F180008B
:10185000B04200DA0646A54203DDC4F14000A842CA
:101860000ADCC9F10009A54201DA254604E0C4F109
:101870004000A84200DA05462649174800F0A9F9B9
:10188000434625A2142101A8FEF7A2FC01AB0A22BF
:101890004621114800F066F9334622A2142101A81E
:1018A0000095FEF795FC01AB142246210A4800F092
:1018B00059F9094800F084F91E20FEF71DFE08F1D1
:1018C0000108B8F5967F87DB3EE700008528000811
:1018D000FD24000850290008180400208186000813
:1018E0005538673220496E6974204F4B2100000043
:1018F000D038000851513A3336313437383937311E
:101900003700000049443A4359554531380000003A
:1019100000310008B42A00084672616D653A2564FA
:1019200000000000506F733A25642C25640000000D
:1019300001680A7C90F83810406B5143C900FEF7EB
:10194000D1BC2DE9F8431C4680461019401C80B2DA
:1019500000900819401C83B21546101B82B20E4637
:10196000081B81B2089F404600F012F9002806D0FB
:1019700023462A4631464046009700F029FABDE842
:10198000F8832DE9F84F83460A9E9A46901980B253
:1019900001EB0A04009015460F46A3B2584600F02A
:1019A000F7F800282FD04FF0000953462A46394651
:1019B0005846CDF8009000F067F8022E23D3B61EEB
:1019C000360405F10105360CADB214D04FF0010814
:1019D00033462A4639465846CDF8008000F054F880
:1019E000641EA1B233462A465846CDF8008000F066
:1019F0004BF8A81985B253462A4639465846CDF8C1
:101A0000009000F041F8BDE8F88F2DE9F041044660
:101A100090F870001F4615460E4630B1012809D0D7
:101A200002280CD0032815D10FE0E16D204688472D
:101A3000284408E0E16D20468847301A09E0E16D4E
:101A400020468847281A85B204E0E16D2046884781
:101A5000304486B22846A4F86460A4F8660039468B
:101A60000025204600F090FB010003D0204600F046
:101A7000BBFA85B22846BDE8F08138B50024009451
:101A800000F002F838BD00003FB581B0044690F880
:101A90008C00089900283AD0BDF81000002836D0F4
:101AA000012811D9022902D0032907D00CE0BDF882
:101AB0000820101A401CADF8080005E0BDF80C2005
:101AC000101A401CADF80C0011F0010521D0B4F83B
:101AD0004810BDF80800814219D8B4F84A10814274
:101AE00015D9B4F84E30B4F84C2004A90DF10C000F
:101AF00000F050F900280AD00095206BBDF8103096
:101B0000BDF80C208568BDF808102046A84705B030
:101B100030BDB4F84C10BDF80C008142F7D8B4F8D1
:101B20004E108142F3D9B4F84A30B4F8482004A9E1
:101B300002A8DDE708B5B0F84C30934210D8B0F8F1
:101B40004E3093420CD9B0F848308B4208D8B0F8E8
:101B50004A308B4204D9002300930123FFF794FFFE
:101B600008BD000030B4024C446030BC00F0DAB96B
:101B7000C124000830B4024C446030BC00F0D2B93B
:101B8000BF28000838B501240094FFF77DFF38BD59
:101B900070B50D461E460446B0F84E10B0F84C0025
:101BA000049B00F04EFB002809D0B4F84A10B4F8AA
:101BB000480033462A46BDE8704000F042BB70BD85
:101BC00010B5044600F0CDFB2046BDE8104000F003
:101BD0003CBC10B50446806D884209D004F1740005
:101BE000A16500F089FB2046BDE8104000F056B822
:101BF00010BD00000149C165704700009B1F00082F
:101C00000021A0F85010A0F854104FF6FF71A0F872
:101C10005210A0F85610016B4968084770B5044689
:101C200000250498A565E362616384F8382084F890
:101C3000395084F86D5084F8915084F88D5001210A
:101C400084F8921084F89310206301682046884736
:101C50002046FFF7D5FF2046FFF7CCFF84F87050F1
:101C600070BD00007CB50C46009313460546084A3B
:101C7000084900F0FAFB01A800F038FB0146064BCA
:101C800000949DF804202846FFF7C8FF7CBD0000A3
:101C90001D260008452700085D22000810B5816D4B
:101CA00000291AD090F9813080F88E3090F9822086
:101CB00080F88F2090F88D1000290ED001290DD0CA
:101CC00090F97E4090F980100C449C4201DD80F830
:101CD0008E408A4201DD80F88F1010BD90F983108C
:101CE0008B4201DA80F88E1090F98410F1E72BB165
:101CF000012B05D0022B06D0104402E0084400E07E
:101D0000801A80B27047401AFBE72BB1012B05D037
:101D1000022B06D0401A02E0104400E0084480B2D2
:101D20007047801AFBE738B50446B0F856000090BB
:101D3000B4F85230B4F85420B4F850102046FFF7ED
:101D400027FF18B3012084F88C00B4F84810B4F8C9
:101D50005000814201D2A4F84800B4F84A10B4F807
:101D60005200814201D9A4F84A00B4F84C10B4F8EA
:101D70005400814201D2A4F84C00B4F84E10B4F8DB
:101D80005600814201D9A4F84E0038BD002084F8E5
:101D90008C0038BD30B504880D882544ADB2AC4206
:101DA00005D99C4202D25D1EADB200E014469C42B1
:101DB00001D2954201D8002030BD944200D2144691
:101DC0009D4200D91D460480281B0880012030BD9B
:101DD0002DE9FF4FC3F1010083B006B2584291468E
:101DE000DDF840A040008B4601271C46CDE9009A53
:101DF00000250FFA80F85B462246294615E0002EA2
:101E000008DB08F102000FFA80F8641E06EB0800F8
:101E1000A4B206B26D1CBF1C3FB2CDE9009AADB2B0
:101E2000F01906B25B4622462946039800F005F8F1
:101E3000A542E4D307B0BDE8F08F2DE9FF4F83B092
:101E4000164610980F46A0EB060B03EB0700019017
:101E50001098DDF84490A0EB070098465FEAC9713E
:101E600003EB060A02F1010507F1010400900FD00F
:101E70000198ABB281B21FFA8BF20398FFF782FE92
:101E80000098A3B282B21FFA8AF10398FFF77AFE94
:101E90005FEA8971A8EB0707A8EB06060DD5ABB280
:101EA0001FFA8BF2B9B20398FFF76CFE0098A3B249
:101EB00082B2B1B20398FFF765FE5FEA09700DD5F3
:101EC0000198ABB281B2109A0398FFF75BFEA3B200
:101ED0001FFA8AF1109A0398FFF754FE5FEA4970DF
:101EE0000ED5ABB2B9B2109A0398FFF74BFE109A19
:101EF000039807B0A3B2B1B2BDE8F04FFFF742BEFE
:101F000007B0BDE8F08F38B5C58F049C0094521B14
:101F1000C46A92B2A04738BD38B5049C0094FFF75C
:101F2000F2FF38BD2DE9F0471C469146884606462B
:101F300000F0C1FC00254FF6FF777268217830462B
:101F400090470346B84225D0641CA3F57F40FE3875
:101F5000F3D04A4641463046FFF757FD96F87010D9
:101F600031B1012907D0022908D003290FD10AE095
:101F700008EB000104E009EB000106E0A8EB00011A
:101F80001FFA81F803E0A9EB00011FFA81F9284448
:101F900085B2D2E72846BDE8F0870020704710B52B
:101FA0000C4600F006F80122641EA240801A40B2DE
:101FB00010BD30B50568047B2A78E2406318DBB2B7
:101FC000082B09D36D1C05602D78C4F10804A540C9
:101FD0001543083BEAB2DBB201248C40641E144076
:101FE0000373204630BD00002DE9F843054600F19B
:101FF000600400F00CF915F96B6F2046E97BFFF7E0
:10200000CEFF8146297C2046FFF7C9FF0746697C41
:1020100020466B3DFFF7C3FF804694F90A00002875
:1020200057DDF019404247B2237CA0883A46494622
:10203000FFF75DFEA080237C3A46E0884946FFF723
:1020400064FEE080A188277C02460B4637B1012F51
:102050000AD0022F40D0032F0FD146E094F90A7026
:1020600030443B449BB207E0891B491C94F90A7039
:102070005B1C89B29BB2384480B200902846FFF7BF
:1020800087FD30B30020207284F8090095F876109F
:102090002046FFF78EFF814695F877102046FFF720
:1020A00088FF074600224946284600F027F801220B
:1020B0003946284600F022F801212046FFF779FF33
:1020C0000028EFD194F90900B042DFDBA07B85F84E
:1020D00092004046BDE8F88394F90A705B1CC91B66
:1020E000491C89B29BB2921B04E094F90A703344F4
:1020F0009BB2D21B521C92B2401CBDE72DE9F74F98
:1021000084B00D46049C94F8687094F8698060343B
:10211000A07AC01BC6B20196B54200D201954FFA13
:1021200088F279B2A088B4F806B0237C924689463A
:10213000FFF7DDFD0290237C524649465846FFF7E3
:10214000E4FD0246069808B1A17B02E0607B50B92D
:10215000E17B049880F89210207C0090DDE9013149
:102160000498FFF791FCB54207D3A81BC5B208F14C
:102170000100002700F0FF08CAE77819207284F8F0
:10218000098007B0BDE8F08F70B50D460146806D3F
:102190001730FF2D10D8612D02D3B1F8881003E05D
:1021A000412D02D3B1F886100844417819B3027862
:1021B000AA42F9D1801C70BDB1F88A100C182646CD
:1021C0000021304600F019F804440221304600F0A6
:1021D00014F8361DA842F3D34FF6FF72207802EAB6
:1021E00000216078084306D0A84201D1E01C70BDF0
:1021F000A0780444F2E7002070BD08444FF6FF7257
:102200000178407802EA0121084480B2704730B575
:10221000054600F1600401660020207315F8781F60
:102220002046FFF7C6FEA07269782046FFF7C1FE80
:10223000E072A87EA07310B10020E07330BD0120D1
:10224000FBE78A4205D2834201D89A4203D9012092
:1022500070478342F9D8002070470000F0B502F0C3
:1022600007060124B440002590F892E0E7B2DDF8BB
:1022700014C02C46BEF1010F01D83D4600D03C46AB
:10228000076822F00702BCF1000F3F7C07FB02F752
:10229000BAB2476B3A44114409D108785B1E28430F
:1022A00060401B0401F8010B1B0CF6D1F0BD0A784D
:1022B000761C2A436240A3F101030A7016F0070658
:1022C0009BB206D06A06150E6206140E002BEED1E4
:1022D000F0BD428F114490F89220012A03D800BF2C
:1022E0004FF00105F2D04FF00104EFE70821017033
:1022F000004870471800002070B50546087828701F
:10230000487868708878A870C878E870087928716B
:102310004879687188790C46A871E079E871207A6B
:102320002872607A6872A07AA872E07AE872207BDC
:102330002873607B6873A07BA873E07BE873207CC4
:10234000287411212046FFF758FF68821321204688
:10235000FFF753FFA88215212046FFF74EFFE882C2
:1023600070BD2DE9F843064690F8387090F8395062
:10237000006800244FF6FF7890F8119031683046DD
:102380002A460B7C716B04FB03FC1FFA8CFC08EAE9
:10239000CC0C61440091002100F040F8641C6D1CDD
:1023A000E4B2EDB2BC4201D24D45E7D3BDE8F883BB
:1023B000F0B590F838204FF6FF75036805EAC201C2
:1023C0008187197C05EAC101418790F8394005EA07
:1023D000C401C1875E7CA718B74201D9321B92B2F3
:1023E00005EAC20220F8401F11444180998A818089
:1023F000D98AC180F0BDFFF7DBBF0021A0F84810EB
:10240000B0F84410A0F84A10B0F84010A0F84C10F2
:10241000B0F84210A0F84E10FFF785BC1CB58DF83F
:1024200005108DF80620049C8DF8043000940122DC
:1024300084686B460F21A0471CBD30B4846800231C
:10244000A44630BC1A460A21604730B48468002391
:10245000A44630BC1A461021604730B4846800237B
:10246000A4460A4630BC0B2160472DE9F0411546D1
:102470000E460446069F00F009F86761A660C4E9AD
:1024800003532046BDE8F04100F012B8002140F8A7
:10249000081B064A026042608260C260C176817792
:1024A0000161FF21017780F820107047492800085A
:1024B00030B484680023A44630BC1A460921604722
:1024C000080001D00A2801D14FF6FF70704730B4E0
:1024D00004690023A44630BC1A461921604713B58D
:1024E0000122046901AB1721A0471CBD30B4046967
:1024F0000023A44630BC1A461821604738B5164858
:10250000182918D004DC142924D0172920D104E07C
:10251000192913D020291BD11CE0104C08E000BF62
:10252000017813F8015B6554491C521E0170D2B248
:10253000002AF5D10EE0002101700BE04FF0FF31D1
:1025400000910378054A78210548FEF7A1F908B102
:10255000002038BD012038BD0600002048050020BD
:10256000AC04002030B4C4680023A44630BC1A4632
:102570001921604730B4C4680023A4460A4630BC21
:102580001621604730B4C4680023A4460A4630BC14
:102590001521604730B4C4681346A4460A4630BCCF
:1025A00017216047F8B50C464FEA000514F8011BE7
:1025B000182924D00EDC152919D0162917D017296F
:1025C00023D120788DF800006A4601212846FFF7C4
:1025D000E1FF0AE0192912D0FE2916D122788DF8E0
:1025E00000202921284600F031F9641CDEE722781A
:1025F0008DF80020EE6800232846B047F5E7002359
:10260000EE681A462846B047D0E7F8BD30B4C46833
:102610000023A44630BC1A46182160472DE9F0413A
:10262000DFF8B08014460646A1F11402002798F89E
:1026300000001D46062A4AD2DFE802F02F03161BCF
:102640003E4310B13046FFF742FF3046FFF74EFFE2
:1026500000213046FFF743FF21463046FFF73FFF9A
:10266000012088F8000029E021463046FFF737FFB7
:1026700024E050B13046FFF72AFF06E0182130462B
:1026800000F0EAF8183CE4B21835182C2A46F5D8C0
:102690002146304600F0E0F80EE096F82400FF28CE
:1026A00002D1782086F8240037692B46224630462E
:1026B000BC46BDE8F041604788F800700120BDE8E5
:1026C000F0810028F8D03046FFF701FFF4E7002042
:1026D000F5E700000000002070B5002345690446BE
:1026E0001A462821A8470023E5681A4614212046E7
:1026F000A84701224B21204600F0A8F82068292194
:102700000279204600F0A2F800224B21204600F07A
:102710009DF8206829210279204600F097F80122CF
:102720004B21204600F092F820682921427920466A
:10273000BDE8704000F08AB80160897C80F8221002
:102740007047000070B50C46054600F019F888B9CE
:10275000092C0BD00A2C01D0002070BD2846FFF7B1
:10276000BBFF05492846FFF71DFF03E00349284644
:10277000FFF7E2FF012070BD82290008842A0008CB
:102780002DE9F0411E46144605460B2908D00D29B7
:102790000ED00E291ED00F2927D00020BDE8F081D1
:1027A0001AB12849FFF7FEFE4AE02649491FF9E71A
:1027B0004AB124490C31FFF7F5FE286890F8130060
:1027C00085F822003CE01F49491DFFF7EBFE286811
:1027D000807CF5E7FFF71AFF81212846FFF7D2FE3C
:1027E00021462846FFF7C6FE27E0FFF70FFF707966
:1027F00095F8221001EBC000C7B240212846FFF730
:10280000C1FE102040EA17112846FFF7BBFE07F073
:102810000F012846FFF7AEFEB07940F0B001284620
:10282000FFF7A8FE30793268C006010E2846FFF790
:10283000B1FE641E14F0FF04F4D12846FFF792FEA7
:102840000120ABE7612900080020704730B44469DB
:102850000023A44630BC60472DE9F04115460E46E2
:102860000446FFF743FE40212046FFF738FE276964
:102870002B46324617212046B8472046BDE8F04196
:10288000FFF725BE10B51046282912D0292905D0FA
:102890002A2906D02B290BD0002010BDFDF72CFED5
:1028A00007E0002000BF401C80B25028FAD300E0AF
:1028B00000BF012010BD002180F82610704730B500
:1028C0004FF6FF72A9B30A293FD090F82630541E64
:1028D0007BB15B1E13F0FF0380F82630058C01F0FE
:1028E0003F0102EA851242EA010202842DD020460D
:1028F00030BDFC2905D3052280F8262001F0010116
:102900001FE0F82905D3042280F8262001F00301F6
:1029100017E0F02905D3032280F8262001F00701F3
:102920000FE0E02906D3022280F8262001F00F01F3
:1029300007E00AE0C02906D3012280F8262001F032
:102940001F010184D3E7084630BD104630BD0000AA
:10295000F7230008FB230008191F00081815AF19FA
:10296000FF1815AE19FF1815A115C819FF1815A0E5
:1029700015C019FF1815A115C019FF1815A015C805
:1029800019FF1815AE15D5168015A8163F15D316C4
:10299000001540158D16141520160015A115C81523
:1029A000DA1612158116CF15D916F115DB1640155A
:1029B0002E15A415A619FF1815AE15D5168015A845
:1029C000163F15D316001540158D16141520160048
:1029D00015A115C815DA1612158116EF15D916A10D
:1029E00015DB1600152E15A415A619FF1815AE1522
:1029F000D5168015A8163F15D316001540158D164F
:102A0000141520160015A115C815DA160215811621
:102A1000CF15D916F115DB1640152E15A415A619DC
:102A2000FF1815AE15A415D5165015A8163F15D3C9
:102A30001600154015AD168B15D9162215DB163567
:102A40001532158116FF15A615DA161219FF18157D
:102A5000AE15D5168015A8163F15D31600154015CE
:102A60008D16141520160015A115C015DA161215AD
:102A70008116CF15D916F115DB1640152E15A415A4
:102A8000A619FF000001140A6464323200127A00B1
:102A90000004289610080000800040000001140A7D
:102AA0006464323200093D000004289610080202D6
:102AB00080004000BF000202030303040405070076
:102AC000FF06FF0600010A0216062F200500BD01C1
:102AD0002106B1B1192922075BB7495600230A2DF7
:102AE000B1AB86AA86AA0024092DB15BF54E690117
:102AF000250834B1C9B1770026092CB18B2956318C
:102B000005270599B719280772B153CD0029087216
:102B1000B189A952002A076BB149D56A2B0A2DB198
:102B2000CD280E9951042C075BAF5325002D060CC0
:102B3000B519012E0652B119012F0724B38F6D006C
:102B4000300873B1AB5C1500310773B14BB235324D
:102B50000934B15331C77204330A34B119396924C5
:102B60009302340A34B18DAA1A312700350A34B1E0
:102B7000197A23991400360A34B15379459914000F
:102B8000370A34B11939E6982300380A34B1533181
:102B9000A9289302390A34B15351A69D14003A076B
:102BA0006AB11971043B0833AFB3912A013C076B3A
:102BB000B14D75013D081CB319198D003E076BB16D
:102BC000C955093F0973B16BA60C1300400934B114
:102BD0005351DD4801410934B153518E2903420A52
:102BE00034B15971A4284702430934B1535197496C
:102BF00001440934B159D1391200450934B1197A67
:102C0000E53C02460834B1197AE51A470934B15354
:102C100051A79906480834B189724C33490773B1FA
:102C200059B1354A0834B16FCBA4004B0A34B1898D
:102C30002A4999CA004C0734B1C9DD234D0934B182
:102C400089E38866004E0834B1896BA9334F093493
:102C5000B153D1991400500A34B159518E943300B4
:102C6000510A3CAF53D15C49A300520934B15951C8
:102C70008ED40C530A34B15331655426055407736E
:102C8000B159B10B550834B1899E4901560934B187
:102C900089CE241500570934B189E6386200580AF4
:102CA00034B1893249156500590873B14956590143
:102CB0005A0934B11939B647005B0773B119B139F4
:102CC0005C0924B3C928A38C025D0773B199CD11A7
:102CD0005E0553B96B5F060CB11901600652B989E4
:102CE00001610824B11B51A902620A34B1C97945B6
:102CF000391200630623B19B59640834B1AF46947E
:102D000069650824B153696405660934B1ADCA998F
:102D1000230067092CAF1B31A98C06680834B1C9A0
:102D2000794533690873B1CB4856036A097BAFCD47
:102D3000B05415006B0934B1C95592A90C6C0773D6
:102D4000B1915D036D0824B1496948196E0724B13A
:102D500059D10C6F0824B15351260570092CAF5975
:102D6000518E940171082CAF1B51A61D720824B11D
:102D700059516700730824B11B1A0D05740934B149
:102D8000CB71E68C04750724B189661A760763B1A6
:102D9000495605770724B189721C780824B18949FE
:102DA000AA1879092CAF89329525007A0824B1191F
:102DB000B11C017B0873B14D49D6017C05B1B13915
:102DC0007D0973B1C951C514017E0714B94B2A019D
:102DD000A00500BD01A106B1B14923A20934AF8D00
:102DE00023356702A3082CB155715602A40A2DB1F0
:102DF000C969A6B87200A50973B149AA5A3101A6DA
:102E000006A9B15102A7087BAF9BAA920BA8064B5B
:102E1000BB4901A90B3DAF5B59A5A9924E0BAA0670
:102E20001BB75B49AB071DB38BB201AC0614B319DA
:102E300039AD054BB519AE0B3DAF5B79A439755A69
:102E400000AF060CBB1901B0065BB7EB02B10B3546
:102E5000B1CD280E99511C02B20662B55106B306D7
:102E600062B51969B40652B95300B5082CAF89E6AA
:102E70004819B60834B11B6AF503B70652B51901F3
:102E8000B80652AF5300B90763B54B320DBA061BF3
:102E9000B7EB02BB081DB389A54C00BC093CAFC908
:102EA000CDA87600BD093CAFC92D1DB300BE0A3CBC
:102EB000AF913AAAA87600BF0973B1CB30C55401CF
:102EC000C00934B153518E2903C10934B153518E15
:102ED0002903C20934B153518E2903C30934B153B4
:102EE000518E2903C40A34B18949C5316500C50929
:102EF00034B1932A8E2903C60934B11BA91AAA2515
:102F0000C70A3CAF535197494600C80934B1197AF2
:102F1000E53C02C90934B1197AE53C02CA0934B169
:102F2000197AE53C02CB0934B1197AE53C02CC07A9
:102F300073B159B135CD0773B159B135CE0773B1FE
:102F400059B135CF0773B159B135D00934B1996949
:102F5000758D04D10834B14973A933D20934B15302
:102F6000D1991400D30934B153D1991400D4093440
:102F7000B153D1991400D50934B153D1991400D665
:102F80000A34B1894945332900D70824B18949AAAF
:102F900018D80934B11BE9484702D90834B1899ED1
:102FA0004901DA0834B1899E4901DB0834B1899EB0
:102FB0004901DC0A34B1891945332900DD0873B1B0
:102FC00049565901DE0A34B1C92B8E943300DF090A
:102FD00034B15351955602E00A34B1CB288EA8542F
:102FE00001E10934B1AD4754AA00E20934B1ADD2D0
:102FF000884A15E30A34B14B2A8EA85401E40934F7
:10300000B1ABE1884A15E50934B1937244A50AE6EB
:103010000824B11B69C501E7086BAF9B592500E87F
:103020000A34B1CB28AA34B202E90934B1AD551A39
:103030005901EA0A34B18B29AA34B202EB0A34B13D
:103040004919AB34B202EC0873B1C9495603ED0714
:1030500073B12B6535EE0773B1AB6635EF0873B10D
:1030600049595603F00A34B1CBC88A322900F10914
:1030700034B14B2AAD6806F20A34B1CB28AA2893A2
:1030800002F30934B1AD55944901F40A34B1D3586F
:1030900045991400F50A34B14B2AAA289302F60A7E
:1030A00034B1ABA18A322900F7092CB1D37064A8DE
:1030B00000F80924B11B69A49100F90934B1CBA827
:1030C00034D300FA0734B16D9A69FB0834B1D330B8
:1030D0009A69FC0934B1AB5134D300FD093CAF6DA2
:1030E000CA549600FE0A34AFC92BCA913200FF0AB7
:1030F0003CAFAB5194A92C0100000004FFFF00007D
:10310000BF0002020304030504060A00FE07FE07CF
:10311000000142029207B3200500620721073943EC
:1031200067A80022079B52275901230D3D42AF4C4F
:1031300069A86AA8322500240B3D4237AF7AA7B4AC
:103140002300250B3D422FAAEEAA251300260C3D95
:10315000422FA798729564540127051953672808D0
:10316000BB42379575012908BB42279755092A0AA2
:103170002D4627A76AA876002B0A2D4637A3386468
:1031800046112C079B3E4F95002D060D4E67082ECD
:10319000079B3E2FAD042F0B3D421F6594BB51464C
:1031A00000300A3D4237A7DA4E7504310C3D4237F4
:1031B000CB94514619C521320C3D426FE58CA2CC0F
:1031C000190D01330C3D42676894B3863A2D0034E3
:1031D0000C3D423FCB54A6A1334A00350B3D42E79C
:1031E00046C9CC48A705360B3D4257E68C92A9D379
:1031F00002370C3D4267689433CA35CA00380B3D2C
:10320000426F659D56D66901390C3D426F65A954E0
:1032100046394A003A0ABB3E2FAD0CD34A003B095F
:10322000BB3E2FAD0C55093C0ABC423FB651461976
:10323000053D081D4A676838043E0BBC4227A38C35
:10324000328A6D003F0A3D426FE536CA7404400B76
:103250003D426F65B99295E102410B3D4237A75A55
:103260008F917500420C3D4267C42AA659C5A10042
:10327000430C3D426F658D32CA28A705440D3D427F
:1032800067C42AA698628A4301450C3D42E7461965
:103290008D94514643460D3D42E746198D94514663
:1032A0001901470C3D426F658D328A3B2D0048095C
:1032B0003D4227DB63643B4908BB4267C5AE014A18
:1032C0000C3D4277679451466594004B0B3D422775
:1032D000CB54EA14AB1C4C0E3D4227A38C32CA28B7
:1032E000A38C86004D0A3D4227EBB592B6034E0AE9
:1032F0003D4227EBA992DC3A4F093D426F65EFB49E
:1033000000500D3D4267A4AC87CA28A38C00510A27
:10331000453E6F65AF6AC300520B3D4267A4AC8760
:103320002AAB1C530B3D426F650D37D46901540E17
:103330003D4267C88C32CA28A38C220055083D4202
:1033400027FB4E0B560B3D4227DBA94C31E50857B6
:103350000A3D4227BB924A7700580A3D4227EB5468
:1033600057B50E590C3D4227EB5467945146115AFC
:103370000A3D42676894BBD1105B08BB4267C4CE6C
:10338000015C0D3D4227A30C33CC30C38C025D0899
:10339000BB4267768E005E071D5237A73A5F060D67
:1033A0003E67086006125B2706610A2D426FC33430
:1033B000741A01620C3D4227A38C92A9A7520063A4
:1033C0000A2D426F658D725A00640B3D421F659451
:1033D000CC2D950A650A2D426FE531325C00660CF2
:1033E0003D42575679C48C32CA00670C3D3A6F682B
:1033F0009D46463A2D00680B3D4227A38C92A9EDCD
:10340000006908BB422F23D91A6A0BCC3A3F635D8F
:103410004B9914006B0C3D4227A38CB24CB3CA01EC
:103420006C07BB4247F61A6D0A2D4247B554524904
:10343000076E082D422799DA0E6F092D426F653B02
:103440002D00700C3D3A27997A2A95514600710B50
:103450003D3ACFDC52A98C320A720B2D4227991AC1
:1034600065941100730A2D426F65B8E15000740D28
:103470003D422FA33C624619C5A80075082D42277E
:103480003B950A760A2D4227EB54A61C0177092D9D
:1034900042275B49750178092D4227A7BAAA03790B
:1034A0000B3D3A279B4A65A4D3027A082D4267E870
:1034B000F6107B0BBC42576594348A19097C063997
:1034C00043E7087D0CBC4247A39891CA2849007E77
:1034D000091D522FAA241300A005006207A1073975
:1034E00043270D01A20C3D3E370F15534C79C408FC
:1034F000A30B3D4257567967149502A40A2D422723
:10350000A799E2CA01A50D453E27EB54C72133CA4E
:103510002802A6063943670DA70B453E6F65343B6D
:10352000374A0BA8068B5E2705A90C3D426F6595AF
:10353000A64A3A2D00AA0AB4466F44A56A3402ABE3
:103540000B2E42B78A29E6986300AC07944A67E4D9
:1035500000AD068C4E6704AE0B3D426FE591E6D49C
:103560006901AF060D5E6708B0069B52AF0BB10B49
:10357000354237A33864467108B208AC4E4FC5E6F1
:1035800008B30AAC4E67A3A4D14800B406125B4F3F
:1035900001B50A353E27DB53A98C00B60E3D426FBC
:1035A0008C34525231C5145300B705094F27B80661
:1035B000123B4F01B907AB4E2FC96ABA0AB4464F46
:1035C0004599341C01BB0C2E4227E698638A294694
:1035D00000BC104E3E2F230D33CC6866A4531C193B
:1035E00006BD104E3E2F230D33CC686554C38C327C
:1035F0001ABE0E4D3E47C39C619459A634320ABF91
:103600000A3D4237D319E5D602C00C45422FC3BC50
:10361000B21E23EB00C10B4542BF5E598F9175006E
:10362000C20C454237A7B8B21E23EB00C30C45427B
:103630002F2AB9B21E23EB00C40B4542AFA656D6C3
:1036400063641DC50C454237A7B8B21E23EB00C604
:103650000B3E4277A4B239466C0EC70D4D3A6F65EA
:103660008D32CA28A75D03C80E45422F8F8D321AAE
:1036700029A38C8600C90E45423F8D8D321A29A39D
:103680008C8600CA0E4542378E8D321A29A38C864D
:1036900000CB0E4542AF1A1B65345246190D01CCC2
:1036A00009C34227A7155B03CD09C34237A5155BA4
:1036B00003CE09C342AF1A29B606CF09C34227E594
:1036C000155B03D00D3D4267C42A8E54A638140002
:1036D000D10B454237754F95E4D601D20B45422FA9
:1036E000C3BCB23B2D00D30A4542BF5ED99D160034
:1036F000D40B454237A7B8B23B2D00D50A45423717
:10370000355776A705D60A4542AFA65676A705D700
:10371000092D4227A7BAAA03D80B3D426FC52BCD6E
:10372000991600D90A45422FC3DA3B2D00DA094524
:1037300042BFCCDE6901DB0B454237A78CB33B2D82
:1037400000DC0A4542AFC6D93B2D00DD0C4542BF27
:10375000CC3AD519651401DE0E3D4227A391F250F3
:103760001965941100DF0B3D426F6599CA2A2B053C
:10377000E00C45422FC34C6E98864E23E10B454228
:10378000BF26374C43A711E20C454237A74C6D9832
:10379000864E23E30C454237B5A90DD3D06904E426
:1037A0000B3D42AFA6364C43A711E50C454237A767
:1037B0009C374C43A711E60B2E426F64548D9987BA
:1037C00000E70B3D3A6F658D72DA3500E80C454233
:1037D0002FC34CAE3C46860BE90B4542BF26571E15
:1037E00023C305EA0C454237A74CAD3C46860BEB9C
:1037F0000B3D42AFA6561E23C305EC09C342276703
:10380000245B03ED08C342AF86B235EE08C342AF76
:103810002D5B03EF08BB422765D91AF00B3D4247E9
:1038200043B9B29D1600F10A454237B57132B51D54
:10383000F20B45422FC34CAE6CA705F30A4542BFBD
:103840002657B6D302F40B454237A74CAD6CA705FB
:10385000F50B454237B5A995EDB400F60A3D42AFE8
:10386000A656B6D302F7092D463753435311F80A2B
:103870002D426FC895E65000F90B45422FC34C65A9
:10388000A75201FA0A4542BFA6B253A900FB0B4555
:103890004237A78CB353A900FC0A3D42AFC6D9A951
:1038A0005400FD0C4D3ABFCCA65219E9B400FE0DF0
:1038B000453A27A391B23D54461901FF0D4D3AAF49
:1038C000C6D9542A239D160000000004FFFF000003
:1038D0003F0003020505040506101000FE0AFE0B5A
:1038E000FF019B033304FF200600A047012108418C
:1038F0003144714804220885284691B905230F46B2
:103900002544D5D3302451CB30443D0124124725E2
:1039100044170E4A1449E13C465265103300251401
:10392000472544A34949298994344E132989929201
:10393000A6002612472544B595B24A2826919688B6
:1039400049264D0127078130463104280C83ED4379
:10395000954449D45B9405290D83E943914559D495
:103960004B9444002A0DE7644457AAB46D49532D83
:10397000032B0CE7644417D786218B6B002C09823C
:10398000AC43A1240A002D0724284531042E074208
:103990002C4431042F0C4625445BAC8669584D01FC
:1039A0003012462544A54549A84D89126D6212651D
:1039B0001200310B452944954949D8A741320F4699
:1039C00025443324A198665A584D87013310462563
:1039D000443324A19846732A8AC99000341046259E
:1039E00044196A4954C9922C19C6B402350F4625A8
:1039F000447148AB839CA662322400360F462544AE
:103A00003585693A28A163322400370B4625447175
:103A10002DA6C5B40938104625443324A131199286
:103A2000D031191200390E4625443324A13119D45E
:103A3000C668023A09E26C4431C443003B0A22EDF5
:103A40004331C44AA2003C092529449975ED003D43
:103A500009A6A44471270E033E092525449176EB5F
:103A6000083F0F4625443324A19886D51C4C2300DB
:103A70004012462544356552A2244BA4444A242DC5
:103A8000F110410E462544A5452DA1380CA2630036
:103A9000420E4625443128A1715842C76101430EA8
:103AA0004625443324A1B5A3980C0900440E4625AD
:103AB0004431445912FA2D192200450D462544710E
:103AC00048AB8392B60E03460C4625447148AB833F
:103AD000927605470E4625443324A1B534843665D5
:103AE00009480B462544113A0E83E831490B452914
:103AF000443148613F0D024A0E4725443588714FD5
:103B00005994651B004B11462544116A4954C94418
:103B100031C9A25A12064C0946254491F6D7614D87
:103B20000D462544118AD3102D1E1D034E10462527
:103B300044116E9B122991944889760C4F0C4625AE
:103B4000443324A13F264302500D4625443128A189
:103B50007158D2AE00511667E543334461122661B5
:103B60001226611226899248D2900B5210462544A3
:103B70003128A17158A25A9225A118530D46254407
:103B80003324A1D9514C8604540A47254471C8E214
:103B9000FE06550B46254411FAC7644800561147E6
:103BA0002544915A932CCAA2AC1226699C01570D48
:103BB000462544117A719986681403580F462544A6
:103BC000118A49D4266A514B2806590E472544913B
:103BD000AA4916659534EE065A0B462544712DF612
:103BE0009A0E035B0A83F1433144FDD3005C0C461B
:103BF000254491C6D5388DAB015D0A83E54331F587
:103C00004F43005E09666446A54549185F0727E4EF
:103C1000437108600763A8469115610E0625443379
:103C200024619A0CA34D5902620E66254491B62C6C
:103C30009AE8B8290B00630D0625443324A1DA3134
:103C4000191200640C662544DBB268A33765096568
:103C50000F0625443324A1380C6A31191200660C72
:103C60006525442785A5410A7B02671366A5439B0A
:103C70002C5A922559B4A543128AC99000680C6643
:103C8000254491B62C9AE86300690B65294415E632
:103C900088D8A7416A0CA5A5435947C43E4A910458
:103CA0006B1166254491B625512513932CAA2561E5
:103CB000006C0A65294423F64F83006D12072544E2
:103CC000B12851244552244552244552016E0B0619
:103CD0002544912C9AE863006F0C0625443324A1F7
:103CE0008FC99000700E46A543912C9AE8B8294BD5
:103CF0009A02710C46A543B368A33765490B720B52
:103D0000062544912C9AA87605730D062544332484
:103D1000A1EC980C0900740B45254415960629EC76
:103D20002A750A06254411FA4D5902760C062544D7
:103D3000111A93A83751027711072544914A91141B
:103D4000499114499154B100780F062544118A49CC
:103D500094895A94846200790E46A543117A4C22C4
:103D60004B5A1912007A0A062544710D7B1D067BF9
:103D70000EA4A943A5646116156B51160A7C07C1F0
:103D8000B143F1417D0FA4A94321665116966A61A2
:103D90009648007E0A672446A34991A6007F231017
:103DA000A28391F43B49E7A4930E493625611A2575
:103DB00043924D49984E4332EC9C744E3A29E907A0
:103DC000802410A28391F43B49E7A4933669999229
:103DD0002889A243120D619444C52859744E3A278C
:103DE0009D94F4030000001053430E565E740E7150
:103DF0006CE80FE7FFFF201307262445714E0008EB
:103E00002FA085F1034E031DEEE1839DC3399CC3B2
:103E1000399CC3D9900EE2A0E4700EE7700EF77DD6
:103E200018024E0720CFA183F16B8EE7788E0F43E7
:103E30008EA43992E6711ED7E33CCD91304EC21C60
:103E400049014E09118F2184333CE4FC7D38E8FCA4
:103E5000F7E1034E0A1FEFE1839DE3399EE3399EAC
:103E6000E3393E0C3992E3399EE3399EE3399E23D0
:103E7000C3074E0B21EFA183F1738EE7788EE778AD
:103E80009483598E853994E6489A23399EE3399E66
:103E9000E339024E0D23EEA183333CE4480EE7687C
:103EA0000EE7A89243499447599A85599826692A5A
:103EB000E7700EE7700C4E0E230EA28397C3399C59
:103EC000C3C341CBD11CCEE1E1A0C3399CC3C970AF
:103ED00088723887732CC9D10C4E1626EFE1839D6A
:103EE000E5519647591E65799485C3B728CBA32C15
:103EF0008FB23CCAF268D0733CC7737C3828004E3E
:103F00001A24EFE1839BE5581DAB63E5AC53D694CF
:103F1000456992456992257192E950966375AC8E18
:103F200055870F4E1C200DA6839BA3399A0F0F6156
:103F30000E463992E5613E1CF41C6ACD1A2B69319C
:103F4000C9C11C4E2427EFA183F16B966375AC3C6D
:103F50003C445953D69435559A5A4A499464952805
:103F60008CA31C8C722889722C024E2A200FA283EB
:103F70009FE3399CE4609643695E0D4B6AAAE7783B
:103F80008EE7788EE7788EE7780E4E2D1E0BAA838B
:103F90009B63399663E9F0188AA1188AA1180E0F5D
:103FA0006135C7722CC752004E3A240DA2835FCCF4
:103FB000912C47B21C8D87E7344EE3244BB328CDB8
:103FC000A230CF7224CAA1244FEA50044E3B1FEF07
:103FD000E1839D5372A6E12147723CC7733C8786FB
:103FE000830EE5788EE7788EE7C3074E481DEDE532
:103FF000839DA33998A33998E5611CC6693B9883D2
:10400000E5628E44C3530E054E4B1EEEE5839BE3E3
:10401000399CD387773447733447733447733407F5
:104020007530CAA170384E5D260FA2839BE3399E7E
:10403000E339361C7228CCA13087C21C497324CDC9
:1040400091348FB37216E5599243834E4E5F25EF3C
:10405000E1839FE33956C74A72B6C4C9964E59A642
:1040600064E5AC9C25E52CCAB338CBB13A160E07F3
:10407000014E66210EA2839DE55098236936DCA18E
:104080002C87B21CCA7228CB8607B97F4BF2304707
:1040900072004E861EECA583F11DCBB11CCB211DF9
:1040A000CBC11CCCC11CCCC11CCCC11C4A722C067F
:1040B0004E8B250FA2839FE3F9F03D878683D83886
:1040C0001C74288786830E85D1F03D0C87830EE50E
:1040D0006892C339024E8C0E4F6184351C74FEFF0A
:1040E0006DF8004E8E20EFA183351C7428C7733CF9
:1040F000C7F3E17B8EE7788EE7788EE7788E2639F6
:104100009C23004E911DEFA183351C74FE3C7CCE98
:10411000E11CCFE13047E23A120E8F3994E31100EF
:104120004E921DCFE183333CC4399EE3393C0C7A77
:104130009CC7F5B83E0C3A9EC3399E0E1F4E942183
:10414000CFE183333CE4399EE3399E63C32147D2F8
:104150001C497324CD91348FF3388FB3E1034E9B08
:1041600024EFE1839BE5583DCA9A96288CB235CA64
:10417000C2A81646C99084833C2839B7E1CE797825
:1041800048004EA4220FA2839D53723C1FBE13F31E
:104190003847C23C6A8DE22C07931CCEE124C7B499
:1041A0005CD6746C4EA7220FA2839D53726478C8AC
:1041B000C9690E853994E5C34394E3399EE3399E7A
:1041C000C3399EC339014EAC1F0FA2839D53F2E148
:1041D0003BD7E19CC7799CC7C31DCBB1E62C6C8D46
:1041E000B224CD73044EB2240FA2839D537268385B
:1041F000E8F43487B274F89EE339323CE4480E4662
:10420000F5AC1AD62A699E23004EBA230FA2839FCB
:10421000E3399EE3399EE3399CE4689283598ED555
:10422000A13447D2BC9A43590E26391C4EC0230FE5
:10423000A28399E6489A23691EE7712CC7CA704881
:10424000CA6114E7711EE7711EE7711EE771084E1F
:10425000CE2C0FA28399E6489A23698EA43992E660
:10426000489A23698EA4391226719225715489A324
:10427000240BD32CAC46619C8439124ED62D0FA250
:10428000835987C21C4AA21C892A6A1429A194480E
:10429000A1A444593244FD1AB54615352A66519EEB
:1042A0004579960D839683004EE3280FA2839945A6
:1042B0007956CEAA610E85C92029832EE6495A4A2D
:1042C0007324CD91388FB37A94E5482D87B41C0BB5
:1042D0004EE5240DAA830FC56956CCC2AC98D59182
:1042E0002C47B23CCCC33C8CB23409934CCCA230AA
:1042F000AD6739124EEA280FA28399E55818C549CF
:10430000548DD2521A6A55AD98644D619287499E78
:10431000E6489A23619267E528ADE4024EEC2C0E44
:10432000A28319E5581DCA92218BE22C8A23298E7B
:10433000A43829C552398BE22C8AB328CEA2388BF7
:10434000E22C0A932C4A13004EF6270FA28399E61B
:10435000489A23513D8BF26C1832298BA52C4D8A3B
:10436000A5384F864316E7711EE7711EE771084EA8
:10437000F7270FA2835987C21CCA923C4CF2AC2A81
:10438000A5A1922BB5A6AC9C95B37256CECA511876
:1043900047619CA419004EFD2D0FA28319E7599483
:1043A00067511C666916865A9A4971945486450A63
:1043B000B334CCD2304BC32CCDC2340BD3284BD228
:1043C00024CD004F0122EFE1839FE3399CE4609606
:1043D0004369AC65929AEA3956C7B261CD72AC8E28
:1043E000D5B1FAF0014F182C0FA28399457956CE1A
:1043F000AA610E25C3211293584CD2244CC2284CDA
:10440000F230C9B328CFA2AC292B654DE1902539F4
:10441000044F1A230FA2839FE3399CE460964369FB
:10442000AC4BD230443AB7E121CFE11C4EF3EA70F5
:10443000507324024F202A0FA2835987C21C0A738B
:10444000241A86B42EE688321C92621C6539160D39
:10445000439A2369560E933CCD91388F43004F46C3
:104460002C0FA28399E3399E0C8318C561146752FF
:104470009C49C32025519C44E5308AC36818C42850
:104480000E733CC793E190E520004F4D260FA283A9
:1044900099E5589843618EE47832DC745847B22429
:1044A0004AA3D65A392B67E52CCAE37C78CB410066
:1044B0004F532A0FA2835987C21C0A7324CD9164DB
:1044C000B8A9B9B826E1186549394BCA516B920CA5
:1044D0004A28D6D21C4973244D014F5C2D0FA2836C
:1044E00019E5609483518E65C3A045498E48498E75
:1044F00028519E848354CCA13087C21C0A87B10EF8
:10450000853914E65018034F602B0FA28399E558A4
:104510001DAB43D93068E5488A33254C93388CB2BB
:104520002849B3A818655118652D6156CEC3244F8C
:1045300053004F7F280FA28397E6489A23C3539CCA
:10454000C7B1349CA4AC52CA9A865B9C67511E26A4
:10455000799A23619267999AC8034FBF290FA28362
:1045600097E3C970C8D23C1A6E515692B292345C2D
:104570004A5953D634DC4A7998E4698E84499E6559
:104580006A220F4FDD280FA28399E3C930C4495A2C
:104590004A4B69280D43A8C6495A4A8663B86749F9
:1045A000396A4DB2A2584B73244D014FE12B0FA233
:1045B000835987D21C49865B8EE7B0360C998E26CC
:1045C000391865C310E6788E67C310666998A561CF
:1045D000360C61962600505A330FA283178571144A
:1045E000C6519826831267D9A068511669A5A432CE
:1045F0002851966449942559524CB2A49864519A12
:104600000C4A31499330CEAA0550A82F0FA2831728
:10461000E771AE0D4A548CB2284C327118143D4CDF
:10462000862C8FA2618B925A49CA4AD9A04549ADBE
:104630002465A56CD0E22C0150CF2F0FA28319E581
:104640006034E8491827C351C9A24CAA65D2304842
:1046500049184759928589D29A45722229699854F6
:10466000B3A89828B56A0A513F290FA2835987C277
:104670001C0A7328CCA13087C21C0A7328CCA13035
:1046800087C21C0A73240DB3348CE230C9916127B0
:10469000514320EFA183351C74BE0E5FB31CAB6386
:1046A00075AC0E853914D6D2308AC32447869D0056
:1046B0005145240FA2839D53F2E16B8EE7709A5708
:1046C00087839E4579966375AC0E85591A66619A03
:1046D00045FA90005146290EA68399E55096664DFD
:1046E000B5284CB2244DB21CCA742D49932CCAA2D1
:1046F000AC92D591B01696D230C9871D0651482488
:104700000FA2839F6375AC8E0D87B08EA4399E0F68
:104710005FB31CAB637528CCA1B09686513E0C39B3
:104720000C5149230FA2839F4361350BE328CBA390
:104730003A980F5FB31CAB6375AC0E85BDA5619451
:104740000F430E03514B260FA2839FE3F9F03DC7A1
:10475000736838883914E6509843E170D0B31CABC5
:1047600043618EA46114873B32085165240FA283F4
:104770009B53724A8EE7780E27399AE468928359E0
:104780008ED5A13447D2BC9A23618E45392A51680F
:1047900024EFE1839FE3399CE4609643695E4D8694
:1047A0002189D454CFF11C1BEE588EE7788E0C0F64
:1047B0000900516B25EEA5838FE4509643590E6591
:1047C0003994E5509643619EE6691EA7799A23596C
:1047D0000E653996E46800516C24EFE1838FE46044
:1047E0009483518E853914E6485C47C26A94C66A40
:1047F0008E673994E6713C1CE23C035173220FA290
:10480000839797F334A70F071DCAF11CCF87EF39A1
:104810009CE4689283590EA5B12EE9A0005176263A
:104820000FA28399E6489A0E0F691D4973641872A6
:1048300024CD913447862147D21C49C3E13BB55E64
:10484000CDA1085185240DA6839DA3391A0F0F6AA7
:10485000AAA66A2A26A118655A184971A2E4890EE7
:10486000EAA00E253A9600518C25EFA183374443E8
:104870001AB546AD516BD41A350DDFA2D6A8356AEC
:104880008D5AA3D628C9C248694BB30C518D20EF6D
:10489000A183F17B8EE7D07010FB381CC43E0D9FC6
:1048A0007228CCA13087C23C09732403519B22EFAC
:1048B000A183333C2839AAC6798E0D073D87A31CF6
:1048C000AB43C34187723C1FBEE7788EE70051E0DF
:1048D00027EFA183390C3992E6489A23698EA439CF
:1048E00092E6489A23698EA4799CC7599467519E91
:1048F000253934E80451FA1F0DA6839DA379580A7F
:104900004B61292C0D073DCC73344E53355553352F
:104910001D1E743451FB1E0FA2839FE3399E43C3B7
:104920004187723CC7F3E17B8EE750D8FF381C7497
:104930003C025206270FA2830FE5581D0B7324CDAE
:10494000AB3994E560120D8396863914E6509823AE
:10495000698EA4795C4CE232005207260EA283973E
:10496000C3399C0D439666D52C1BA26C50B36A5676
:10497000CD4AB54A56D3C22CACA77196C46904522D
:1049800020390FA2838F2743328449944461122532
:1049900051A59444955212554A4954195E9A92A8C9
:1049A000524AA24A29892AA524AA9492284C12255F
:1049B0000AC5A494845998005229290EA2839FA65F
:1049C00043980C7A1A466918A561341C922814A3DE
:1049D0002CD1A22C29F512354649968B795A49E3F8
:1049E00004522B2A0EA2830F27C3902669258D2AF5
:1049F00069541986A81647591C0DA75AA956AA9595
:104A00001AD3284C93280913314E0052302C0EA291
:104A1000830F0F87B08E6471542B2569140D872482
:104A20000AB3240AD3284CA36418A2621A85391247
:104A30000EE23027752C0152362A0EA2839B47F5D1
:104A4000A81E0D4312255918A561343CA561948612
:104A500051340C49D425EA12959430AAA42D699CAE
:104A6000005237320FA2838F47C320467118C561A9
:104A7000340C4A540BA35A18D5C2281A06254A4AA0
:104A800095282955A2A45489A44809B32849E33498
:104A9000892B00524D280FA2839797F3341CBED365
:104AA0000635CCA262161507A99845C52C2A0E52C8
:104AB000314BC32C0D935A12466906526A240FA239
:104AC000839986C377DAA08659541CA46216150709
:104AD000A998A56124EAC4E13DAEA795500F015203
:104AE0009B1C0CA6839B83399883F1F0DA1FE3307B
:104AF000CEF22C8FC22C89933A120152A0270EA21B
:104B00008397C3399CC3E9F094956AA55AA956AA1C
:104B1000956AA55AA91665511665D1A0444994898C
:104B2000390252A1240FA2839BE3393C0CB21A47ED
:104B3000910EEAA0A44B9931DD863B14E6489A23F6
:104B4000691E1793B80A52A82D0EA2830FE5703A7A
:104B500068399C83C39043D93048591467519C45A8
:104B600069984459986451380C499A64491A6749BC
:104B70009C460052B3250FA28399E6481A0E1FD314
:104B80009C3C3C2861AEC6D970C8A13087C21C4984
:104B90007324CDE362125701530524EEE18399C3D8
:104BA000393A5CF33047B264981AA3348CD2304A55
:104BB0008729ADA4711DCA72281C0E015316290F36
:104BC000A28399E5581D2BB6A561948A492CCA4940
:104BD0001847990E5572288972284CB330CDC234CB
:104BE0004B872D07015317290FA2839BE5581DAB57
:104BF00063CD59940D5A9223990E653956C7EA58D8
:104C00001D2B665B3844599864E1A0E610005341BF
:104C10001E0FA2839FE3399EE3399EE3F9F03DC75F
:104C2000733CC7733CC7733CC7733C075343200FA7
:104C3000A2830FE6E0200E3B9EE3399EE3F9F03DB0
:104C4000C7733CC7733CC7733CC77300534E220FF6
:104C5000A28399E5586B18A5E29A6472942861AF13
:104C60008398E5783E7CCFF11CCFF11CCF015355E2
:104C70001E0FA28397577328CB8783D8C7E120F6EE
:104C80007138E8508EE7C3F71CCFF11C5357260F3D
:104C9000A2839FE3F9F03DC773647888AA51AD29D8
:104CA0001A86A85A4A4BC97089D2525A4AB324CAA2
:104CB000B108535A290FA2831527691C85C9709022
:104CC000E23C1A2EC3D634DCA2AC69B845593B1479
:104CD00026C341CAD2B0A724CC910C5361240FA2A1
:104CE000839DE3393E0C3992E3399E23C3E71CCF01
:104CF000F12807B31C0B7328CD911CCFF11C015375
:104D00007022EDA583A90FD930C4A11CCAE13024BB
:104D1000A11CCAA11CCAA1B4B48C510EE5688EA610
:104D2000005374270EA28399C3391C0ECA3024592C
:104D3000580B6B616D3868D5AC9A45B54A1825C9D2
:104D40007089AA490EE77008539F28EFA183353C6C
:104D500044698E8439140D431AA5A5B4340C6994A2
:104D600096D2D230A475246A8CB29628099338075B
:104D700053BB210FA2839FE3399E43C34187723CFB
:104D8000C7733C1F3EE7780EE7709A5787838E47BC
:104D90000053C823EFA183351CE23CCEE33A92E6F0
:104DA000489A43598ED5C124877338C9C12C87D2FC
:104DB0005897745053CC27CFA183711986380AA312
:104DC0002C0AA32C0AB3242B2659B512A7499AA45E
:104DD0007192D62A611665519CE60553CD260FA225
:104DE000830FE6E0200E3B94E3393E1CC4280EA35B
:104DF000B416A659394CF2344F9338CCC24C1575C1
:104E00004853D1230EA6839D4359350BB33A343C06
:104E1000E7680E0F839AA4A5B0560D93344EE32491
:104E20008734711753D629EFA183F18E64C9B095E9
:104E3000B26C90B2A6AC29CB0629EB126695301A5B
:104E400092D2A084DDA12CC99128CB933453D729C9
:104E50000FA2838FE6E0A00D439666619C45E1F0CA
:104E6000A0E4A88E66C3214F7328CBC12487735456
:104E7000D11155DBA10153E31AABE983F11DD22116
:104E80001DD2211DD2211DD2211DD2A1E1218702D7
:104E900053E41F0FA2839FE3399EE3F9F03DC773EC
:104EA0003CC786731EE7711EE7711E0FE73C035374
:104EB000EA1EEDA583351CF3300FF3300FF3300FEE
:104EC00087639E13D3B89823518EE9600053EF2176
:104ED000EEA583F141C772381DB434AB66D5AC9AE8
:104EE00055B3EAA0A5591DCEE11C4C72340453F011
:104EF000210DA6839BA3399883693DCBA164784893
:104F0000722CA70CC73CCCC33CCCC3E198470053E0
:104F1000F71FEFA183379CF3388FF378B813878F8F
:104F2000399CE3C31DCFF11CCFC12487530053F834
:104F300026ECA583331C7430078783928339180DC0
:104F40005B146651984561168559346C5198E5504B
:104F5000926309005404250FA2839BE3393C0C396A
:104F600092E6499667499EE6A8A223AAB643DB705B
:104F7000CEE33CCEE3E19C67005408210FA2839F5F
:104F8000E3399CE460964369AC4BD230443AD7E1B4
:104F90009CC7799CC7793C9CF30C540C25ECA983E5
:104FA000F121C7744C190645C7744C1A26298CA4E4
:104FB0003092C2481A26298C744C47121D4A00545C
:104FC0000D230DA2839DA339380C691C2661A645CB
:104FD0003994E4608EE9D0F090E4611EE6611E0E23
:104FE000C73C540E260FA2830FE6E0A00E3A96E3CC
:104FF000393EBCE5788EE778320C6A1287511C4640
:1050000071568EC261D0E3085411230DA6839B8391
:10501000399843C3830EEAA036685A4DAB6935AD63
:10502000A60D9A56D3411D4A742C01542726CEE56D
:10503000833B0CD190445DA22E5197A84BD46518A8
:10504000A24A1A5572644872244AF2344FF378180F
:1050500004544A1F0FA2839F6375AC8E0D87B08ED8
:10506000A4399E0FDFB90EE73CCEE33C1ECE790695
:10507000545820EDA583351CF3300F873B69384821
:1050800039542C85A5B01496B2444A437BA26301DF
:10509000548C280EA2839BA33B32E4703888B5E180
:1050A0009285B54CCCB2AD9494B22829654914666A
:1050B0005A3888B53087730854C11EEDA583351C56
:1050C000F3300FF3300F873BFBA00D5B4DAB693521
:1050D000AD366CC3D60054CD2E0DA6838FE4683850
:1050E0006469940CA7249692584A92219192522274
:1050F00025A5444A4AC9A09412294986248DD3384B
:105100000D93B402552E290EA28319E5581D1A0ECF
:1051100059980F072909D3683884756438E8B4E1D1
:1051200010E6489823618E84C321CC91045546270C
:105130000DA6839BC3F1F090A579960E072987DA17
:10514000A24A9A44CAA048B5A82D2A0D521DAA27E2
:10515000518E4400566829EFA18335488356CA9A78
:10516000B26C90061D897230CB86CF498E997549F5
:1051700007A5411AB452D694658334280056DB1D26
:10518000ADE583F141AB6935ADA6D5B49A1466524D
:105190003A2839B4633A387C070356DE21CCE983D8
:1051A000F121C7744C1A26298CA43092C2480A23D4
:1051B000298CA461D2311D1B1E742C56E022EDA552
:1051C00083F14107D5544DD554192E6A2A26A118CA
:1051D000655A184971A2E4890E0EDFC10056FD22FE
:1051E000EDA583F141077550192E6AAAA6D2304465
:1051F0006AAA26991A45CA70D1411D1CBE83015660
:10520000FE21EDA583F1418CC5581B265BA64449C0
:10521000A8A69AA20DEA20AA72A8C9AA387C0703F8
:105220005728270FA2839DE3399C43C3C71C0F73E4
:1052300024CDD53849864B94E6489A23698EA43903
:1052400092E6C8F096830057302EEFE18317E7719E
:105250001EE759946751A20C4BA484592285D112A0
:10526000855954CC2225CCA2245DA26C08A32C49DC
:10527000E31C198600573A290EA28395C3D930E65C
:10528000695C4D072947B26190C2A8316A8CDA4A3D
:10529000D11265439455A22CCCA3240F2300573E72
:1052A0002D0FA28397E3C930A8599866E5AC362C38
:1052B000519E454398A56196865192A54392455BC0
:1052C0009484599843599267754415574028EFE1E3
:1052D0008317E7711EE759946751382C519E454357
:1052E00098457916E559946751BE44E118A5A51C67
:1052F0001A0E01575B24EFE18397E3399E0D439823
:10530000E33938EC6834DCE23CCED31C497364CA20
:10531000A2318DC2E11E07578329EFE18317E650C2
:105320009A23698EE478340CCAB0A3399266619AE4
:10533000856918C561144FB53549732487864300C4
:1053400057DF300FA2839523B51C89EA481A0D87D1
:105350002847B2414EB321896A5112D5A224AA45E9
:10536000492D1B92DA1EAD4BDBA6C459A443610044
:1053700058992D0FA28315E7711E0DB738CFA2D211
:105380002025D5683844399E0D4398A561962CE1B7
:10539000D2694B962C4C73641872248D0058F01F00
:1053A0000FA2839FE3F9F03D4786879C381CC43EDB
:1053B0000E0731C7733C87733C87730258F3260F7F
:1053C000A2839FE339323CE4488EE7D870A70E0FE2
:1053D0004A8EEA683A0C3992E6489AC75994673B74
:1053E000340459042D0FA28397E6489A23698E0C42
:1053F000518E44919C45499A45B524AA2551921550
:10540000932C87C21C0A73A496673A120F834E59D5
:1054100007230FA2839BE3393C0CB29A4A590EEE44
:10542000D07687B6E19C95B3F270CECA597938E749
:105430001900590D240FA28397E3393E1CB41C4E6A
:10544000865B94C7C3398F873B92C3C320ABA994B3
:10545000E5E00E6D77685916240EA28397E6699EE3
:10546000E6693C48711689A5240BA34A296BC98AB1
:105470007524CCD3B89A87391202591A210CA68305
:105480009B8339360C619A8D7994434A2C85DBB025
:10549000D6D448CA72A40EE9F30E015927210FA2EF
:1054A000839FE3399EE3399E0FDF733C87931C4D46
:1054B0007230CBB13A94E6D51C8A7450592922EF48
:1054C000A183351C7428C7733CC7F3E17B0E2739D1
:1054D0009AE46096637528CDAB3914E9A00059347D
:1054E000250FA2838FE4788ED5C12847A23A14E60F
:1054F0005098E3F1F03DC7931CCC7228CD8B3A94C1
:10550000E860025939230FA2839FE3399E23C343E6
:105510008EE4587B5407F3E17B0E27399AE46096BA
:105520004369AC4B3A285973240FA2839DE3399EFB
:10553000E3399C43C3D73047D21C49F33447C41CDA
:1055400053725807255D0E752802597931EFE183B2
:1055500017E7711EE759140E4B946851122959949C
:105560002452160D49944549D49392255125CDA234
:105570002C4AA25A9225B1180D4300597D280FA23A
:105580008397E3E130E6509823D1B096C2380AE31E
:10559000281906A99846699CA4795C496B615392C5
:1055A000C329005982290EA28397C3399CC3E9F00D
:1055B0009445599445599445599425619445B59617
:1055C000AC58AB64A52C1A9430CA74185B501FEF0A
:1055D000A18333BCC3399CC339AAC3F9F03DC77357
:1055E0003CC7733CC77334C9E11C015B57230FA24E
:1055F000839D5372647850725447C361D0E11CCECE
:10560000E17CF89EE3399EE3399AE4708E005B58A2
:10561000280FA2839BE339347CCCF11C8E8621CDEC
:1056200053394DD252321CB23447D21C497324CD67
:10563000912CC99130065B66240FA28395A5B530E5
:10564000CDEA703A3C2839AAA3E130E8708ECAC38B
:10565000F71CCFF11C4D723847005B8322EFE183CA
:105660009D5372647850725447EB7839D5A31DDA94
:10567000D11CCF913447D21C89870B005B89260F40
:10568000A2839D53726878CBB1284C7324C773648E
:10569000F81AE6489A8B3926E5A88E463AA2863B48
:1056A00012015B8C240FA2839D5372647850725454
:1056B00047C3E1CE797888B31CAB637528CCD23070
:1056C0000BD32CD287045B9A260FA2839D5372645E
:1056D000785072544773E270D0A11CCFB13A960D46
:1056E0006B966375288972241B0E3A015B9D23EF2C
:1056F000E1839D537264785072544773DAF09023BB
:10570000399EE339341C7428C7A31CCCB2E1035B77
:105710009E260FA2839D537264785072542BC651FB
:105720000E463914E6581D2B0FDF931CCC72288DC2
:10573000F54CC712005BA2230FA2839D53726478BD
:10574000507254CB917418E4162D077768BB43DB75
:1057500070CEE33C1ECE79065BA422EFE1839D531D
:1057600072647850725447B3E1A0E7709A0F77AC37
:105770008EE5D070D0A11CCF870F5BB6290FA28316
:105780009D5372647850725447A3E121CF5125CCC8
:10579000362987923A22C99B92434AA46AE1A025FE
:1057A000399C035BBD260FA2839D537264785072AF
:1057B00054CC6AC341CF72A6E19CC759392B4749E3
:1057C0009423519A69E9100F035BF9270EA6838F82
:1057D000E5700E67C39823C930A46129AD44E53054
:1057E00089C3244DD252580BB31CCAC1244743006D
:1057F0005C062C0FA28399E55836C8519845499804
:1058000026591227610E65519E68B19C26C9709079
:10581000E23CCAF22CCAE33C4CF234045C0F230F86
:10582000A2839FE3399EE3399E63CD59986669163A
:10583000A6591827692CD7733C47931CCE11005CDE
:1058400011230DA6839DA3399A43CD511666615647
:105850004DC22C51B31C89723007733007734C470B
:10586000760C5C312F0FA28315E7489A64C310D5DC
:10587000C12807E341190625AB845925CC2AE1A0AC
:105880002571188549A91655A25A53520BA72C47C2
:10589000005C4027EEA183351CB41CCA72281B0E85
:1058A0005A0EE7F0F0946351344C8D51639464C305
:1058B00094E4A00E25391A015C4F24EEA183351C17
:1058C000B41CCA72281B0E5A94865935196EAD59EC
:1058D0007578CA8AB5300BB3B09E66005C5E27EE61
:1058E000A183353CE558343CE57032DCD23C196E7E
:1058F00049D632DCD27C78294649CB3024529E648A
:105900003992005C711DEBE9839B633996636918DA
:105910008AA1188AA1188AA1188AA1180EEF580026
:105920005DE51A8F2184333CE4488EE7788EE77872
:105930008EE7788EE7788EE7C3075DF11ECCE983AA
:10594000F19083399883399883D1708872300773C6
:1059500030C7744CC792E1205DF220CCE983F1900E
:1059600083399883518E4439120D87280773300785
:10597000734CC7742C190E025E02220DA6839BC3C2
:1059800039757888733447F3E12085A5B01496C241
:105990005218255198E5488EC6005E082A0EA68347
:1059A00097C3C97088D2304AC3280DA3681892A83B
:1059B0004BD425EA1275893A4691929592304EF36E
:1059C000304742005E16250EA68315F7388895E20B
:1059D000B0142BC54AB1521986A46BD235499634FE
:1059E000AB66D52C1B86AC9A005E26250FA28319C8
:1059F000D591A83A3CA4511D89EAE4E141496339B3
:105A00000D877356CECA5952CEA21CCCF11C5E38FB
:105A1000270FA2839F63ED5175785072541B86281F
:105A2000AD23698E0C430EE6D870CECA59394BCAE5
:105A300059948339005E55260FA2839BC5C3439CAE
:105A4000E5C870CEE3E19CC7C31DC9A1E15BEB7063
:105A50009094ACA255CA59948339005E721EEFA18E
:105A600083351C7428C7733CC7733C1FBEE7788E10
:105A7000E7788EE7788EE7780E5E7320EFA18333A8
:105A80003CE4488EE7587B94E5511DCC87EF399E66
:105A9000E3399EE3399EE339005E74240FA28397B5
:105AA000E3393E1CB43447D23CCEA1E19086391490
:105AB000E650180FDF911CCFF11CCFF1185E762253
:105AC0000FA2839797F334270F0F691D497324CDD5
:105AD00091341C3EA63992E6711ED7D31C09015E93
